{
	"data": {
		"bytecode": {
			"linkReferences": {},
			"object": "6080604052600c805460ff60a01b1916600160a01b1790556000600d819055600e819055600f8190556010819055601155601280546001600160a01b03191661dead1790556127066014556127106015556103b66016553480156200006357600080fd5b5060405162003b7538038062003b7583398181016040526101c08110156200008a57600080fd5b8101908080516040519392919084640100000000821115620000ab57600080fd5b908301906020820185811115620000c157600080fd5b8251866020820283011164010000000082111715620000df57600080fd5b82525081516020918201928201910280838360005b838110156200010e578181015183820152602001620000f4565b505050509190910160408181526020840151908401516060850151608086015160a0909601805193989297919695509192909190846401000000008211156200015657600080fd5b9083019060208201858111156200016c57600080fd5b82518660208202830111640100000000821117156200018a57600080fd5b82525081516020918201928201910280838360005b83811015620001b95781810151838201526020016200019f565b5050505090500160405260200180516040519392919084640100000000821115620001e357600080fd5b908301906020820185811115620001f957600080fd5b82518660208202830111640100000000821117156200021757600080fd5b82525081516020918201928201910280838360005b83811015620002465781810151838201526020016200022c565b50505050905001604052602001805160405193929190846401000000008211156200027057600080fd5b9083019060208201858111156200028657600080fd5b8251866020820283011164010000000082111715620002a457600080fd5b82525081516020918201928201910280838360005b83811015620002d3578181015183820152602001620002b9565b5050505090500160405260200180516040519392919084640100000000821115620002fd57600080fd5b9083019060208201858111156200031357600080fd5b82518660208202830111640100000000821117156200033157600080fd5b82525081516020918201928201910280838360005b838110156200036057818101518382015260200162000346565b50505050905001604052602001805160405193929190846401000000008211156200038a57600080fd5b908301906020820185811115620003a057600080fd5b8251866020820283011164010000000082111715620003be57600080fd5b82525081516020918201928201910280838360005b83811015620003ed578181015183820152602001620003d3565b505050509190910160409081526020830151908301516060840151608090940151919550935090506000620004216200082a565b600080546001600160a01b0319166001600160a01b03831690811782556040519293509160008051602062003b55833981519152908290a350600180556002805460ff191690558d518e906000906200047657fe5b6020026020010151600960006101000a8154816001600160a01b0302191690836001600160a01b031602179055508d600181518110620004b257fe5b6020026020010151600c60006101000a8154816001600160a01b0302191690836001600160a01b031602179055508d600281518110620004ee57fe5b6020026020010151600a60006101000a8154816001600160a01b0302191690836001600160a01b031602179055508d6003815181106200052a57fe5b6020026020010151600b60006101000a8154816001600160a01b0302191690836001600160a01b031602179055508d6004815181106200056657fe5b6020026020010151600460006101000a8154816001600160a01b0302191690836001600160a01b031602179055508d600581518110620005a257fe5b6020026020010151600560006101000a8154816001600160a01b0302191690836001600160a01b031602179055508d600681518110620005de57fe5b6020026020010151600660006101000a8154816001600160a01b0302191690836001600160a01b031602179055508d6007815181106200061a57fe5b6020026020010151600760006101000a8154816001600160a01b0302191690836001600160a01b031602179055508d6008815181106200065657fe5b6020026020010151600260046101000a8154816001600160a01b0302191690836001600160a01b031602179055508c6003819055508b600260016101000a81548160ff0219169083151502179055508a6002806101000a81548160ff02191690831515021790555089600260036101000a81548160ff0219169083151502179055508d600981518110620006e657fe5b602090810291909101810151600880546001600160a01b0319166001600160a01b0390921691909117905589516200072591601791908c01906200092c565b5087516200073b9060189060208b01906200092c565b508651620007519060199060208a01906200092c565b5085516200076790601a9060208901906200092c565b5084516200077d90601b9060208801906200092c565b50836010819055508d600a815181106200079357fe5b6020026020010151601360006101000a8154816001600160a01b0302191690836001600160a01b03160217905550826011819055508d600b81518110620007d657fe5b6020908102919091010151601280546001600160a01b0319166001600160a01b0392831617905560148390556015829055600a546200081691166200082e565b5050505050505050505050505050620009b7565b3390565b620008386200082a565b6000546001600160a01b039081169116146200089b576040805162461bcd60e51b815260206004820181905260248201527f4f776e61626c653a2063616c6c6572206973206e6f7420746865206f776e6572604482015290519081900360640190fd5b6001600160a01b038116620008e25760405162461bcd60e51b815260040180806020018281038252602681526020018062003b2f6026913960400191505060405180910390fd5b600080546040516001600160a01b038085169392169160008051602062003b5583398151915291a3600080546001600160a01b0319166001600160a01b0392909216919091179055565b82805482825590600052602060002090810192821562000984579160200282015b828111156200098457825182546001600160a01b0319166001600160a01b039091161782556020909201916001909101906200094d565b506200099292915062000996565b5090565b5b80821115620009925780546001600160a01b031916815560010162000997565b61316880620009c76000396000f3fe608060405234801561001057600080fd5b506004361061038d5760003560e01c806384fa32ac116101de578063c302a4d01161010f578063e7198474116100ad578063f2fde38b1161007c578063f2fde38b146106dd578063f3fef3a314610703578063fa9748411461072f578063ffbd3b1f146107375761038d565b8063e7198474146106c5578063e7a03679146106cd578063ee50dc341461043a578063f1068454146106d55761038d565b8063d389800f116100e9578063d389800f146106a5578063d5b09163146106ad578063d7cb416f146106b5578063e5dd455a146106bd5761038d565b8063c302a4d01461059c578063c8e3d18b14610662578063cfad57a21461067f5761038d565b80639fc33a9f1161017c578063b74cd24211610156578063b74cd2421461062d578063b77050e714610635578063c0973eed14610652578063c11c2e921461065a5761038d565b80639fc33a9f146105f7578063ad740f8c146105ff578063b3545c01146106255761038d565b80638906758d116101b85780638906758d146105a45780638da5cb5b146105ca57806396e9aff8146105d25780639a246643146105ef5761038d565b806384fa32ac1461055f57806385f02dd614610594578063866b20181461059c5761038d565b806347e7ef24116102c357806367206d4011610261578063783478ad11610230578063783478ad1461053f5780637ff36fbe146105475780638456cb591461054f578063846d9e17146105575761038d565b806367206d40146104f157806368f5416214610527578063693a090b1461052f578063715018a6146105375761038d565b80635da79d631161029d5780635da79d63146104a657806362e582e7146104cc57806363fe3e3a146104e957806367057b6c1461043a5761038d565b806347e7ef24146104725780634d9f7bb21461043a5780635c975abb1461049e5761038d565b80632717eff3116103305780633f4ba83a1161030a5780633f4ba83a1461045257806342da4eb31461045a57806344a3955e1461046257806346008a071461046a5761038d565b80632717eff31461043a578063366ba2461461044257806336e9332d1461044a5761038d565b80630daef3211161036c5780630daef321146104065780630fa4e01e146104225780631334903f1461042a578063178a8d07146104325761038d565b80627a2ae314610392578063061c7d48146103cb5780630b6bb30b146103e5575b600080fd5b6103af600480360360208110156103a857600080fd5b503561073f565b604080516001600160a01b039092168252519081900360200190f35b6103d3610766565b60408051918252519081900360200190f35b610404600480360360208110156103fb57600080fd5b5035151561076c565b005b61040e610807565b604080519115158252519081900360200190f35b6103d3610817565b6103d361081d565b6103d3610823565b6103d3610829565b6103af61082f565b61040461083e565b610404610897565b6103d36108e9565b6103d36108ef565b6103af6108f5565b6103d36004803603604081101561048857600080fd5b506001600160a01b038135169060200135610904565b61040e610aa7565b610404600480360360208110156104bc57600080fd5b50356001600160a01b0316610ab0565b6103af600480360360208110156104e257600080fd5b5035610b4c565b6103af610b59565b6104046004803603606081101561050757600080fd5b506001600160a01b03813581169160208101359160409091013516610b68565b6103d3610c5f565b6103af610c65565b610404610c74565b6103af610d16565b6103af610d25565b610404610d34565b61040e610d84565b610404600480360360a081101561057557600080fd5b5080359060208101359060408101359060608101359060800135610d92565b6103d36110a1565b6103d36110a7565b610404600480360360208110156105ba57600080fd5b50356001600160a01b03166110ad565b6103af611149565b6103af600480360360208110156105e857600080fd5b5035611158565b61040e611165565b6103af611174565b6104046004803603602081101561061557600080fd5b50356001600160a01b031661118b565b6103d3611227565b6103d361122d565b6103af6004803603602081101561064b57600080fd5b5035611233565b6103af611240565b61040461124f565b6103af6004803603602081101561067857600080fd5b50356115d0565b6104046004803603602081101561069557600080fd5b50356001600160a01b03166115dd565b610404611679565b610404611c63565b6103af611cb3565b61040e611cc2565b6103af611cd2565b6103af611ce1565b6103d3611cf0565b610404600480360360208110156106f357600080fd5b50356001600160a01b0316611cf6565b6103d36004803603604081101561071957600080fd5b506001600160a01b038135169060200135611dee565b6103af61202a565b6103d3612039565b601b818154811061074c57fe5b6000918252602090912001546001600160a01b0316905081565b61012c81565b600c546001600160a01b031633146107b4576040805162461bcd60e51b8152602060048083019190915260248201526310b3b7bb60e11b604482015290519081900360640190fd5b600c8054821515600160a01b810260ff60a01b199092169190911790915560408051918252517f125177ac7b8930dac1e59c2b30b1b6b9191b30af40cf6bbb5d20fec4d44be60f9181900360200190a150565b600c54600160a01b900460ff1681565b600d5481565b60145481565b60115481565b61271081565b600b546001600160a01b031681565b60026001541415610884576040805162461bcd60e51b815260206004820152601f6024820152600080516020613026833981519152604482015290519081900360640190fd5b600260015561089161203f565b60018055565b600c546001600160a01b031633146108df576040805162461bcd60e51b8152602060048083019190915260248201526310b3b7bb60e11b604482015290519081900360640190fd5b6108e7612248565b565b600e5481565b600f5481565b600c546001600160a01b031681565b600061090e6122e6565b6000546001600160a01b0390811691161461095e576040805162461bcd60e51b815260206004820181905260248201526000805160206130b3833981519152604482015290519081900360640190fd5b600260015414156109a4576040805162461bcd60e51b815260206004820152601f6024820152600080516020613026833981519152604482015290519081900360640190fd5b600260018190555460ff16156109f4576040805162461bcd60e51b815260206004820152601060248201526f14185d5cd8589b194e881c185d5cd95960821b604482015290519081900360640190fd5b600454610a0c906001600160a01b03163330856122ea565b600e54829015801590610a2157506000600f54115b15610a5c57610a59612710610a53600e54610a53601454610a4d600f548a61234a90919063ffffffff16565b9061234a565b906123ac565b90505b600f54610a6990826123ee565b600f556002546301000000900460ff1615610a8b57610a8661203f565b610a9c565b600e54610a9890846123ee565b600e555b600180559392505050565b60025460ff1690565b600c546001600160a01b03163314610af8576040805162461bcd60e51b8152602060048083019190915260248201526310b3b7bb60e11b604482015290519081900360640190fd5b600880546001600160a01b0383166001600160a01b0319909116811790915560408051918252517f384f1dcb79da4071839c471d7c81884a43fb946a527f3661fdee5904adc8f6579181900360200190a150565b6017818154811061074c57fe5b6009546001600160a01b031681565b600c546001600160a01b03163314610bb0576040805162461bcd60e51b8152602060048083019190915260248201526310b3b7bb60e11b604482015290519081900360640190fd5b6007546001600160a01b0384811691161415610bfb576040805162461bcd60e51b8152602060048201526005602482015264217361666560d81b604482015290519081900360640190fd5b6004546001600160a01b0384811691161415610c46576040805162461bcd60e51b8152602060048201526005602482015264217361666560d81b604482015290519081900360640190fd5b610c5a6001600160a01b0384168284612448565b505050565b60155481565b6008546001600160a01b031681565b610c7c6122e6565b6000546001600160a01b03908116911614610ccc576040805162461bcd60e51b815260206004820181905260248201526000805160206130b3833981519152604482015290519081900360640190fd5b600080546040516001600160a01b03909116907f8be0079c531659141344cd1fd0a4f28419497f9722a3daafe3b4186f6b6457e0908390a3600080546001600160a01b0319169055565b6012546001600160a01b031681565b6005546001600160a01b031681565b600c546001600160a01b03163314610d7c576040805162461bcd60e51b8152602060048083019190915260248201526310b3b7bb60e11b604482015290519081900360640190fd5b6108e761249a565b600254610100900460ff1681565b600c546001600160a01b03163314610dda576040805162461bcd60e51b8152602060048083019190915260248201526310b3b7bb60e11b604482015290519081900360640190fd5b6126de851015610e31576040805162461bcd60e51b815260206004820152601a60248201527f5f656e7472616e6365466565466163746f7220746f6f206c6f77000000000000604482015290519081900360640190fd5b612710851115610e88576040805162461bcd60e51b815260206004820152601b60248201527f5f656e7472616e6365466565466163746f7220746f6f20686967680000000000604482015290519081900360640190fd5b60148590556126de841015610ee4576040805162461bcd60e51b815260206004820152601a60248201527f5f7769746864726177466565466163746f7220746f6f206c6f77000000000000604482015290519081900360640190fd5b612710841115610f3b576040805162461bcd60e51b815260206004820152601b60248201527f5f7769746864726177466565466163746f7220746f6f20686967680000000000604482015290519081900360640190fd5b601584905561012c831115610f97576040805162461bcd60e51b815260206004820152601760248201527f5f636f6e74726f6c6c657246656520746f6f2068696768000000000000000000604482015290519081900360640190fd5b6010839055610320821115610feb576040805162461bcd60e51b81526020600482015260156024820152740bec4eaf284c2c6d6a4c2e8ca40e8dede40d0d2ced605b1b604482015290519081900360640190fd5b60118290556103e3811115611047576040805162461bcd60e51b815260206004820152601860248201527f5f736c697070616765466163746f7220746f6f20686967680000000000000000604482015290519081900360640190fd5b60168190556040805186815260208101869052808201859052606081018490526080810183905290517fc67e0b149a57a70fa44a531a46c2c6d8e0b242fa12f459f250012c3a5987d29a9181900360a00190a15050505050565b60105481565b6126de81565b600c546001600160a01b031633146110f5576040805162461bcd60e51b8152602060048083019190915260248201526310b3b7bb60e11b604482015290519081900360640190fd5b601380546001600160a01b0383166001600160a01b0319909116811790915560408051918252517fa69f1931be99336e049905baa11d21ed44204d7686e46b4344404d80d47c29889181900360200190a150565b6000546001600160a01b031690565b6019818154811061074c57fe5b60025462010000900460ff1681565b60025464010000000090046001600160a01b031681565b600c546001600160a01b031633146111d3576040805162461bcd60e51b8152602060048083019190915260248201526310b3b7bb60e11b604482015290519081900360640190fd5b601280546001600160a01b0383166001600160a01b0319909116811790915560408051918252517f200c92aaea275302bf641e37f7a5dda63f445f08f4fc74a5cde7fd643f609e099181900360200190a150565b61032081565b6103e381565b601a818154811061074c57fe5b6013546001600160a01b031681565b60025460ff161561129a576040805162461bcd60e51b815260206004820152601060248201526f14185d5cd8589b194e881c185d5cd95960821b604482015290519081900360640190fd5b6002546301000000900460ff166112e6576040805162461bcd60e51b815260206004820152600b60248201526a02169734175746f436f6d760ac1b604482015290519081900360640190fd5b600254610100900460ff1615611333576040805162461bcd60e51b815260206004820152600d60248201526c697343414b455374616b696e6760981b604482015290519081900360640190fd5b600554604080516370a0823160e01b815230600482015290516000926001600160a01b0316916370a08231916024808301926020929190829003018186803b15801561137e57600080fd5b505afa158015611392573d6000803e3d6000fd5b505050506040513d60208110156113a857600080fd5b50516007546005549192506001600160a01b039182169116148015906113ce5750600081115b15611483576008546005546113f0916001600160a01b0391821691168361251b565b611483600860009054906101000a90046001600160a01b031682601654601a80548060200260200160405190810160405280929190818152602001828054801561146357602002820191906000526020600020905b81546001600160a01b03168152600190910190602001808311611445575b50505050503061147e610258426123ee90919063ffffffff16565b612606565b600654604080516370a0823160e01b815230600482015290516000926001600160a01b0316916370a08231916024808301926020929190829003018186803b1580156114ce57600080fd5b505afa1580156114e2573d6000803e3d6000fd5b505050506040513d60208110156114f857600080fd5b50516007546006549192506001600160a01b0391821691161480159061151e5750600081115b156115cc57600854600654611540916001600160a01b0391821691168361251b565b6115cc600860009054906101000a90046001600160a01b031682601654601b805480602002602001604051908101604052809291908181526020018280548015611463576020028201919060005260206000209081546001600160a01b031681526001909101906020018083116114455750505050503061147e610258426123ee90919063ffffffff16565b5050565b6018818154811061074c57fe5b600c546001600160a01b03163314611625576040805162461bcd60e51b8152602060048083019190915260248201526310b3b7bb60e11b604482015290519081900360640190fd5b600c80546001600160a01b0383166001600160a01b0319909116811790915560408051918252517f91a8c1cc2d4a3bb60738481947a00cbb9899c822916694cf8bb1d68172fdcd549181900360200190a150565b600260015414156116bf576040805162461bcd60e51b815260206004820152601f6024820152600080516020613026833981519152604482015290519081900360640190fd5b600260018190555460ff161561170f576040805162461bcd60e51b815260206004820152601060248201526f14185d5cd8589b194e881c185d5cd95960821b604482015290519081900360640190fd5b6002546301000000900460ff1661175b576040805162461bcd60e51b815260206004820152600b60248201526a02169734175746f436f6d760ac1b604482015290519081900360640190fd5b600c54600160a01b900460ff16156117b557600c546001600160a01b031633146117b5576040805162461bcd60e51b8152602060048083019190915260248201526310b3b7bb60e11b604482015290519081900360640190fd5b6117bf6000612870565b6009546007546001600160a01b03908116911614156117e0576117e0612940565b600754604080516370a0823160e01b815230600482015290516000926001600160a01b0316916370a08231916024808301926020929190829003018186803b15801561182b57600080fd5b505afa15801561183f573d6000803e3d6000fd5b505050506040513d602081101561185557600080fd5b50519050611862816129b3565b905061186d81612a16565b600254909150610100900460ff168061188e575060025462010000900460ff165b156118a55743600d5561189f61203f565b50610891565b6008546007546118c3916001600160a01b0391821691166000612b44565b6008546007546118e0916001600160a01b0391821691168361251b565b6005546007546001600160a01b0390811691161461198557600854611985906001600160a01b03166119138360026123ac565b6016546018805480602002602001604051908101604052809291908181526020018280548015611463576020028201919060005260206000209081546001600160a01b031681526001909101906020018083116114455750505050503061147e610258426123ee90919063ffffffff16565b6006546007546001600160a01b03908116911614611a2a57600854611a2a906001600160a01b03166119b88360026123ac565b6016546019805480602002602001604051908101604052809291908181526020018280548015611463576020028201919060005260206000209081546001600160a01b031681526001909101906020018083116114455750505050503061147e610258426123ee90919063ffffffff16565b600554604080516370a0823160e01b815230600482015290516000926001600160a01b0316916370a08231916024808301926020929190829003018186803b158015611a7557600080fd5b505afa158015611a89573d6000803e3d6000fd5b505050506040513d6020811015611a9f57600080fd5b5051600654604080516370a0823160e01b815230600482015290519293506000926001600160a01b03909216916370a0823191602480820192602092909190829003018186803b158015611af257600080fd5b505afa158015611b06573d6000803e3d6000fd5b505050506040513d6020811015611b1c57600080fd5b505190508115801590611b2f5750600081115b15611c4e57600854600554611b51916001600160a01b0391821691168461251b565b600854600654611b6e916001600160a01b0391821691168361251b565b6008546005546006546001600160a01b039283169263e8e337009281169116858560008030611b9f426102586123ee565b6040518963ffffffff1660e01b815260040180896001600160a01b03168152602001886001600160a01b03168152602001878152602001868152602001858152602001848152602001836001600160a01b0316815260200182815260200198505050505050505050606060405180830381600087803b158015611c2157600080fd5b505af1158015611c35573d6000803e3d6000fd5b505050506040513d6060811015611c4b57600080fd5b50505b43600d55611c5a61203f565b50505060018055565b600c546001600160a01b03163314611cab576040805162461bcd60e51b8152602060048083019190915260248201526310b3b7bb60e11b604482015290519081900360640190fd5b6108e7612940565b6006546001600160a01b031681565b6002546301000000900460ff1681565b6007546001600160a01b031681565b6004546001600160a01b031681565b60035481565b611cfe6122e6565b6000546001600160a01b03908116911614611d4e576040805162461bcd60e51b815260206004820181905260248201526000805160206130b3833981519152604482015290519081900360640190fd5b6001600160a01b038116611d935760405162461bcd60e51b81526004018080602001828103825260268152602001806130466026913960400191505060405180910390fd5b600080546040516001600160a01b03808516939216917f8be0079c531659141344cd1fd0a4f28419497f9722a3daafe3b4186f6b6457e091a3600080546001600160a01b0319166001600160a01b0392909216919091179055565b6000611df86122e6565b6000546001600160a01b03908116911614611e48576040805162461bcd60e51b815260206004820181905260248201526000805160206130b3833981519152604482015290519081900360640190fd5b60026001541415611e8e576040805162461bcd60e51b815260206004820152601f6024820152600080516020613026833981519152604482015290519081900360640190fd5b600260015581611ed5576040805162461bcd60e51b815260206004820152600d60248201526c05f77616e74416d74203c3d203609c1b604482015290519081900360640190fd5b6000611ef2600e54610a53600f548661234a90919063ffffffff16565b9050600f54811115611f035750600f545b600f54611f109082612c57565b600f556015546127101115611f3d57611f3a612710610a536015548661234a90919063ffffffff16565b92505b6002546301000000900460ff1615611f5857611f5883612870565b60048054604080516370a0823160e01b81523093810193909352516000926001600160a01b03909216916370a08231916024808301926020929190829003018186803b158015611fa757600080fd5b505afa158015611fbb573d6000803e3d6000fd5b505050506040513d6020811015611fd157600080fd5b5051905080841115611fe1578093505b83600e541015611ff157600e5493505b600e54611ffe9085612c57565b600e55600a5460045461201e916001600160a01b03918216911686612448565b50600180559392505050565b600a546001600160a01b031681565b60165481565b6002546301000000900460ff1661208b576040805162461bcd60e51b815260206004820152600b60248201526a02169734175746f436f6d760ac1b604482015290519081900360640190fd5b60048054604080516370a0823160e01b81523093810193909352516000926001600160a01b03909216916370a08231916024808301926020929190829003018186803b1580156120da57600080fd5b505afa1580156120ee573d6000803e3d6000fd5b505050506040513d602081101561210457600080fd5b5051600e5490915061211690826123ee565b600e5560025460045461213f916001600160a01b0391821691640100000000909104168361251b565b600254610100900460ff16156121c757600260049054906101000a90046001600160a01b03166001600160a01b03166341441d3b826040518263ffffffff1660e01b815260040180828152602001915050600060405180830381600087803b1580156121aa57600080fd5b505af11580156121be573d6000803e3d6000fd5b50505050612245565b600260049054906101000a90046001600160a01b03166001600160a01b031663e2bbb158600354836040518363ffffffff1660e01b81526004018083815260200182815260200192505050600060405180830381600087803b15801561222c57600080fd5b505af1158015612240573d6000803e3d6000fd5b505050505b50565b60025460ff16612296576040805162461bcd60e51b815260206004820152601460248201527314185d5cd8589b194e881b9bdd081c185d5cd95960621b604482015290519081900360640190fd5b6002805460ff191690557f5db9ee0a495bf2e6ff9c91a7834c1ba4fdd244a5e8aa4e537bd38aeae4b073aa6122c96122e6565b604080516001600160a01b039092168252519081900360200190a1565b3390565b604080516001600160a01b0380861660248301528416604482015260648082018490528251808303909101815260849091019091526020810180516001600160e01b03166323b872dd60e01b179052612344908590612c99565b50505050565b600082612359575060006123a6565b8282028284828161236657fe5b04146123a35760405162461bcd60e51b81526004018080602001828103825260218152602001806130926021913960400191505060405180910390fd5b90505b92915050565b60006123a383836040518060400160405280601a81526020017f536166654d6174683a206469766973696f6e206279207a65726f000000000000815250612d4a565b6000828201838110156123a3576040805162461bcd60e51b815260206004820152601b60248201527f536166654d6174683a206164646974696f6e206f766572666c6f770000000000604482015290519081900360640190fd5b604080516001600160a01b038416602482015260448082018490528251808303909101815260649091019091526020810180516001600160e01b031663a9059cbb60e01b179052610c5a908490612c99565b60025460ff16156124e5576040805162461bcd60e51b815260206004820152601060248201526f14185d5cd8589b194e881c185d5cd95960821b604482015290519081900360640190fd5b6002805460ff191660011790557f62e78cea01bee320cd4e420270b5ea74000d11b0c9f74754ebdbfc544b05a2586122c96122e6565b60006125b182856001600160a01b031663dd62ed3e30876040518363ffffffff1660e01b815260040180836001600160a01b03168152602001826001600160a01b031681526020019250505060206040518083038186803b15801561257f57600080fd5b505afa158015612593573d6000803e3d6000fd5b505050506040513d60208110156125a957600080fd5b5051906123ee565b604080516001600160a01b038616602482015260448082018490528251808303909101815260649091019091526020810180516001600160e01b031663095ea7b360e01b179052909150612344908590612c99565b6040805163d06ca61f60e01b815260048101878152602482019283528551604483015285516060936001600160a01b038b169363d06ca61f938b938a939192606401906020808601910280838360005b8381101561266e578181015183820152602001612656565b50505050905001935050505060006040518083038186803b15801561269257600080fd5b505afa1580156126a6573d6000803e3d6000fd5b505050506040513d6000823e601f3d908101601f1916820160405260208110156126cf57600080fd5b81019080805160405193929190846401000000008211156126ef57600080fd5b90830190602082018581111561270457600080fd5b825186602082028301116401000000008211171561272157600080fd5b82525081516020918201928201910280838360005b8381101561274e578181015183820152602001612736565b50505050905001604052505050905060008161277560018451612c5790919063ffffffff16565b8151811061277f57fe5b60200260200101519050876001600160a01b0316635c11d795886127b26103e8610a538b8761234a90919063ffffffff16565b8888886040518663ffffffff1660e01b81526004018086815260200185815260200180602001846001600160a01b03168152602001838152602001828103825285818151815260200191508051906020019060200280838360005b8381101561282557818101518382015260200161280d565b505050509050019650505050505050600060405180830381600087803b15801561284e57600080fd5b505af1158015612862573d6000803e3d6000fd5b505050505050505050505050565b600254610100900460ff16156128db57600260049054906101000a90046001600160a01b03166001600160a01b0316631058d281826040518263ffffffff1660e01b815260040180828152602001915050600060405180830381600087803b1580156121aa57600080fd5b600260049054906101000a90046001600160a01b03166001600160a01b031663441a3e70600354836040518363ffffffff1660e01b81526004018083815260200182815260200192505050600060405180830381600087803b15801561222c57600080fd5b47801561224557600960009054906101000a90046001600160a01b03166001600160a01b031663d0e30db0826040518263ffffffff1660e01b81526004016000604051808303818588803b15801561299757600080fd5b505af11580156129ab573d6000803e3d6000fd5b505050505050565b60008115612a0e5760105415612a0e5760006129e0612710610a536010548661234a90919063ffffffff16565b601354600754919250612a00916001600160a01b03908116911683612448565b612a0a8382612c57565b9250505b50805b919050565b60008060115411612a28575080612a11565b6000612a45612710610a536011548661234a90919063ffffffff16565b600b546007549192506001600160a01b0391821691161415612a8357601254600754612a7e916001600160a01b03918216911683612448565b612b33565b600854600754612aa0916001600160a01b0391821691168361251b565b612b33600860009054906101000a90046001600160a01b0316826016546017805480602002602001604051908101604052809291908181526020018280548015612b1357602002820191906000526020600020905b81546001600160a01b03168152600190910190602001808311612af5575b50506012546001600160a01b0316925061147e91504290506102586123ee565b612b3d8382612c57565b9392505050565b801580612bca575060408051636eb1769f60e11b81523060048201526001600160a01b03848116602483015291519185169163dd62ed3e91604480820192602092909190829003018186803b158015612b9c57600080fd5b505afa158015612bb0573d6000803e3d6000fd5b505050506040513d6020811015612bc657600080fd5b5051155b612c055760405162461bcd60e51b81526004018080602001828103825260368152602001806130fd6036913960400191505060405180910390fd5b604080516001600160a01b038416602482015260448082018490528251808303909101815260649091019091526020810180516001600160e01b031663095ea7b360e01b179052610c5a908490612c99565b60006123a383836040518060400160405280601e81526020017f536166654d6174683a207375627472616374696f6e206f766572666c6f770000815250612dec565b6060612cee826040518060400160405280602081526020017f5361666545524332303a206c6f772d6c6576656c2063616c6c206661696c6564815250856001600160a01b0316612e469092919063ffffffff16565b805190915015610c5a57808060200190516020811015612d0d57600080fd5b5051610c5a5760405162461bcd60e51b815260040180806020018281038252602a8152602001806130d3602a913960400191505060405180910390fd5b60008183612dd65760405162461bcd60e51b81526004018080602001828103825283818151815260200191508051906020019080838360005b83811015612d9b578181015183820152602001612d83565b50505050905090810190601f168015612dc85780820380516001836020036101000a031916815260200191505b509250505060405180910390fd5b506000838581612de257fe5b0495945050505050565b60008184841115612e3e5760405162461bcd60e51b8152602060048201818152835160248401528351909283926044909101919085019080838360008315612d9b578181015183820152602001612d83565b505050900390565b6060612e558484600085612e5d565b949350505050565b606082471015612e9e5760405162461bcd60e51b815260040180806020018281038252602681526020018061306c6026913960400191505060405180910390fd5b612ea785612fb9565b612ef8576040805162461bcd60e51b815260206004820152601d60248201527f416464726573733a2063616c6c20746f206e6f6e2d636f6e7472616374000000604482015290519081900360640190fd5b60006060866001600160a01b031685876040518082805190602001908083835b60208310612f375780518252601f199092019160209182019101612f18565b6001836020036101000a03801982511681845116808217855250505050505090500191505060006040518083038185875af1925050503d8060008114612f99576040519150601f19603f3d011682016040523d82523d6000602084013e612f9e565b606091505b5091509150612fae828286612fbf565b979650505050505050565b3b151590565b60608315612fce575081612b3d565b825115612fde5782518084602001fd5b60405162461bcd60e51b8152602060048201818152845160248401528451859391928392604401919085019080838360008315612d9b578181015183820152602001612d8356fe5265656e7472616e637947756172643a207265656e7472616e742063616c6c004f776e61626c653a206e6577206f776e657220697320746865207a65726f2061646472657373416464726573733a20696e73756666696369656e742062616c616e636520666f722063616c6c536166654d6174683a206d756c7469706c69636174696f6e206f766572666c6f774f776e61626c653a2063616c6c6572206973206e6f7420746865206f776e65725361666545524332303a204552433230206f7065726174696f6e20646964206e6f7420737563636565645361666545524332303a20617070726f76652066726f6d206e6f6e2d7a65726f20746f206e6f6e2d7a65726f20616c6c6f77616e6365a2646970667358221220e8f771b2a66f96a5cddff2547e1bb5add0e697dc0ec810337c0b79a2ad8c991064736f6c634300060c00334f776e61626c653a206e6577206f776e657220697320746865207a65726f20616464726573738be0079c531659141344cd1fd0a4f28419497f9722a3daafe3b4186f6b6457e0",
			"opcodes": "PUSH1 0x80 PUSH1 0x40 MSTORE PUSH1 0xC DUP1 SLOAD PUSH1 0xFF PUSH1 0xA0 SHL NOT AND PUSH1 0x1 PUSH1 0xA0 SHL OR SWAP1 SSTORE PUSH1 0x0 PUSH1 0xD DUP2 SWAP1 SSTORE PUSH1 0xE DUP2 SWAP1 SSTORE PUSH1 0xF DUP2 SWAP1 SSTORE PUSH1 0x10 DUP2 SWAP1 SSTORE PUSH1 0x11 SSTORE PUSH1 0x12 DUP1 SLOAD PUSH1 0x1 PUSH1 0x1 PUSH1 0xA0 SHL SUB NOT AND PUSH2 0xDEAD OR SWAP1 SSTORE PUSH2 0x2706 PUSH1 0x14 SSTORE PUSH2 0x2710 PUSH1 0x15 SSTORE PUSH2 0x3B6 PUSH1 0x16 SSTORE CALLVALUE DUP1 ISZERO PUSH3 0x63 JUMPI PUSH1 0x0 DUP1 REVERT JUMPDEST POP PUSH1 0x40 MLOAD PUSH3 0x3B75 CODESIZE SUB DUP1 PUSH3 0x3B75 DUP4 CODECOPY DUP2 DUP2 ADD PUSH1 0x40 MSTORE PUSH2 0x1C0 DUP2 LT ISZERO PUSH3 0x8A JUMPI PUSH1 0x0 DUP1 REVERT JUMPDEST DUP2 ADD SWAP1 DUP1 DUP1 MLOAD PUSH1 0x40 MLOAD SWAP4 SWAP3 SWAP2 SWAP1 DUP5 PUSH5 0x100000000 DUP3 GT ISZERO PUSH3 0xAB JUMPI PUSH1 0x0 DUP1 REVERT JUMPDEST SWAP1 DUP4 ADD SWAP1 PUSH1 0x20 DUP3 ADD DUP6 DUP2 GT ISZERO PUSH3 0xC1 JUMPI PUSH1 0x0 DUP1 REVERT JUMPDEST DUP3 MLOAD DUP7 PUSH1 0x20 DUP3 MUL DUP4 ADD GT PUSH5 0x100000000 DUP3 GT OR ISZERO PUSH3 0xDF JUMPI PUSH1 0x0 DUP1 REVERT JUMPDEST DUP3 MSTORE POP DUP2 MLOAD PUSH1 0x20 SWAP2 DUP3 ADD SWAP3 DUP3 ADD SWAP2 MUL DUP1 DUP4 DUP4 PUSH1 0x0 JUMPDEST DUP4 DUP2 LT ISZERO PUSH3 0x10E JUMPI DUP2 DUP2 ADD MLOAD DUP4 DUP3 ADD MSTORE PUSH1 0x20 ADD PUSH3 0xF4 JUMP JUMPDEST POP POP POP POP SWAP2 SWAP1 SWAP2 ADD PUSH1 0x40 DUP2 DUP2 MSTORE PUSH1 0x20 DUP5 ADD MLOAD SWAP1 DUP5 ADD MLOAD PUSH1 0x60 DUP6 ADD MLOAD PUSH1 0x80 DUP7 ADD MLOAD PUSH1 0xA0 SWAP1 SWAP7 ADD DUP1 MLOAD SWAP4 SWAP9 SWAP3 SWAP8 SWAP2 SWAP7 SWAP6 POP SWAP2 SWAP3 SWAP1 SWAP2 SWAP1 DUP5 PUSH5 0x100000000 DUP3 GT ISZERO PUSH3 0x156 JUMPI PUSH1 0x0 DUP1 REVERT JUMPDEST SWAP1 DUP4 ADD SWAP1 PUSH1 0x20 DUP3 ADD DUP6 DUP2 GT ISZERO PUSH3 0x16C JUMPI PUSH1 0x0 DUP1 REVERT JUMPDEST DUP3 MLOAD DUP7 PUSH1 0x20 DUP3 MUL DUP4 ADD GT PUSH5 0x100000000 DUP3 GT OR ISZERO PUSH3 0x18A JUMPI PUSH1 0x0 DUP1 REVERT JUMPDEST DUP3 MSTORE POP DUP2 MLOAD PUSH1 0x20 SWAP2 DUP3 ADD SWAP3 DUP3 ADD SWAP2 MUL DUP1 DUP4 DUP4 PUSH1 0x0 JUMPDEST DUP4 DUP2 LT ISZERO PUSH3 0x1B9 JUMPI DUP2 DUP2 ADD MLOAD DUP4 DUP3 ADD MSTORE PUSH1 0x20 ADD PUSH3 0x19F JUMP JUMPDEST POP POP POP POP SWAP1 POP ADD PUSH1 0x40 MSTORE PUSH1 0x20 ADD DUP1 MLOAD PUSH1 0x40 MLOAD SWAP4 SWAP3 SWAP2 SWAP1 DUP5 PUSH5 0x100000000 DUP3 GT ISZERO PUSH3 0x1E3 JUMPI PUSH1 0x0 DUP1 REVERT JUMPDEST SWAP1 DUP4 ADD SWAP1 PUSH1 0x20 DUP3 ADD DUP6 DUP2 GT ISZERO PUSH3 0x1F9 JUMPI PUSH1 0x0 DUP1 REVERT JUMPDEST DUP3 MLOAD DUP7 PUSH1 0x20 DUP3 MUL DUP4 ADD GT PUSH5 0x100000000 DUP3 GT OR ISZERO PUSH3 0x217 JUMPI PUSH1 0x0 DUP1 REVERT JUMPDEST DUP3 MSTORE POP DUP2 MLOAD PUSH1 0x20 SWAP2 DUP3 ADD SWAP3 DUP3 ADD SWAP2 MUL DUP1 DUP4 DUP4 PUSH1 0x0 JUMPDEST DUP4 DUP2 LT ISZERO PUSH3 0x246 JUMPI DUP2 DUP2 ADD MLOAD DUP4 DUP3 ADD MSTORE PUSH1 0x20 ADD PUSH3 0x22C JUMP JUMPDEST POP POP POP POP SWAP1 POP ADD PUSH1 0x40 MSTORE PUSH1 0x20 ADD DUP1 MLOAD PUSH1 0x40 MLOAD SWAP4 SWAP3 SWAP2 SWAP1 DUP5 PUSH5 0x100000000 DUP3 GT ISZERO PUSH3 0x270 JUMPI PUSH1 0x0 DUP1 REVERT JUMPDEST SWAP1 DUP4 ADD SWAP1 PUSH1 0x20 DUP3 ADD DUP6 DUP2 GT ISZERO PUSH3 0x286 JUMPI PUSH1 0x0 DUP1 REVERT JUMPDEST DUP3 MLOAD DUP7 PUSH1 0x20 DUP3 MUL DUP4 ADD GT PUSH5 0x100000000 DUP3 GT OR ISZERO PUSH3 0x2A4 JUMPI PUSH1 0x0 DUP1 REVERT JUMPDEST DUP3 MSTORE POP DUP2 MLOAD PUSH1 0x20 SWAP2 DUP3 ADD SWAP3 DUP3 ADD SWAP2 MUL DUP1 DUP4 DUP4 PUSH1 0x0 JUMPDEST DUP4 DUP2 LT ISZERO PUSH3 0x2D3 JUMPI DUP2 DUP2 ADD MLOAD DUP4 DUP3 ADD MSTORE PUSH1 0x20 ADD PUSH3 0x2B9 JUMP JUMPDEST POP POP POP POP SWAP1 POP ADD PUSH1 0x40 MSTORE PUSH1 0x20 ADD DUP1 MLOAD PUSH1 0x40 MLOAD SWAP4 SWAP3 SWAP2 SWAP1 DUP5 PUSH5 0x100000000 DUP3 GT ISZERO PUSH3 0x2FD JUMPI PUSH1 0x0 DUP1 REVERT JUMPDEST SWAP1 DUP4 ADD SWAP1 PUSH1 0x20 DUP3 ADD DUP6 DUP2 GT ISZERO PUSH3 0x313 JUMPI PUSH1 0x0 DUP1 REVERT JUMPDEST DUP3 MLOAD DUP7 PUSH1 0x20 DUP3 MUL DUP4 ADD GT PUSH5 0x100000000 DUP3 GT OR ISZERO PUSH3 0x331 JUMPI PUSH1 0x0 DUP1 REVERT JUMPDEST DUP3 MSTORE POP DUP2 MLOAD PUSH1 0x20 SWAP2 DUP3 ADD SWAP3 DUP3 ADD SWAP2 MUL DUP1 DUP4 DUP4 PUSH1 0x0 JUMPDEST DUP4 DUP2 LT ISZERO PUSH3 0x360 JUMPI DUP2 DUP2 ADD MLOAD DUP4 DUP3 ADD MSTORE PUSH1 0x20 ADD PUSH3 0x346 JUMP JUMPDEST POP POP POP POP SWAP1 POP ADD PUSH1 0x40 MSTORE PUSH1 0x20 ADD DUP1 MLOAD PUSH1 0x40 MLOAD SWAP4 SWAP3 SWAP2 SWAP1 DUP5 PUSH5 0x100000000 DUP3 GT ISZERO PUSH3 0x38A JUMPI PUSH1 0x0 DUP1 REVERT JUMPDEST SWAP1 DUP4 ADD SWAP1 PUSH1 0x20 DUP3 ADD DUP6 DUP2 GT ISZERO PUSH3 0x3A0 JUMPI PUSH1 0x0 DUP1 REVERT JUMPDEST DUP3 MLOAD DUP7 PUSH1 0x20 DUP3 MUL DUP4 ADD GT PUSH5 0x100000000 DUP3 GT OR ISZERO PUSH3 0x3BE JUMPI PUSH1 0x0 DUP1 REVERT JUMPDEST DUP3 MSTORE POP DUP2 MLOAD PUSH1 0x20 SWAP2 DUP3 ADD SWAP3 DUP3 ADD SWAP2 MUL DUP1 DUP4 DUP4 PUSH1 0x0 JUMPDEST DUP4 DUP2 LT ISZERO PUSH3 0x3ED JUMPI DUP2 DUP2 ADD MLOAD DUP4 DUP3 ADD MSTORE PUSH1 0x20 ADD PUSH3 0x3D3 JUMP JUMPDEST POP POP POP POP SWAP2 SWAP1 SWAP2 ADD PUSH1 0x40 SWAP1 DUP2 MSTORE PUSH1 0x20 DUP4 ADD MLOAD SWAP1 DUP4 ADD MLOAD PUSH1 0x60 DUP5 ADD MLOAD PUSH1 0x80 SWAP1 SWAP5 ADD MLOAD SWAP2 SWAP6 POP SWAP4 POP SWAP1 POP PUSH1 0x0 PUSH3 0x421 PUSH3 0x82A JUMP JUMPDEST PUSH1 0x0 DUP1 SLOAD PUSH1 0x1 PUSH1 0x1 PUSH1 0xA0 SHL SUB NOT AND PUSH1 0x1 PUSH1 0x1 PUSH1 0xA0 SHL SUB DUP4 AND SWAP1 DUP2 OR DUP3 SSTORE PUSH1 0x40 MLOAD SWAP3 SWAP4 POP SWAP2 PUSH1 0x0 DUP1 MLOAD PUSH1 0x20 PUSH3 0x3B55 DUP4 CODECOPY DUP2 MLOAD SWAP2 MSTORE SWAP1 DUP3 SWAP1 LOG3 POP PUSH1 0x1 DUP1 SSTORE PUSH1 0x2 DUP1 SLOAD PUSH1 0xFF NOT AND SWAP1 SSTORE DUP14 MLOAD DUP15 SWAP1 PUSH1 0x0 SWAP1 PUSH3 0x476 JUMPI INVALID JUMPDEST PUSH1 0x20 MUL PUSH1 0x20 ADD ADD MLOAD PUSH1 0x9 PUSH1 0x0 PUSH2 0x100 EXP DUP2 SLOAD DUP2 PUSH1 0x1 PUSH1 0x1 PUSH1 0xA0 SHL SUB MUL NOT AND SWAP1 DUP4 PUSH1 0x1 PUSH1 0x1 PUSH1 0xA0 SHL SUB AND MUL OR SWAP1 SSTORE POP DUP14 PUSH1 0x1 DUP2 MLOAD DUP2 LT PUSH3 0x4B2 JUMPI INVALID JUMPDEST PUSH1 0x20 MUL PUSH1 0x20 ADD ADD MLOAD PUSH1 0xC PUSH1 0x0 PUSH2 0x100 EXP DUP2 SLOAD DUP2 PUSH1 0x1 PUSH1 0x1 PUSH1 0xA0 SHL SUB MUL NOT AND SWAP1 DUP4 PUSH1 0x1 PUSH1 0x1 PUSH1 0xA0 SHL SUB AND MUL OR SWAP1 SSTORE POP DUP14 PUSH1 0x2 DUP2 MLOAD DUP2 LT PUSH3 0x4EE JUMPI INVALID JUMPDEST PUSH1 0x20 MUL PUSH1 0x20 ADD ADD MLOAD PUSH1 0xA PUSH1 0x0 PUSH2 0x100 EXP DUP2 SLOAD DUP2 PUSH1 0x1 PUSH1 0x1 PUSH1 0xA0 SHL SUB MUL NOT AND SWAP1 DUP4 PUSH1 0x1 PUSH1 0x1 PUSH1 0xA0 SHL SUB AND MUL OR SWAP1 SSTORE POP DUP14 PUSH1 0x3 DUP2 MLOAD DUP2 LT PUSH3 0x52A JUMPI INVALID JUMPDEST PUSH1 0x20 MUL PUSH1 0x20 ADD ADD MLOAD PUSH1 0xB PUSH1 0x0 PUSH2 0x100 EXP DUP2 SLOAD DUP2 PUSH1 0x1 PUSH1 0x1 PUSH1 0xA0 SHL SUB MUL NOT AND SWAP1 DUP4 PUSH1 0x1 PUSH1 0x1 PUSH1 0xA0 SHL SUB AND MUL OR SWAP1 SSTORE POP DUP14 PUSH1 0x4 DUP2 MLOAD DUP2 LT PUSH3 0x566 JUMPI INVALID JUMPDEST PUSH1 0x20 MUL PUSH1 0x20 ADD ADD MLOAD PUSH1 0x4 PUSH1 0x0 PUSH2 0x100 EXP DUP2 SLOAD DUP2 PUSH1 0x1 PUSH1 0x1 PUSH1 0xA0 SHL SUB MUL NOT AND SWAP1 DUP4 PUSH1 0x1 PUSH1 0x1 PUSH1 0xA0 SHL SUB AND MUL OR SWAP1 SSTORE POP DUP14 PUSH1 0x5 DUP2 MLOAD DUP2 LT PUSH3 0x5A2 JUMPI INVALID JUMPDEST PUSH1 0x20 MUL PUSH1 0x20 ADD ADD MLOAD PUSH1 0x5 PUSH1 0x0 PUSH2 0x100 EXP DUP2 SLOAD DUP2 PUSH1 0x1 PUSH1 0x1 PUSH1 0xA0 SHL SUB MUL NOT AND SWAP1 DUP4 PUSH1 0x1 PUSH1 0x1 PUSH1 0xA0 SHL SUB AND MUL OR SWAP1 SSTORE POP DUP14 PUSH1 0x6 DUP2 MLOAD DUP2 LT PUSH3 0x5DE JUMPI INVALID JUMPDEST PUSH1 0x20 MUL PUSH1 0x20 ADD ADD MLOAD PUSH1 0x6 PUSH1 0x0 PUSH2 0x100 EXP DUP2 SLOAD DUP2 PUSH1 0x1 PUSH1 0x1 PUSH1 0xA0 SHL SUB MUL NOT AND SWAP1 DUP4 PUSH1 0x1 PUSH1 0x1 PUSH1 0xA0 SHL SUB AND MUL OR SWAP1 SSTORE POP DUP14 PUSH1 0x7 DUP2 MLOAD DUP2 LT PUSH3 0x61A JUMPI INVALID JUMPDEST PUSH1 0x20 MUL PUSH1 0x20 ADD ADD MLOAD PUSH1 0x7 PUSH1 0x0 PUSH2 0x100 EXP DUP2 SLOAD DUP2 PUSH1 0x1 PUSH1 0x1 PUSH1 0xA0 SHL SUB MUL NOT AND SWAP1 DUP4 PUSH1 0x1 PUSH1 0x1 PUSH1 0xA0 SHL SUB AND MUL OR SWAP1 SSTORE POP DUP14 PUSH1 0x8 DUP2 MLOAD DUP2 LT PUSH3 0x656 JUMPI INVALID JUMPDEST PUSH1 0x20 MUL PUSH1 0x20 ADD ADD MLOAD PUSH1 0x2 PUSH1 0x4 PUSH2 0x100 EXP DUP2 SLOAD DUP2 PUSH1 0x1 PUSH1 0x1 PUSH1 0xA0 SHL SUB MUL NOT AND SWAP1 DUP4 PUSH1 0x1 PUSH1 0x1 PUSH1 0xA0 SHL SUB AND MUL OR SWAP1 SSTORE POP DUP13 PUSH1 0x3 DUP2 SWAP1 SSTORE POP DUP12 PUSH1 0x2 PUSH1 0x1 PUSH2 0x100 EXP DUP2 SLOAD DUP2 PUSH1 0xFF MUL NOT AND SWAP1 DUP4 ISZERO ISZERO MUL OR SWAP1 SSTORE POP DUP11 PUSH1 0x2 DUP1 PUSH2 0x100 EXP DUP2 SLOAD DUP2 PUSH1 0xFF MUL NOT AND SWAP1 DUP4 ISZERO ISZERO MUL OR SWAP1 SSTORE POP DUP10 PUSH1 0x2 PUSH1 0x3 PUSH2 0x100 EXP DUP2 SLOAD DUP2 PUSH1 0xFF MUL NOT AND SWAP1 DUP4 ISZERO ISZERO MUL OR SWAP1 SSTORE POP DUP14 PUSH1 0x9 DUP2 MLOAD DUP2 LT PUSH3 0x6E6 JUMPI INVALID JUMPDEST PUSH1 0x20 SWAP1 DUP2 MUL SWAP2 SWAP1 SWAP2 ADD DUP2 ADD MLOAD PUSH1 0x8 DUP1 SLOAD PUSH1 0x1 PUSH1 0x1 PUSH1 0xA0 SHL SUB NOT AND PUSH1 0x1 PUSH1 0x1 PUSH1 0xA0 SHL SUB SWAP1 SWAP3 AND SWAP2 SWAP1 SWAP2 OR SWAP1 SSTORE DUP10 MLOAD PUSH3 0x725 SWAP2 PUSH1 0x17 SWAP2 SWAP1 DUP13 ADD SWAP1 PUSH3 0x92C JUMP JUMPDEST POP DUP8 MLOAD PUSH3 0x73B SWAP1 PUSH1 0x18 SWAP1 PUSH1 0x20 DUP12 ADD SWAP1 PUSH3 0x92C JUMP JUMPDEST POP DUP7 MLOAD PUSH3 0x751 SWAP1 PUSH1 0x19 SWAP1 PUSH1 0x20 DUP11 ADD SWAP1 PUSH3 0x92C JUMP JUMPDEST POP DUP6 MLOAD PUSH3 0x767 SWAP1 PUSH1 0x1A SWAP1 PUSH1 0x20 DUP10 ADD SWAP1 PUSH3 0x92C JUMP JUMPDEST POP DUP5 MLOAD PUSH3 0x77D SWAP1 PUSH1 0x1B SWAP1 PUSH1 0x20 DUP9 ADD SWAP1 PUSH3 0x92C JUMP JUMPDEST POP DUP4 PUSH1 0x10 DUP2 SWAP1 SSTORE POP DUP14 PUSH1 0xA DUP2 MLOAD DUP2 LT PUSH3 0x793 JUMPI INVALID JUMPDEST PUSH1 0x20 MUL PUSH1 0x20 ADD ADD MLOAD PUSH1 0x13 PUSH1 0x0 PUSH2 0x100 EXP DUP2 SLOAD DUP2 PUSH1 0x1 PUSH1 0x1 PUSH1 0xA0 SHL SUB MUL NOT AND SWAP1 DUP4 PUSH1 0x1 PUSH1 0x1 PUSH1 0xA0 SHL SUB AND MUL OR SWAP1 SSTORE POP DUP3 PUSH1 0x11 DUP2 SWAP1 SSTORE POP DUP14 PUSH1 0xB DUP2 MLOAD DUP2 LT PUSH3 0x7D6 JUMPI INVALID JUMPDEST PUSH1 0x20 SWAP1 DUP2 MUL SWAP2 SWAP1 SWAP2 ADD ADD MLOAD PUSH1 0x12 DUP1 SLOAD PUSH1 0x1 PUSH1 0x1 PUSH1 0xA0 SHL SUB NOT AND PUSH1 0x1 PUSH1 0x1 PUSH1 0xA0 SHL SUB SWAP3 DUP4 AND OR SWAP1 SSTORE PUSH1 0x14 DUP4 SWAP1 SSTORE PUSH1 0x15 DUP3 SWAP1 SSTORE PUSH1 0xA SLOAD PUSH3 0x816 SWAP2 AND PUSH3 0x82E JUMP JUMPDEST POP POP POP POP POP POP POP POP POP POP POP POP POP POP PUSH3 0x9B7 JUMP JUMPDEST CALLER SWAP1 JUMP JUMPDEST PUSH3 0x838 PUSH3 0x82A JUMP JUMPDEST PUSH1 0x0 SLOAD PUSH1 0x1 PUSH1 0x1 PUSH1 0xA0 SHL SUB SWAP1 DUP2 AND SWAP2 AND EQ PUSH3 0x89B JUMPI PUSH1 0x40 DUP1 MLOAD PUSH3 0x461BCD PUSH1 0xE5 SHL DUP2 MSTORE PUSH1 0x20 PUSH1 0x4 DUP3 ADD DUP2 SWAP1 MSTORE PUSH1 0x24 DUP3 ADD MSTORE PUSH32 0x4F776E61626C653A2063616C6C6572206973206E6F7420746865206F776E6572 PUSH1 0x44 DUP3 ADD MSTORE SWAP1 MLOAD SWAP1 DUP2 SWAP1 SUB PUSH1 0x64 ADD SWAP1 REVERT JUMPDEST PUSH1 0x1 PUSH1 0x1 PUSH1 0xA0 SHL SUB DUP2 AND PUSH3 0x8E2 JUMPI PUSH1 0x40 MLOAD PUSH3 0x461BCD PUSH1 0xE5 SHL DUP2 MSTORE PUSH1 0x4 ADD DUP1 DUP1 PUSH1 0x20 ADD DUP3 DUP2 SUB DUP3 MSTORE PUSH1 0x26 DUP2 MSTORE PUSH1 0x20 ADD DUP1 PUSH3 0x3B2F PUSH1 0x26 SWAP2 CODECOPY PUSH1 0x40 ADD SWAP2 POP POP PUSH1 0x40 MLOAD DUP1 SWAP2 SUB SWAP1 REVERT JUMPDEST PUSH1 0x0 DUP1 SLOAD PUSH1 0x40 MLOAD PUSH1 0x1 PUSH1 0x1 PUSH1 0xA0 SHL SUB DUP1 DUP6 AND SWAP4 SWAP3 AND SWAP2 PUSH1 0x0 DUP1 MLOAD PUSH1 0x20 PUSH3 0x3B55 DUP4 CODECOPY DUP2 MLOAD SWAP2 MSTORE SWAP2 LOG3 PUSH1 0x0 DUP1 SLOAD PUSH1 0x1 PUSH1 0x1 PUSH1 0xA0 SHL SUB NOT AND PUSH1 0x1 PUSH1 0x1 PUSH1 0xA0 SHL SUB SWAP3 SWAP1 SWAP3 AND SWAP2 SWAP1 SWAP2 OR SWAP1 SSTORE JUMP JUMPDEST DUP3 DUP1 SLOAD DUP3 DUP3 SSTORE SWAP1 PUSH1 0x0 MSTORE PUSH1 0x20 PUSH1 0x0 KECCAK256 SWAP1 DUP2 ADD SWAP3 DUP3 ISZERO PUSH3 0x984 JUMPI SWAP2 PUSH1 0x20 MUL DUP3 ADD JUMPDEST DUP3 DUP2 GT ISZERO PUSH3 0x984 JUMPI DUP3 MLOAD DUP3 SLOAD PUSH1 0x1 PUSH1 0x1 PUSH1 0xA0 SHL SUB NOT AND PUSH1 0x1 PUSH1 0x1 PUSH1 0xA0 SHL SUB SWAP1 SWAP2 AND OR DUP3 SSTORE PUSH1 0x20 SWAP1 SWAP3 ADD SWAP2 PUSH1 0x1 SWAP1 SWAP2 ADD SWAP1 PUSH3 0x94D JUMP JUMPDEST POP PUSH3 0x992 SWAP3 SWAP2 POP PUSH3 0x996 JUMP JUMPDEST POP SWAP1 JUMP JUMPDEST JUMPDEST DUP1 DUP3 GT ISZERO PUSH3 0x992 JUMPI DUP1 SLOAD PUSH1 0x1 PUSH1 0x1 PUSH1 0xA0 SHL SUB NOT AND DUP2 SSTORE PUSH1 0x1 ADD PUSH3 0x997 JUMP JUMPDEST PUSH2 0x3168 DUP1 PUSH3 0x9C7 PUSH1 0x0 CODECOPY PUSH1 0x0 RETURN INVALID PUSH1 0x80 PUSH1 0x40 MSTORE CALLVALUE DUP1 ISZERO PUSH2 0x10 JUMPI PUSH1 0x0 DUP1 REVERT JUMPDEST POP PUSH1 0x4 CALLDATASIZE LT PUSH2 0x38D JUMPI PUSH1 0x0 CALLDATALOAD PUSH1 0xE0 SHR DUP1 PUSH4 0x84FA32AC GT PUSH2 0x1DE JUMPI DUP1 PUSH4 0xC302A4D0 GT PUSH2 0x10F JUMPI DUP1 PUSH4 0xE7198474 GT PUSH2 0xAD JUMPI DUP1 PUSH4 0xF2FDE38B GT PUSH2 0x7C JUMPI DUP1 PUSH4 0xF2FDE38B EQ PUSH2 0x6DD JUMPI DUP1 PUSH4 0xF3FEF3A3 EQ PUSH2 0x703 JUMPI DUP1 PUSH4 0xFA974841 EQ PUSH2 0x72F JUMPI DUP1 PUSH4 0xFFBD3B1F EQ PUSH2 0x737 JUMPI PUSH2 0x38D JUMP JUMPDEST DUP1 PUSH4 0xE7198474 EQ PUSH2 0x6C5 JUMPI DUP1 PUSH4 0xE7A03679 EQ PUSH2 0x6CD JUMPI DUP1 PUSH4 0xEE50DC34 EQ PUSH2 0x43A JUMPI DUP1 PUSH4 0xF1068454 EQ PUSH2 0x6D5 JUMPI PUSH2 0x38D JUMP JUMPDEST DUP1 PUSH4 0xD389800F GT PUSH2 0xE9 JUMPI DUP1 PUSH4 0xD389800F EQ PUSH2 0x6A5 JUMPI DUP1 PUSH4 0xD5B09163 EQ PUSH2 0x6AD JUMPI DUP1 PUSH4 0xD7CB416F EQ PUSH2 0x6B5 JUMPI DUP1 PUSH4 0xE5DD455A EQ PUSH2 0x6BD JUMPI PUSH2 0x38D JUMP JUMPDEST DUP1 PUSH4 0xC302A4D0 EQ PUSH2 0x59C JUMPI DUP1 PUSH4 0xC8E3D18B EQ PUSH2 0x662 JUMPI DUP1 PUSH4 0xCFAD57A2 EQ PUSH2 0x67F JUMPI PUSH2 0x38D JUMP JUMPDEST DUP1 PUSH4 0x9FC33A9F GT PUSH2 0x17C JUMPI DUP1 PUSH4 0xB74CD242 GT PUSH2 0x156 JUMPI DUP1 PUSH4 0xB74CD242 EQ PUSH2 0x62D JUMPI DUP1 PUSH4 0xB77050E7 EQ PUSH2 0x635 JUMPI DUP1 PUSH4 0xC0973EED EQ PUSH2 0x652 JUMPI DUP1 PUSH4 0xC11C2E92 EQ PUSH2 0x65A JUMPI PUSH2 0x38D JUMP JUMPDEST DUP1 PUSH4 0x9FC33A9F EQ PUSH2 0x5F7 JUMPI DUP1 PUSH4 0xAD740F8C EQ PUSH2 0x5FF JUMPI DUP1 PUSH4 0xB3545C01 EQ PUSH2 0x625 JUMPI PUSH2 0x38D JUMP JUMPDEST DUP1 PUSH4 0x8906758D GT PUSH2 0x1B8 JUMPI DUP1 PUSH4 0x8906758D EQ PUSH2 0x5A4 JUMPI DUP1 PUSH4 0x8DA5CB5B EQ PUSH2 0x5CA JUMPI DUP1 PUSH4 0x96E9AFF8 EQ PUSH2 0x5D2 JUMPI DUP1 PUSH4 0x9A246643 EQ PUSH2 0x5EF JUMPI PUSH2 0x38D JUMP JUMPDEST DUP1 PUSH4 0x84FA32AC EQ PUSH2 0x55F JUMPI DUP1 PUSH4 0x85F02DD6 EQ PUSH2 0x594 JUMPI DUP1 PUSH4 0x866B2018 EQ PUSH2 0x59C JUMPI PUSH2 0x38D JUMP JUMPDEST DUP1 PUSH4 0x47E7EF24 GT PUSH2 0x2C3 JUMPI DUP1 PUSH4 0x67206D40 GT PUSH2 0x261 JUMPI DUP1 PUSH4 0x783478AD GT PUSH2 0x230 JUMPI DUP1 PUSH4 0x783478AD EQ PUSH2 0x53F JUMPI DUP1 PUSH4 0x7FF36FBE EQ PUSH2 0x547 JUMPI DUP1 PUSH4 0x8456CB59 EQ PUSH2 0x54F JUMPI DUP1 PUSH4 0x846D9E17 EQ PUSH2 0x557 JUMPI PUSH2 0x38D JUMP JUMPDEST DUP1 PUSH4 0x67206D40 EQ PUSH2 0x4F1 JUMPI DUP1 PUSH4 0x68F54162 EQ PUSH2 0x527 JUMPI DUP1 PUSH4 0x693A090B EQ PUSH2 0x52F JUMPI DUP1 PUSH4 0x715018A6 EQ PUSH2 0x537 JUMPI PUSH2 0x38D JUMP JUMPDEST DUP1 PUSH4 0x5DA79D63 GT PUSH2 0x29D JUMPI DUP1 PUSH4 0x5DA79D63 EQ PUSH2 0x4A6 JUMPI DUP1 PUSH4 0x62E582E7 EQ PUSH2 0x4CC JUMPI DUP1 PUSH4 0x63FE3E3A EQ PUSH2 0x4E9 JUMPI DUP1 PUSH4 0x67057B6C EQ PUSH2 0x43A JUMPI PUSH2 0x38D JUMP JUMPDEST DUP1 PUSH4 0x47E7EF24 EQ PUSH2 0x472 JUMPI DUP1 PUSH4 0x4D9F7BB2 EQ PUSH2 0x43A JUMPI DUP1 PUSH4 0x5C975ABB EQ PUSH2 0x49E JUMPI PUSH2 0x38D JUMP JUMPDEST DUP1 PUSH4 0x2717EFF3 GT PUSH2 0x330 JUMPI DUP1 PUSH4 0x3F4BA83A GT PUSH2 0x30A JUMPI DUP1 PUSH4 0x3F4BA83A EQ PUSH2 0x452 JUMPI DUP1 PUSH4 0x42DA4EB3 EQ PUSH2 0x45A JUMPI DUP1 PUSH4 0x44A3955E EQ PUSH2 0x462 JUMPI DUP1 PUSH4 0x46008A07 EQ PUSH2 0x46A JUMPI PUSH2 0x38D JUMP JUMPDEST DUP1 PUSH4 0x2717EFF3 EQ PUSH2 0x43A JUMPI DUP1 PUSH4 0x366BA246 EQ PUSH2 0x442 JUMPI DUP1 PUSH4 0x36E9332D EQ PUSH2 0x44A JUMPI PUSH2 0x38D JUMP JUMPDEST DUP1 PUSH4 0xDAEF321 GT PUSH2 0x36C JUMPI DUP1 PUSH4 0xDAEF321 EQ PUSH2 0x406 JUMPI DUP1 PUSH4 0xFA4E01E EQ PUSH2 0x422 JUMPI DUP1 PUSH4 0x1334903F EQ PUSH2 0x42A JUMPI DUP1 PUSH4 0x178A8D07 EQ PUSH2 0x432 JUMPI PUSH2 0x38D JUMP JUMPDEST DUP1 PUSH3 0x7A2AE3 EQ PUSH2 0x392 JUMPI DUP1 PUSH4 0x61C7D48 EQ PUSH2 0x3CB JUMPI DUP1 PUSH4 0xB6BB30B EQ PUSH2 0x3E5 JUMPI JUMPDEST PUSH1 0x0 DUP1 REVERT JUMPDEST PUSH2 0x3AF PUSH1 0x4 DUP1 CALLDATASIZE SUB PUSH1 0x20 DUP2 LT ISZERO PUSH2 0x3A8 JUMPI PUSH1 0x0 DUP1 REVERT JUMPDEST POP CALLDATALOAD PUSH2 0x73F JUMP JUMPDEST PUSH1 0x40 DUP1 MLOAD PUSH1 0x1 PUSH1 0x1 PUSH1 0xA0 SHL SUB SWAP1 SWAP3 AND DUP3 MSTORE MLOAD SWAP1 DUP2 SWAP1 SUB PUSH1 0x20 ADD SWAP1 RETURN JUMPDEST PUSH2 0x3D3 PUSH2 0x766 JUMP JUMPDEST PUSH1 0x40 DUP1 MLOAD SWAP2 DUP3 MSTORE MLOAD SWAP1 DUP2 SWAP1 SUB PUSH1 0x20 ADD SWAP1 RETURN JUMPDEST PUSH2 0x404 PUSH1 0x4 DUP1 CALLDATASIZE SUB PUSH1 0x20 DUP2 LT ISZERO PUSH2 0x3FB JUMPI PUSH1 0x0 DUP1 REVERT JUMPDEST POP CALLDATALOAD ISZERO ISZERO PUSH2 0x76C JUMP JUMPDEST STOP JUMPDEST PUSH2 0x40E PUSH2 0x807 JUMP JUMPDEST PUSH1 0x40 DUP1 MLOAD SWAP2 ISZERO ISZERO DUP3 MSTORE MLOAD SWAP1 DUP2 SWAP1 SUB PUSH1 0x20 ADD SWAP1 RETURN JUMPDEST PUSH2 0x3D3 PUSH2 0x817 JUMP JUMPDEST PUSH2 0x3D3 PUSH2 0x81D JUMP JUMPDEST PUSH2 0x3D3 PUSH2 0x823 JUMP JUMPDEST PUSH2 0x3D3 PUSH2 0x829 JUMP JUMPDEST PUSH2 0x3AF PUSH2 0x82F JUMP JUMPDEST PUSH2 0x404 PUSH2 0x83E JUMP JUMPDEST PUSH2 0x404 PUSH2 0x897 JUMP JUMPDEST PUSH2 0x3D3 PUSH2 0x8E9 JUMP JUMPDEST PUSH2 0x3D3 PUSH2 0x8EF JUMP JUMPDEST PUSH2 0x3AF PUSH2 0x8F5 JUMP JUMPDEST PUSH2 0x3D3 PUSH1 0x4 DUP1 CALLDATASIZE SUB PUSH1 0x40 DUP2 LT ISZERO PUSH2 0x488 JUMPI PUSH1 0x0 DUP1 REVERT JUMPDEST POP PUSH1 0x1 PUSH1 0x1 PUSH1 0xA0 SHL SUB DUP2 CALLDATALOAD AND SWAP1 PUSH1 0x20 ADD CALLDATALOAD PUSH2 0x904 JUMP JUMPDEST PUSH2 0x40E PUSH2 0xAA7 JUMP JUMPDEST PUSH2 0x404 PUSH1 0x4 DUP1 CALLDATASIZE SUB PUSH1 0x20 DUP2 LT ISZERO PUSH2 0x4BC JUMPI PUSH1 0x0 DUP1 REVERT JUMPDEST POP CALLDATALOAD PUSH1 0x1 PUSH1 0x1 PUSH1 0xA0 SHL SUB AND PUSH2 0xAB0 JUMP JUMPDEST PUSH2 0x3AF PUSH1 0x4 DUP1 CALLDATASIZE SUB PUSH1 0x20 DUP2 LT ISZERO PUSH2 0x4E2 JUMPI PUSH1 0x0 DUP1 REVERT JUMPDEST POP CALLDATALOAD PUSH2 0xB4C JUMP JUMPDEST PUSH2 0x3AF PUSH2 0xB59 JUMP JUMPDEST PUSH2 0x404 PUSH1 0x4 DUP1 CALLDATASIZE SUB PUSH1 0x60 DUP2 LT ISZERO PUSH2 0x507 JUMPI PUSH1 0x0 DUP1 REVERT JUMPDEST POP PUSH1 0x1 PUSH1 0x1 PUSH1 0xA0 SHL SUB DUP2 CALLDATALOAD DUP2 AND SWAP2 PUSH1 0x20 DUP2 ADD CALLDATALOAD SWAP2 PUSH1 0x40 SWAP1 SWAP2 ADD CALLDATALOAD AND PUSH2 0xB68 JUMP JUMPDEST PUSH2 0x3D3 PUSH2 0xC5F JUMP JUMPDEST PUSH2 0x3AF PUSH2 0xC65 JUMP JUMPDEST PUSH2 0x404 PUSH2 0xC74 JUMP JUMPDEST PUSH2 0x3AF PUSH2 0xD16 JUMP JUMPDEST PUSH2 0x3AF PUSH2 0xD25 JUMP JUMPDEST PUSH2 0x404 PUSH2 0xD34 JUMP JUMPDEST PUSH2 0x40E PUSH2 0xD84 JUMP JUMPDEST PUSH2 0x404 PUSH1 0x4 DUP1 CALLDATASIZE SUB PUSH1 0xA0 DUP2 LT ISZERO PUSH2 0x575 JUMPI PUSH1 0x0 DUP1 REVERT JUMPDEST POP DUP1 CALLDATALOAD SWAP1 PUSH1 0x20 DUP2 ADD CALLDATALOAD SWAP1 PUSH1 0x40 DUP2 ADD CALLDATALOAD SWAP1 PUSH1 0x60 DUP2 ADD CALLDATALOAD SWAP1 PUSH1 0x80 ADD CALLDATALOAD PUSH2 0xD92 JUMP JUMPDEST PUSH2 0x3D3 PUSH2 0x10A1 JUMP JUMPDEST PUSH2 0x3D3 PUSH2 0x10A7 JUMP JUMPDEST PUSH2 0x404 PUSH1 0x4 DUP1 CALLDATASIZE SUB PUSH1 0x20 DUP2 LT ISZERO PUSH2 0x5BA JUMPI PUSH1 0x0 DUP1 REVERT JUMPDEST POP CALLDATALOAD PUSH1 0x1 PUSH1 0x1 PUSH1 0xA0 SHL SUB AND PUSH2 0x10AD JUMP JUMPDEST PUSH2 0x3AF PUSH2 0x1149 JUMP JUMPDEST PUSH2 0x3AF PUSH1 0x4 DUP1 CALLDATASIZE SUB PUSH1 0x20 DUP2 LT ISZERO PUSH2 0x5E8 JUMPI PUSH1 0x0 DUP1 REVERT JUMPDEST POP CALLDATALOAD PUSH2 0x1158 JUMP JUMPDEST PUSH2 0x40E PUSH2 0x1165 JUMP JUMPDEST PUSH2 0x3AF PUSH2 0x1174 JUMP JUMPDEST PUSH2 0x404 PUSH1 0x4 DUP1 CALLDATASIZE SUB PUSH1 0x20 DUP2 LT ISZERO PUSH2 0x615 JUMPI PUSH1 0x0 DUP1 REVERT JUMPDEST POP CALLDATALOAD PUSH1 0x1 PUSH1 0x1 PUSH1 0xA0 SHL SUB AND PUSH2 0x118B JUMP JUMPDEST PUSH2 0x3D3 PUSH2 0x1227 JUMP JUMPDEST PUSH2 0x3D3 PUSH2 0x122D JUMP JUMPDEST PUSH2 0x3AF PUSH1 0x4 DUP1 CALLDATASIZE SUB PUSH1 0x20 DUP2 LT ISZERO PUSH2 0x64B JUMPI PUSH1 0x0 DUP1 REVERT JUMPDEST POP CALLDATALOAD PUSH2 0x1233 JUMP JUMPDEST PUSH2 0x3AF PUSH2 0x1240 JUMP JUMPDEST PUSH2 0x404 PUSH2 0x124F JUMP JUMPDEST PUSH2 0x3AF PUSH1 0x4 DUP1 CALLDATASIZE SUB PUSH1 0x20 DUP2 LT ISZERO PUSH2 0x678 JUMPI PUSH1 0x0 DUP1 REVERT JUMPDEST POP CALLDATALOAD PUSH2 0x15D0 JUMP JUMPDEST PUSH2 0x404 PUSH1 0x4 DUP1 CALLDATASIZE SUB PUSH1 0x20 DUP2 LT ISZERO PUSH2 0x695 JUMPI PUSH1 0x0 DUP1 REVERT JUMPDEST POP CALLDATALOAD PUSH1 0x1 PUSH1 0x1 PUSH1 0xA0 SHL SUB AND PUSH2 0x15DD JUMP JUMPDEST PUSH2 0x404 PUSH2 0x1679 JUMP JUMPDEST PUSH2 0x404 PUSH2 0x1C63 JUMP JUMPDEST PUSH2 0x3AF PUSH2 0x1CB3 JUMP JUMPDEST PUSH2 0x40E PUSH2 0x1CC2 JUMP JUMPDEST PUSH2 0x3AF PUSH2 0x1CD2 JUMP JUMPDEST PUSH2 0x3AF PUSH2 0x1CE1 JUMP JUMPDEST PUSH2 0x3D3 PUSH2 0x1CF0 JUMP JUMPDEST PUSH2 0x404 PUSH1 0x4 DUP1 CALLDATASIZE SUB PUSH1 0x20 DUP2 LT ISZERO PUSH2 0x6F3 JUMPI PUSH1 0x0 DUP1 REVERT JUMPDEST POP CALLDATALOAD PUSH1 0x1 PUSH1 0x1 PUSH1 0xA0 SHL SUB AND PUSH2 0x1CF6 JUMP JUMPDEST PUSH2 0x3D3 PUSH1 0x4 DUP1 CALLDATASIZE SUB PUSH1 0x40 DUP2 LT ISZERO PUSH2 0x719 JUMPI PUSH1 0x0 DUP1 REVERT JUMPDEST POP PUSH1 0x1 PUSH1 0x1 PUSH1 0xA0 SHL SUB DUP2 CALLDATALOAD AND SWAP1 PUSH1 0x20 ADD CALLDATALOAD PUSH2 0x1DEE JUMP JUMPDEST PUSH2 0x3AF PUSH2 0x202A JUMP JUMPDEST PUSH2 0x3D3 PUSH2 0x2039 JUMP JUMPDEST PUSH1 0x1B DUP2 DUP2 SLOAD DUP2 LT PUSH2 0x74C JUMPI INVALID JUMPDEST PUSH1 0x0 SWAP2 DUP3 MSTORE PUSH1 0x20 SWAP1 SWAP2 KECCAK256 ADD SLOAD PUSH1 0x1 PUSH1 0x1 PUSH1 0xA0 SHL SUB AND SWAP1 POP DUP2 JUMP JUMPDEST PUSH2 0x12C DUP2 JUMP JUMPDEST PUSH1 0xC SLOAD PUSH1 0x1 PUSH1 0x1 PUSH1 0xA0 SHL SUB AND CALLER EQ PUSH2 0x7B4 JUMPI PUSH1 0x40 DUP1 MLOAD PUSH3 0x461BCD PUSH1 0xE5 SHL DUP2 MSTORE PUSH1 0x20 PUSH1 0x4 DUP1 DUP4 ADD SWAP2 SWAP1 SWAP2 MSTORE PUSH1 0x24 DUP3 ADD MSTORE PUSH4 0x10B3B7BB PUSH1 0xE1 SHL PUSH1 0x44 DUP3 ADD MSTORE SWAP1 MLOAD SWAP1 DUP2 SWAP1 SUB PUSH1 0x64 ADD SWAP1 REVERT JUMPDEST PUSH1 0xC DUP1 SLOAD DUP3 ISZERO ISZERO PUSH1 0x1 PUSH1 0xA0 SHL DUP2 MUL PUSH1 0xFF PUSH1 0xA0 SHL NOT SWAP1 SWAP3 AND SWAP2 SWAP1 SWAP2 OR SWAP1 SWAP2 SSTORE PUSH1 0x40 DUP1 MLOAD SWAP2 DUP3 MSTORE MLOAD PUSH32 0x125177AC7B8930DAC1E59C2B30B1B6B9191B30AF40CF6BBB5D20FEC4D44BE60F SWAP2 DUP2 SWAP1 SUB PUSH1 0x20 ADD SWAP1 LOG1 POP JUMP JUMPDEST PUSH1 0xC SLOAD PUSH1 0x1 PUSH1 0xA0 SHL SWAP1 DIV PUSH1 0xFF AND DUP2 JUMP JUMPDEST PUSH1 0xD SLOAD DUP2 JUMP JUMPDEST PUSH1 0x14 SLOAD DUP2 JUMP JUMPDEST PUSH1 0x11 SLOAD DUP2 JUMP JUMPDEST PUSH2 0x2710 DUP2 JUMP JUMPDEST PUSH1 0xB SLOAD PUSH1 0x1 PUSH1 0x1 PUSH1 0xA0 SHL SUB AND DUP2 JUMP JUMPDEST PUSH1 0x2 PUSH1 0x1 SLOAD EQ ISZERO PUSH2 0x884 JUMPI PUSH1 0x40 DUP1 MLOAD PUSH3 0x461BCD PUSH1 0xE5 SHL DUP2 MSTORE PUSH1 0x20 PUSH1 0x4 DUP3 ADD MSTORE PUSH1 0x1F PUSH1 0x24 DUP3 ADD MSTORE PUSH1 0x0 DUP1 MLOAD PUSH1 0x20 PUSH2 0x3026 DUP4 CODECOPY DUP2 MLOAD SWAP2 MSTORE PUSH1 0x44 DUP3 ADD MSTORE SWAP1 MLOAD SWAP1 DUP2 SWAP1 SUB PUSH1 0x64 ADD SWAP1 REVERT JUMPDEST PUSH1 0x2 PUSH1 0x1 SSTORE PUSH2 0x891 PUSH2 0x203F JUMP JUMPDEST PUSH1 0x1 DUP1 SSTORE JUMP JUMPDEST PUSH1 0xC SLOAD PUSH1 0x1 PUSH1 0x1 PUSH1 0xA0 SHL SUB AND CALLER EQ PUSH2 0x8DF JUMPI PUSH1 0x40 DUP1 MLOAD PUSH3 0x461BCD PUSH1 0xE5 SHL DUP2 MSTORE PUSH1 0x20 PUSH1 0x4 DUP1 DUP4 ADD SWAP2 SWAP1 SWAP2 MSTORE PUSH1 0x24 DUP3 ADD MSTORE PUSH4 0x10B3B7BB PUSH1 0xE1 SHL PUSH1 0x44 DUP3 ADD MSTORE SWAP1 MLOAD SWAP1 DUP2 SWAP1 SUB PUSH1 0x64 ADD SWAP1 REVERT JUMPDEST PUSH2 0x8E7 PUSH2 0x2248 JUMP JUMPDEST JUMP JUMPDEST PUSH1 0xE SLOAD DUP2 JUMP JUMPDEST PUSH1 0xF SLOAD DUP2 JUMP JUMPDEST PUSH1 0xC SLOAD PUSH1 0x1 PUSH1 0x1 PUSH1 0xA0 SHL SUB AND DUP2 JUMP JUMPDEST PUSH1 0x0 PUSH2 0x90E PUSH2 0x22E6 JUMP JUMPDEST PUSH1 0x0 SLOAD PUSH1 0x1 PUSH1 0x1 PUSH1 0xA0 SHL SUB SWAP1 DUP2 AND SWAP2 AND EQ PUSH2 0x95E JUMPI PUSH1 0x40 DUP1 MLOAD PUSH3 0x461BCD PUSH1 0xE5 SHL DUP2 MSTORE PUSH1 0x20 PUSH1 0x4 DUP3 ADD DUP2 SWAP1 MSTORE PUSH1 0x24 DUP3 ADD MSTORE PUSH1 0x0 DUP1 MLOAD PUSH1 0x20 PUSH2 0x30B3 DUP4 CODECOPY DUP2 MLOAD SWAP2 MSTORE PUSH1 0x44 DUP3 ADD MSTORE SWAP1 MLOAD SWAP1 DUP2 SWAP1 SUB PUSH1 0x64 ADD SWAP1 REVERT JUMPDEST PUSH1 0x2 PUSH1 0x1 SLOAD EQ ISZERO PUSH2 0x9A4 JUMPI PUSH1 0x40 DUP1 MLOAD PUSH3 0x461BCD PUSH1 0xE5 SHL DUP2 MSTORE PUSH1 0x20 PUSH1 0x4 DUP3 ADD MSTORE PUSH1 0x1F PUSH1 0x24 DUP3 ADD MSTORE PUSH1 0x0 DUP1 MLOAD PUSH1 0x20 PUSH2 0x3026 DUP4 CODECOPY DUP2 MLOAD SWAP2 MSTORE PUSH1 0x44 DUP3 ADD MSTORE SWAP1 MLOAD SWAP1 DUP2 SWAP1 SUB PUSH1 0x64 ADD SWAP1 REVERT JUMPDEST PUSH1 0x2 PUSH1 0x1 DUP2 SWAP1 SSTORE SLOAD PUSH1 0xFF AND ISZERO PUSH2 0x9F4 JUMPI PUSH1 0x40 DUP1 MLOAD PUSH3 0x461BCD PUSH1 0xE5 SHL DUP2 MSTORE PUSH1 0x20 PUSH1 0x4 DUP3 ADD MSTORE PUSH1 0x10 PUSH1 0x24 DUP3 ADD MSTORE PUSH16 0x14185D5CD8589B194E881C185D5CD959 PUSH1 0x82 SHL PUSH1 0x44 DUP3 ADD MSTORE SWAP1 MLOAD SWAP1 DUP2 SWAP1 SUB PUSH1 0x64 ADD SWAP1 REVERT JUMPDEST PUSH1 0x4 SLOAD PUSH2 0xA0C SWAP1 PUSH1 0x1 PUSH1 0x1 PUSH1 0xA0 SHL SUB AND CALLER ADDRESS DUP6 PUSH2 0x22EA JUMP JUMPDEST PUSH1 0xE SLOAD DUP3 SWAP1 ISZERO DUP1 ISZERO SWAP1 PUSH2 0xA21 JUMPI POP PUSH1 0x0 PUSH1 0xF SLOAD GT JUMPDEST ISZERO PUSH2 0xA5C JUMPI PUSH2 0xA59 PUSH2 0x2710 PUSH2 0xA53 PUSH1 0xE SLOAD PUSH2 0xA53 PUSH1 0x14 SLOAD PUSH2 0xA4D PUSH1 0xF SLOAD DUP11 PUSH2 0x234A SWAP1 SWAP2 SWAP1 PUSH4 0xFFFFFFFF AND JUMP JUMPDEST SWAP1 PUSH2 0x234A JUMP JUMPDEST SWAP1 PUSH2 0x23AC JUMP JUMPDEST SWAP1 POP JUMPDEST PUSH1 0xF SLOAD PUSH2 0xA69 SWAP1 DUP3 PUSH2 0x23EE JUMP JUMPDEST PUSH1 0xF SSTORE PUSH1 0x2 SLOAD PUSH4 0x1000000 SWAP1 DIV PUSH1 0xFF AND ISZERO PUSH2 0xA8B JUMPI PUSH2 0xA86 PUSH2 0x203F JUMP JUMPDEST PUSH2 0xA9C JUMP JUMPDEST PUSH1 0xE SLOAD PUSH2 0xA98 SWAP1 DUP5 PUSH2 0x23EE JUMP JUMPDEST PUSH1 0xE SSTORE JUMPDEST PUSH1 0x1 DUP1 SSTORE SWAP4 SWAP3 POP POP POP JUMP JUMPDEST PUSH1 0x2 SLOAD PUSH1 0xFF AND SWAP1 JUMP JUMPDEST PUSH1 0xC SLOAD PUSH1 0x1 PUSH1 0x1 PUSH1 0xA0 SHL SUB AND CALLER EQ PUSH2 0xAF8 JUMPI PUSH1 0x40 DUP1 MLOAD PUSH3 0x461BCD PUSH1 0xE5 SHL DUP2 MSTORE PUSH1 0x20 PUSH1 0x4 DUP1 DUP4 ADD SWAP2 SWAP1 SWAP2 MSTORE PUSH1 0x24 DUP3 ADD MSTORE PUSH4 0x10B3B7BB PUSH1 0xE1 SHL PUSH1 0x44 DUP3 ADD MSTORE SWAP1 MLOAD SWAP1 DUP2 SWAP1 SUB PUSH1 0x64 ADD SWAP1 REVERT JUMPDEST PUSH1 0x8 DUP1 SLOAD PUSH1 0x1 PUSH1 0x1 PUSH1 0xA0 SHL SUB DUP4 AND PUSH1 0x1 PUSH1 0x1 PUSH1 0xA0 SHL SUB NOT SWAP1 SWAP2 AND DUP2 OR SWAP1 SWAP2 SSTORE PUSH1 0x40 DUP1 MLOAD SWAP2 DUP3 MSTORE MLOAD PUSH32 0x384F1DCB79DA4071839C471D7C81884A43FB946A527F3661FDEE5904ADC8F657 SWAP2 DUP2 SWAP1 SUB PUSH1 0x20 ADD SWAP1 LOG1 POP JUMP JUMPDEST PUSH1 0x17 DUP2 DUP2 SLOAD DUP2 LT PUSH2 0x74C JUMPI INVALID JUMPDEST PUSH1 0x9 SLOAD PUSH1 0x1 PUSH1 0x1 PUSH1 0xA0 SHL SUB AND DUP2 JUMP JUMPDEST PUSH1 0xC SLOAD PUSH1 0x1 PUSH1 0x1 PUSH1 0xA0 SHL SUB AND CALLER EQ PUSH2 0xBB0 JUMPI PUSH1 0x40 DUP1 MLOAD PUSH3 0x461BCD PUSH1 0xE5 SHL DUP2 MSTORE PUSH1 0x20 PUSH1 0x4 DUP1 DUP4 ADD SWAP2 SWAP1 SWAP2 MSTORE PUSH1 0x24 DUP3 ADD MSTORE PUSH4 0x10B3B7BB PUSH1 0xE1 SHL PUSH1 0x44 DUP3 ADD MSTORE SWAP1 MLOAD SWAP1 DUP2 SWAP1 SUB PUSH1 0x64 ADD SWAP1 REVERT JUMPDEST PUSH1 0x7 SLOAD PUSH1 0x1 PUSH1 0x1 PUSH1 0xA0 SHL SUB DUP5 DUP2 AND SWAP2 AND EQ ISZERO PUSH2 0xBFB JUMPI PUSH1 0x40 DUP1 MLOAD PUSH3 0x461BCD PUSH1 0xE5 SHL DUP2 MSTORE PUSH1 0x20 PUSH1 0x4 DUP3 ADD MSTORE PUSH1 0x5 PUSH1 0x24 DUP3 ADD MSTORE PUSH5 0x2173616665 PUSH1 0xD8 SHL PUSH1 0x44 DUP3 ADD MSTORE SWAP1 MLOAD SWAP1 DUP2 SWAP1 SUB PUSH1 0x64 ADD SWAP1 REVERT JUMPDEST PUSH1 0x4 SLOAD PUSH1 0x1 PUSH1 0x1 PUSH1 0xA0 SHL SUB DUP5 DUP2 AND SWAP2 AND EQ ISZERO PUSH2 0xC46 JUMPI PUSH1 0x40 DUP1 MLOAD PUSH3 0x461BCD PUSH1 0xE5 SHL DUP2 MSTORE PUSH1 0x20 PUSH1 0x4 DUP3 ADD MSTORE PUSH1 0x5 PUSH1 0x24 DUP3 ADD MSTORE PUSH5 0x2173616665 PUSH1 0xD8 SHL PUSH1 0x44 DUP3 ADD MSTORE SWAP1 MLOAD SWAP1 DUP2 SWAP1 SUB PUSH1 0x64 ADD SWAP1 REVERT JUMPDEST PUSH2 0xC5A PUSH1 0x1 PUSH1 0x1 PUSH1 0xA0 SHL SUB DUP5 AND DUP3 DUP5 PUSH2 0x2448 JUMP JUMPDEST POP POP POP JUMP JUMPDEST PUSH1 0x15 SLOAD DUP2 JUMP JUMPDEST PUSH1 0x8 SLOAD PUSH1 0x1 PUSH1 0x1 PUSH1 0xA0 SHL SUB AND DUP2 JUMP JUMPDEST PUSH2 0xC7C PUSH2 0x22E6 JUMP JUMPDEST PUSH1 0x0 SLOAD PUSH1 0x1 PUSH1 0x1 PUSH1 0xA0 SHL SUB SWAP1 DUP2 AND SWAP2 AND EQ PUSH2 0xCCC JUMPI PUSH1 0x40 DUP1 MLOAD PUSH3 0x461BCD PUSH1 0xE5 SHL DUP2 MSTORE PUSH1 0x20 PUSH1 0x4 DUP3 ADD DUP2 SWAP1 MSTORE PUSH1 0x24 DUP3 ADD MSTORE PUSH1 0x0 DUP1 MLOAD PUSH1 0x20 PUSH2 0x30B3 DUP4 CODECOPY DUP2 MLOAD SWAP2 MSTORE PUSH1 0x44 DUP3 ADD MSTORE SWAP1 MLOAD SWAP1 DUP2 SWAP1 SUB PUSH1 0x64 ADD SWAP1 REVERT JUMPDEST PUSH1 0x0 DUP1 SLOAD PUSH1 0x40 MLOAD PUSH1 0x1 PUSH1 0x1 PUSH1 0xA0 SHL SUB SWAP1 SWAP2 AND SWAP1 PUSH32 0x8BE0079C531659141344CD1FD0A4F28419497F9722A3DAAFE3B4186F6B6457E0 SWAP1 DUP4 SWAP1 LOG3 PUSH1 0x0 DUP1 SLOAD PUSH1 0x1 PUSH1 0x1 PUSH1 0xA0 SHL SUB NOT AND SWAP1 SSTORE JUMP JUMPDEST PUSH1 0x12 SLOAD PUSH1 0x1 PUSH1 0x1 PUSH1 0xA0 SHL SUB AND DUP2 JUMP JUMPDEST PUSH1 0x5 SLOAD PUSH1 0x1 PUSH1 0x1 PUSH1 0xA0 SHL SUB AND DUP2 JUMP JUMPDEST PUSH1 0xC SLOAD PUSH1 0x1 PUSH1 0x1 PUSH1 0xA0 SHL SUB AND CALLER EQ PUSH2 0xD7C JUMPI PUSH1 0x40 DUP1 MLOAD PUSH3 0x461BCD PUSH1 0xE5 SHL DUP2 MSTORE PUSH1 0x20 PUSH1 0x4 DUP1 DUP4 ADD SWAP2 SWAP1 SWAP2 MSTORE PUSH1 0x24 DUP3 ADD MSTORE PUSH4 0x10B3B7BB PUSH1 0xE1 SHL PUSH1 0x44 DUP3 ADD MSTORE SWAP1 MLOAD SWAP1 DUP2 SWAP1 SUB PUSH1 0x64 ADD SWAP1 REVERT JUMPDEST PUSH2 0x8E7 PUSH2 0x249A JUMP JUMPDEST PUSH1 0x2 SLOAD PUSH2 0x100 SWAP1 DIV PUSH1 0xFF AND DUP2 JUMP JUMPDEST PUSH1 0xC SLOAD PUSH1 0x1 PUSH1 0x1 PUSH1 0xA0 SHL SUB AND CALLER EQ PUSH2 0xDDA JUMPI PUSH1 0x40 DUP1 MLOAD PUSH3 0x461BCD PUSH1 0xE5 SHL DUP2 MSTORE PUSH1 0x20 PUSH1 0x4 DUP1 DUP4 ADD SWAP2 SWAP1 SWAP2 MSTORE PUSH1 0x24 DUP3 ADD MSTORE PUSH4 0x10B3B7BB PUSH1 0xE1 SHL PUSH1 0x44 DUP3 ADD MSTORE SWAP1 MLOAD SWAP1 DUP2 SWAP1 SUB PUSH1 0x64 ADD SWAP1 REVERT JUMPDEST PUSH2 0x26DE DUP6 LT ISZERO PUSH2 0xE31 JUMPI PUSH1 0x40 DUP1 MLOAD PUSH3 0x461BCD PUSH1 0xE5 SHL DUP2 MSTORE PUSH1 0x20 PUSH1 0x4 DUP3 ADD MSTORE PUSH1 0x1A PUSH1 0x24 DUP3 ADD MSTORE PUSH32 0x5F656E7472616E6365466565466163746F7220746F6F206C6F77000000000000 PUSH1 0x44 DUP3 ADD MSTORE SWAP1 MLOAD SWAP1 DUP2 SWAP1 SUB PUSH1 0x64 ADD SWAP1 REVERT JUMPDEST PUSH2 0x2710 DUP6 GT ISZERO PUSH2 0xE88 JUMPI PUSH1 0x40 DUP1 MLOAD PUSH3 0x461BCD PUSH1 0xE5 SHL DUP2 MSTORE PUSH1 0x20 PUSH1 0x4 DUP3 ADD MSTORE PUSH1 0x1B PUSH1 0x24 DUP3 ADD MSTORE PUSH32 0x5F656E7472616E6365466565466163746F7220746F6F20686967680000000000 PUSH1 0x44 DUP3 ADD MSTORE SWAP1 MLOAD SWAP1 DUP2 SWAP1 SUB PUSH1 0x64 ADD SWAP1 REVERT JUMPDEST PUSH1 0x14 DUP6 SWAP1 SSTORE PUSH2 0x26DE DUP5 LT ISZERO PUSH2 0xEE4 JUMPI PUSH1 0x40 DUP1 MLOAD PUSH3 0x461BCD PUSH1 0xE5 SHL DUP2 MSTORE PUSH1 0x20 PUSH1 0x4 DUP3 ADD MSTORE PUSH1 0x1A PUSH1 0x24 DUP3 ADD MSTORE PUSH32 0x5F7769746864726177466565466163746F7220746F6F206C6F77000000000000 PUSH1 0x44 DUP3 ADD MSTORE SWAP1 MLOAD SWAP1 DUP2 SWAP1 SUB PUSH1 0x64 ADD SWAP1 REVERT JUMPDEST PUSH2 0x2710 DUP5 GT ISZERO PUSH2 0xF3B JUMPI PUSH1 0x40 DUP1 MLOAD PUSH3 0x461BCD PUSH1 0xE5 SHL DUP2 MSTORE PUSH1 0x20 PUSH1 0x4 DUP3 ADD MSTORE PUSH1 0x1B PUSH1 0x24 DUP3 ADD MSTORE PUSH32 0x5F7769746864726177466565466163746F7220746F6F20686967680000000000 PUSH1 0x44 DUP3 ADD MSTORE SWAP1 MLOAD SWAP1 DUP2 SWAP1 SUB PUSH1 0x64 ADD SWAP1 REVERT JUMPDEST PUSH1 0x15 DUP5 SWAP1 SSTORE PUSH2 0x12C DUP4 GT ISZERO PUSH2 0xF97 JUMPI PUSH1 0x40 DUP1 MLOAD PUSH3 0x461BCD PUSH1 0xE5 SHL DUP2 MSTORE PUSH1 0x20 PUSH1 0x4 DUP3 ADD MSTORE PUSH1 0x17 PUSH1 0x24 DUP3 ADD MSTORE PUSH32 0x5F636F6E74726F6C6C657246656520746F6F2068696768000000000000000000 PUSH1 0x44 DUP3 ADD MSTORE SWAP1 MLOAD SWAP1 DUP2 SWAP1 SUB PUSH1 0x64 ADD SWAP1 REVERT JUMPDEST PUSH1 0x10 DUP4 SWAP1 SSTORE PUSH2 0x320 DUP3 GT ISZERO PUSH2 0xFEB JUMPI PUSH1 0x40 DUP1 MLOAD PUSH3 0x461BCD PUSH1 0xE5 SHL DUP2 MSTORE PUSH1 0x20 PUSH1 0x4 DUP3 ADD MSTORE PUSH1 0x15 PUSH1 0x24 DUP3 ADD MSTORE PUSH21 0xBEC4EAF284C2C6D6A4C2E8CA40E8DEDE40D0D2CED PUSH1 0x5B SHL PUSH1 0x44 DUP3 ADD MSTORE SWAP1 MLOAD SWAP1 DUP2 SWAP1 SUB PUSH1 0x64 ADD SWAP1 REVERT JUMPDEST PUSH1 0x11 DUP3 SWAP1 SSTORE PUSH2 0x3E3 DUP2 GT ISZERO PUSH2 0x1047 JUMPI PUSH1 0x40 DUP1 MLOAD PUSH3 0x461BCD PUSH1 0xE5 SHL DUP2 MSTORE PUSH1 0x20 PUSH1 0x4 DUP3 ADD MSTORE PUSH1 0x18 PUSH1 0x24 DUP3 ADD MSTORE PUSH32 0x5F736C697070616765466163746F7220746F6F20686967680000000000000000 PUSH1 0x44 DUP3 ADD MSTORE SWAP1 MLOAD SWAP1 DUP2 SWAP1 SUB PUSH1 0x64 ADD SWAP1 REVERT JUMPDEST PUSH1 0x16 DUP2 SWAP1 SSTORE PUSH1 0x40 DUP1 MLOAD DUP7 DUP2 MSTORE PUSH1 0x20 DUP2 ADD DUP7 SWAP1 MSTORE DUP1 DUP3 ADD DUP6 SWAP1 MSTORE PUSH1 0x60 DUP2 ADD DUP5 SWAP1 MSTORE PUSH1 0x80 DUP2 ADD DUP4 SWAP1 MSTORE SWAP1 MLOAD PUSH32 0xC67E0B149A57A70FA44A531A46C2C6D8E0B242FA12F459F250012C3A5987D29A SWAP2 DUP2 SWAP1 SUB PUSH1 0xA0 ADD SWAP1 LOG1 POP POP POP POP POP JUMP JUMPDEST PUSH1 0x10 SLOAD DUP2 JUMP JUMPDEST PUSH2 0x26DE DUP2 JUMP JUMPDEST PUSH1 0xC SLOAD PUSH1 0x1 PUSH1 0x1 PUSH1 0xA0 SHL SUB AND CALLER EQ PUSH2 0x10F5 JUMPI PUSH1 0x40 DUP1 MLOAD PUSH3 0x461BCD PUSH1 0xE5 SHL DUP2 MSTORE PUSH1 0x20 PUSH1 0x4 DUP1 DUP4 ADD SWAP2 SWAP1 SWAP2 MSTORE PUSH1 0x24 DUP3 ADD MSTORE PUSH4 0x10B3B7BB PUSH1 0xE1 SHL PUSH1 0x44 DUP3 ADD MSTORE SWAP1 MLOAD SWAP1 DUP2 SWAP1 SUB PUSH1 0x64 ADD SWAP1 REVERT JUMPDEST PUSH1 0x13 DUP1 SLOAD PUSH1 0x1 PUSH1 0x1 PUSH1 0xA0 SHL SUB DUP4 AND PUSH1 0x1 PUSH1 0x1 PUSH1 0xA0 SHL SUB NOT SWAP1 SWAP2 AND DUP2 OR SWAP1 SWAP2 SSTORE PUSH1 0x40 DUP1 MLOAD SWAP2 DUP3 MSTORE MLOAD PUSH32 0xA69F1931BE99336E049905BAA11D21ED44204D7686E46B4344404D80D47C2988 SWAP2 DUP2 SWAP1 SUB PUSH1 0x20 ADD SWAP1 LOG1 POP JUMP JUMPDEST PUSH1 0x0 SLOAD PUSH1 0x1 PUSH1 0x1 PUSH1 0xA0 SHL SUB AND SWAP1 JUMP JUMPDEST PUSH1 0x19 DUP2 DUP2 SLOAD DUP2 LT PUSH2 0x74C JUMPI INVALID JUMPDEST PUSH1 0x2 SLOAD PUSH3 0x10000 SWAP1 DIV PUSH1 0xFF AND DUP2 JUMP JUMPDEST PUSH1 0x2 SLOAD PUSH5 0x100000000 SWAP1 DIV PUSH1 0x1 PUSH1 0x1 PUSH1 0xA0 SHL SUB AND DUP2 JUMP JUMPDEST PUSH1 0xC SLOAD PUSH1 0x1 PUSH1 0x1 PUSH1 0xA0 SHL SUB AND CALLER EQ PUSH2 0x11D3 JUMPI PUSH1 0x40 DUP1 MLOAD PUSH3 0x461BCD PUSH1 0xE5 SHL DUP2 MSTORE PUSH1 0x20 PUSH1 0x4 DUP1 DUP4 ADD SWAP2 SWAP1 SWAP2 MSTORE PUSH1 0x24 DUP3 ADD MSTORE PUSH4 0x10B3B7BB PUSH1 0xE1 SHL PUSH1 0x44 DUP3 ADD MSTORE SWAP1 MLOAD SWAP1 DUP2 SWAP1 SUB PUSH1 0x64 ADD SWAP1 REVERT JUMPDEST PUSH1 0x12 DUP1 SLOAD PUSH1 0x1 PUSH1 0x1 PUSH1 0xA0 SHL SUB DUP4 AND PUSH1 0x1 PUSH1 0x1 PUSH1 0xA0 SHL SUB NOT SWAP1 SWAP2 AND DUP2 OR SWAP1 SWAP2 SSTORE PUSH1 0x40 DUP1 MLOAD SWAP2 DUP3 MSTORE MLOAD PUSH32 0x200C92AAEA275302BF641E37F7A5DDA63F445F08F4FC74A5CDE7FD643F609E09 SWAP2 DUP2 SWAP1 SUB PUSH1 0x20 ADD SWAP1 LOG1 POP JUMP JUMPDEST PUSH2 0x320 DUP2 JUMP JUMPDEST PUSH2 0x3E3 DUP2 JUMP JUMPDEST PUSH1 0x1A DUP2 DUP2 SLOAD DUP2 LT PUSH2 0x74C JUMPI INVALID JUMPDEST PUSH1 0x13 SLOAD PUSH1 0x1 PUSH1 0x1 PUSH1 0xA0 SHL SUB AND DUP2 JUMP JUMPDEST PUSH1 0x2 SLOAD PUSH1 0xFF AND ISZERO PUSH2 0x129A JUMPI PUSH1 0x40 DUP1 MLOAD PUSH3 0x461BCD PUSH1 0xE5 SHL DUP2 MSTORE PUSH1 0x20 PUSH1 0x4 DUP3 ADD MSTORE PUSH1 0x10 PUSH1 0x24 DUP3 ADD MSTORE PUSH16 0x14185D5CD8589B194E881C185D5CD959 PUSH1 0x82 SHL PUSH1 0x44 DUP3 ADD MSTORE SWAP1 MLOAD SWAP1 DUP2 SWAP1 SUB PUSH1 0x64 ADD SWAP1 REVERT JUMPDEST PUSH1 0x2 SLOAD PUSH4 0x1000000 SWAP1 DIV PUSH1 0xFF AND PUSH2 0x12E6 JUMPI PUSH1 0x40 DUP1 MLOAD PUSH3 0x461BCD PUSH1 0xE5 SHL DUP2 MSTORE PUSH1 0x20 PUSH1 0x4 DUP3 ADD MSTORE PUSH1 0xB PUSH1 0x24 DUP3 ADD MSTORE PUSH11 0x2169734175746F436F6D7 PUSH1 0xAC SHL PUSH1 0x44 DUP3 ADD MSTORE SWAP1 MLOAD SWAP1 DUP2 SWAP1 SUB PUSH1 0x64 ADD SWAP1 REVERT JUMPDEST PUSH1 0x2 SLOAD PUSH2 0x100 SWAP1 DIV PUSH1 0xFF AND ISZERO PUSH2 0x1333 JUMPI PUSH1 0x40 DUP1 MLOAD PUSH3 0x461BCD PUSH1 0xE5 SHL DUP2 MSTORE PUSH1 0x20 PUSH1 0x4 DUP3 ADD MSTORE PUSH1 0xD PUSH1 0x24 DUP3 ADD MSTORE PUSH13 0x697343414B455374616B696E67 PUSH1 0x98 SHL PUSH1 0x44 DUP3 ADD MSTORE SWAP1 MLOAD SWAP1 DUP2 SWAP1 SUB PUSH1 0x64 ADD SWAP1 REVERT JUMPDEST PUSH1 0x5 SLOAD PUSH1 0x40 DUP1 MLOAD PUSH4 0x70A08231 PUSH1 0xE0 SHL DUP2 MSTORE ADDRESS PUSH1 0x4 DUP3 ADD MSTORE SWAP1 MLOAD PUSH1 0x0 SWAP3 PUSH1 0x1 PUSH1 0x1 PUSH1 0xA0 SHL SUB AND SWAP2 PUSH4 0x70A08231 SWAP2 PUSH1 0x24 DUP1 DUP4 ADD SWAP3 PUSH1 0x20 SWAP3 SWAP2 SWAP1 DUP3 SWAP1 SUB ADD DUP2 DUP7 DUP1 EXTCODESIZE ISZERO DUP1 ISZERO PUSH2 0x137E JUMPI PUSH1 0x0 DUP1 REVERT JUMPDEST POP GAS STATICCALL ISZERO DUP1 ISZERO PUSH2 0x1392 JUMPI RETURNDATASIZE PUSH1 0x0 DUP1 RETURNDATACOPY RETURNDATASIZE PUSH1 0x0 REVERT JUMPDEST POP POP POP POP PUSH1 0x40 MLOAD RETURNDATASIZE PUSH1 0x20 DUP2 LT ISZERO PUSH2 0x13A8 JUMPI PUSH1 0x0 DUP1 REVERT JUMPDEST POP MLOAD PUSH1 0x7 SLOAD PUSH1 0x5 SLOAD SWAP2 SWAP3 POP PUSH1 0x1 PUSH1 0x1 PUSH1 0xA0 SHL SUB SWAP2 DUP3 AND SWAP2 AND EQ DUP1 ISZERO SWAP1 PUSH2 0x13CE JUMPI POP PUSH1 0x0 DUP2 GT JUMPDEST ISZERO PUSH2 0x1483 JUMPI PUSH1 0x8 SLOAD PUSH1 0x5 SLOAD PUSH2 0x13F0 SWAP2 PUSH1 0x1 PUSH1 0x1 PUSH1 0xA0 SHL SUB SWAP2 DUP3 AND SWAP2 AND DUP4 PUSH2 0x251B JUMP JUMPDEST PUSH2 0x1483 PUSH1 0x8 PUSH1 0x0 SWAP1 SLOAD SWAP1 PUSH2 0x100 EXP SWAP1 DIV PUSH1 0x1 PUSH1 0x1 PUSH1 0xA0 SHL SUB AND DUP3 PUSH1 0x16 SLOAD PUSH1 0x1A DUP1 SLOAD DUP1 PUSH1 0x20 MUL PUSH1 0x20 ADD PUSH1 0x40 MLOAD SWAP1 DUP2 ADD PUSH1 0x40 MSTORE DUP1 SWAP3 SWAP2 SWAP1 DUP2 DUP2 MSTORE PUSH1 0x20 ADD DUP3 DUP1 SLOAD DUP1 ISZERO PUSH2 0x1463 JUMPI PUSH1 0x20 MUL DUP3 ADD SWAP2 SWAP1 PUSH1 0x0 MSTORE PUSH1 0x20 PUSH1 0x0 KECCAK256 SWAP1 JUMPDEST DUP2 SLOAD PUSH1 0x1 PUSH1 0x1 PUSH1 0xA0 SHL SUB AND DUP2 MSTORE PUSH1 0x1 SWAP1 SWAP2 ADD SWAP1 PUSH1 0x20 ADD DUP1 DUP4 GT PUSH2 0x1445 JUMPI JUMPDEST POP POP POP POP POP ADDRESS PUSH2 0x147E PUSH2 0x258 TIMESTAMP PUSH2 0x23EE SWAP1 SWAP2 SWAP1 PUSH4 0xFFFFFFFF AND JUMP JUMPDEST PUSH2 0x2606 JUMP JUMPDEST PUSH1 0x6 SLOAD PUSH1 0x40 DUP1 MLOAD PUSH4 0x70A08231 PUSH1 0xE0 SHL DUP2 MSTORE ADDRESS PUSH1 0x4 DUP3 ADD MSTORE SWAP1 MLOAD PUSH1 0x0 SWAP3 PUSH1 0x1 PUSH1 0x1 PUSH1 0xA0 SHL SUB AND SWAP2 PUSH4 0x70A08231 SWAP2 PUSH1 0x24 DUP1 DUP4 ADD SWAP3 PUSH1 0x20 SWAP3 SWAP2 SWAP1 DUP3 SWAP1 SUB ADD DUP2 DUP7 DUP1 EXTCODESIZE ISZERO DUP1 ISZERO PUSH2 0x14CE JUMPI PUSH1 0x0 DUP1 REVERT JUMPDEST POP GAS STATICCALL ISZERO DUP1 ISZERO PUSH2 0x14E2 JUMPI RETURNDATASIZE PUSH1 0x0 DUP1 RETURNDATACOPY RETURNDATASIZE PUSH1 0x0 REVERT JUMPDEST POP POP POP POP PUSH1 0x40 MLOAD RETURNDATASIZE PUSH1 0x20 DUP2 LT ISZERO PUSH2 0x14F8 JUMPI PUSH1 0x0 DUP1 REVERT JUMPDEST POP MLOAD PUSH1 0x7 SLOAD PUSH1 0x6 SLOAD SWAP2 SWAP3 POP PUSH1 0x1 PUSH1 0x1 PUSH1 0xA0 SHL SUB SWAP2 DUP3 AND SWAP2 AND EQ DUP1 ISZERO SWAP1 PUSH2 0x151E JUMPI POP PUSH1 0x0 DUP2 GT JUMPDEST ISZERO PUSH2 0x15CC JUMPI PUSH1 0x8 SLOAD PUSH1 0x6 SLOAD PUSH2 0x1540 SWAP2 PUSH1 0x1 PUSH1 0x1 PUSH1 0xA0 SHL SUB SWAP2 DUP3 AND SWAP2 AND DUP4 PUSH2 0x251B JUMP JUMPDEST PUSH2 0x15CC PUSH1 0x8 PUSH1 0x0 SWAP1 SLOAD SWAP1 PUSH2 0x100 EXP SWAP1 DIV PUSH1 0x1 PUSH1 0x1 PUSH1 0xA0 SHL SUB AND DUP3 PUSH1 0x16 SLOAD PUSH1 0x1B DUP1 SLOAD DUP1 PUSH1 0x20 MUL PUSH1 0x20 ADD PUSH1 0x40 MLOAD SWAP1 DUP2 ADD PUSH1 0x40 MSTORE DUP1 SWAP3 SWAP2 SWAP1 DUP2 DUP2 MSTORE PUSH1 0x20 ADD DUP3 DUP1 SLOAD DUP1 ISZERO PUSH2 0x1463 JUMPI PUSH1 0x20 MUL DUP3 ADD SWAP2 SWAP1 PUSH1 0x0 MSTORE PUSH1 0x20 PUSH1 0x0 KECCAK256 SWAP1 DUP2 SLOAD PUSH1 0x1 PUSH1 0x1 PUSH1 0xA0 SHL SUB AND DUP2 MSTORE PUSH1 0x1 SWAP1 SWAP2 ADD SWAP1 PUSH1 0x20 ADD DUP1 DUP4 GT PUSH2 0x1445 JUMPI POP POP POP POP POP ADDRESS PUSH2 0x147E PUSH2 0x258 TIMESTAMP PUSH2 0x23EE SWAP1 SWAP2 SWAP1 PUSH4 0xFFFFFFFF AND JUMP JUMPDEST POP POP JUMP JUMPDEST PUSH1 0x18 DUP2 DUP2 SLOAD DUP2 LT PUSH2 0x74C JUMPI INVALID JUMPDEST PUSH1 0xC SLOAD PUSH1 0x1 PUSH1 0x1 PUSH1 0xA0 SHL SUB AND CALLER EQ PUSH2 0x1625 JUMPI PUSH1 0x40 DUP1 MLOAD PUSH3 0x461BCD PUSH1 0xE5 SHL DUP2 MSTORE PUSH1 0x20 PUSH1 0x4 DUP1 DUP4 ADD SWAP2 SWAP1 SWAP2 MSTORE PUSH1 0x24 DUP3 ADD MSTORE PUSH4 0x10B3B7BB PUSH1 0xE1 SHL PUSH1 0x44 DUP3 ADD MSTORE SWAP1 MLOAD SWAP1 DUP2 SWAP1 SUB PUSH1 0x64 ADD SWAP1 REVERT JUMPDEST PUSH1 0xC DUP1 SLOAD PUSH1 0x1 PUSH1 0x1 PUSH1 0xA0 SHL SUB DUP4 AND PUSH1 0x1 PUSH1 0x1 PUSH1 0xA0 SHL SUB NOT SWAP1 SWAP2 AND DUP2 OR SWAP1 SWAP2 SSTORE PUSH1 0x40 DUP1 MLOAD SWAP2 DUP3 MSTORE MLOAD PUSH32 0x91A8C1CC2D4A3BB60738481947A00CBB9899C822916694CF8BB1D68172FDCD54 SWAP2 DUP2 SWAP1 SUB PUSH1 0x20 ADD SWAP1 LOG1 POP JUMP JUMPDEST PUSH1 0x2 PUSH1 0x1 SLOAD EQ ISZERO PUSH2 0x16BF JUMPI PUSH1 0x40 DUP1 MLOAD PUSH3 0x461BCD PUSH1 0xE5 SHL DUP2 MSTORE PUSH1 0x20 PUSH1 0x4 DUP3 ADD MSTORE PUSH1 0x1F PUSH1 0x24 DUP3 ADD MSTORE PUSH1 0x0 DUP1 MLOAD PUSH1 0x20 PUSH2 0x3026 DUP4 CODECOPY DUP2 MLOAD SWAP2 MSTORE PUSH1 0x44 DUP3 ADD MSTORE SWAP1 MLOAD SWAP1 DUP2 SWAP1 SUB PUSH1 0x64 ADD SWAP1 REVERT JUMPDEST PUSH1 0x2 PUSH1 0x1 DUP2 SWAP1 SSTORE SLOAD PUSH1 0xFF AND ISZERO PUSH2 0x170F JUMPI PUSH1 0x40 DUP1 MLOAD PUSH3 0x461BCD PUSH1 0xE5 SHL DUP2 MSTORE PUSH1 0x20 PUSH1 0x4 DUP3 ADD MSTORE PUSH1 0x10 PUSH1 0x24 DUP3 ADD MSTORE PUSH16 0x14185D5CD8589B194E881C185D5CD959 PUSH1 0x82 SHL PUSH1 0x44 DUP3 ADD MSTORE SWAP1 MLOAD SWAP1 DUP2 SWAP1 SUB PUSH1 0x64 ADD SWAP1 REVERT JUMPDEST PUSH1 0x2 SLOAD PUSH4 0x1000000 SWAP1 DIV PUSH1 0xFF AND PUSH2 0x175B JUMPI PUSH1 0x40 DUP1 MLOAD PUSH3 0x461BCD PUSH1 0xE5 SHL DUP2 MSTORE PUSH1 0x20 PUSH1 0x4 DUP3 ADD MSTORE PUSH1 0xB PUSH1 0x24 DUP3 ADD MSTORE PUSH11 0x2169734175746F436F6D7 PUSH1 0xAC SHL PUSH1 0x44 DUP3 ADD MSTORE SWAP1 MLOAD SWAP1 DUP2 SWAP1 SUB PUSH1 0x64 ADD SWAP1 REVERT JUMPDEST PUSH1 0xC SLOAD PUSH1 0x1 PUSH1 0xA0 SHL SWAP1 DIV PUSH1 0xFF AND ISZERO PUSH2 0x17B5 JUMPI PUSH1 0xC SLOAD PUSH1 0x1 PUSH1 0x1 PUSH1 0xA0 SHL SUB AND CALLER EQ PUSH2 0x17B5 JUMPI PUSH1 0x40 DUP1 MLOAD PUSH3 0x461BCD PUSH1 0xE5 SHL DUP2 MSTORE PUSH1 0x20 PUSH1 0x4 DUP1 DUP4 ADD SWAP2 SWAP1 SWAP2 MSTORE PUSH1 0x24 DUP3 ADD MSTORE PUSH4 0x10B3B7BB PUSH1 0xE1 SHL PUSH1 0x44 DUP3 ADD MSTORE SWAP1 MLOAD SWAP1 DUP2 SWAP1 SUB PUSH1 0x64 ADD SWAP1 REVERT JUMPDEST PUSH2 0x17BF PUSH1 0x0 PUSH2 0x2870 JUMP JUMPDEST PUSH1 0x9 SLOAD PUSH1 0x7 SLOAD PUSH1 0x1 PUSH1 0x1 PUSH1 0xA0 SHL SUB SWAP1 DUP2 AND SWAP2 AND EQ ISZERO PUSH2 0x17E0 JUMPI PUSH2 0x17E0 PUSH2 0x2940 JUMP JUMPDEST PUSH1 0x7 SLOAD PUSH1 0x40 DUP1 MLOAD PUSH4 0x70A08231 PUSH1 0xE0 SHL DUP2 MSTORE ADDRESS PUSH1 0x4 DUP3 ADD MSTORE SWAP1 MLOAD PUSH1 0x0 SWAP3 PUSH1 0x1 PUSH1 0x1 PUSH1 0xA0 SHL SUB AND SWAP2 PUSH4 0x70A08231 SWAP2 PUSH1 0x24 DUP1 DUP4 ADD SWAP3 PUSH1 0x20 SWAP3 SWAP2 SWAP1 DUP3 SWAP1 SUB ADD DUP2 DUP7 DUP1 EXTCODESIZE ISZERO DUP1 ISZERO PUSH2 0x182B JUMPI PUSH1 0x0 DUP1 REVERT JUMPDEST POP GAS STATICCALL ISZERO DUP1 ISZERO PUSH2 0x183F JUMPI RETURNDATASIZE PUSH1 0x0 DUP1 RETURNDATACOPY RETURNDATASIZE PUSH1 0x0 REVERT JUMPDEST POP POP POP POP PUSH1 0x40 MLOAD RETURNDATASIZE PUSH1 0x20 DUP2 LT ISZERO PUSH2 0x1855 JUMPI PUSH1 0x0 DUP1 REVERT JUMPDEST POP MLOAD SWAP1 POP PUSH2 0x1862 DUP2 PUSH2 0x29B3 JUMP JUMPDEST SWAP1 POP PUSH2 0x186D DUP2 PUSH2 0x2A16 JUMP JUMPDEST PUSH1 0x2 SLOAD SWAP1 SWAP2 POP PUSH2 0x100 SWAP1 DIV PUSH1 0xFF AND DUP1 PUSH2 0x188E JUMPI POP PUSH1 0x2 SLOAD PUSH3 0x10000 SWAP1 DIV PUSH1 0xFF AND JUMPDEST ISZERO PUSH2 0x18A5 JUMPI NUMBER PUSH1 0xD SSTORE PUSH2 0x189F PUSH2 0x203F JUMP JUMPDEST POP PUSH2 0x891 JUMP JUMPDEST PUSH1 0x8 SLOAD PUSH1 0x7 SLOAD PUSH2 0x18C3 SWAP2 PUSH1 0x1 PUSH1 0x1 PUSH1 0xA0 SHL SUB SWAP2 DUP3 AND SWAP2 AND PUSH1 0x0 PUSH2 0x2B44 JUMP JUMPDEST PUSH1 0x8 SLOAD PUSH1 0x7 SLOAD PUSH2 0x18E0 SWAP2 PUSH1 0x1 PUSH1 0x1 PUSH1 0xA0 SHL SUB SWAP2 DUP3 AND SWAP2 AND DUP4 PUSH2 0x251B JUMP JUMPDEST PUSH1 0x5 SLOAD PUSH1 0x7 SLOAD PUSH1 0x1 PUSH1 0x1 PUSH1 0xA0 SHL SUB SWAP1 DUP2 AND SWAP2 AND EQ PUSH2 0x1985 JUMPI PUSH1 0x8 SLOAD PUSH2 0x1985 SWAP1 PUSH1 0x1 PUSH1 0x1 PUSH1 0xA0 SHL SUB AND PUSH2 0x1913 DUP4 PUSH1 0x2 PUSH2 0x23AC JUMP JUMPDEST PUSH1 0x16 SLOAD PUSH1 0x18 DUP1 SLOAD DUP1 PUSH1 0x20 MUL PUSH1 0x20 ADD PUSH1 0x40 MLOAD SWAP1 DUP2 ADD PUSH1 0x40 MSTORE DUP1 SWAP3 SWAP2 SWAP1 DUP2 DUP2 MSTORE PUSH1 0x20 ADD DUP3 DUP1 SLOAD DUP1 ISZERO PUSH2 0x1463 JUMPI PUSH1 0x20 MUL DUP3 ADD SWAP2 SWAP1 PUSH1 0x0 MSTORE PUSH1 0x20 PUSH1 0x0 KECCAK256 SWAP1 DUP2 SLOAD PUSH1 0x1 PUSH1 0x1 PUSH1 0xA0 SHL SUB AND DUP2 MSTORE PUSH1 0x1 SWAP1 SWAP2 ADD SWAP1 PUSH1 0x20 ADD DUP1 DUP4 GT PUSH2 0x1445 JUMPI POP POP POP POP POP ADDRESS PUSH2 0x147E PUSH2 0x258 TIMESTAMP PUSH2 0x23EE SWAP1 SWAP2 SWAP1 PUSH4 0xFFFFFFFF AND JUMP JUMPDEST PUSH1 0x6 SLOAD PUSH1 0x7 SLOAD PUSH1 0x1 PUSH1 0x1 PUSH1 0xA0 SHL SUB SWAP1 DUP2 AND SWAP2 AND EQ PUSH2 0x1A2A JUMPI PUSH1 0x8 SLOAD PUSH2 0x1A2A SWAP1 PUSH1 0x1 PUSH1 0x1 PUSH1 0xA0 SHL SUB AND PUSH2 0x19B8 DUP4 PUSH1 0x2 PUSH2 0x23AC JUMP JUMPDEST PUSH1 0x16 SLOAD PUSH1 0x19 DUP1 SLOAD DUP1 PUSH1 0x20 MUL PUSH1 0x20 ADD PUSH1 0x40 MLOAD SWAP1 DUP2 ADD PUSH1 0x40 MSTORE DUP1 SWAP3 SWAP2 SWAP1 DUP2 DUP2 MSTORE PUSH1 0x20 ADD DUP3 DUP1 SLOAD DUP1 ISZERO PUSH2 0x1463 JUMPI PUSH1 0x20 MUL DUP3 ADD SWAP2 SWAP1 PUSH1 0x0 MSTORE PUSH1 0x20 PUSH1 0x0 KECCAK256 SWAP1 DUP2 SLOAD PUSH1 0x1 PUSH1 0x1 PUSH1 0xA0 SHL SUB AND DUP2 MSTORE PUSH1 0x1 SWAP1 SWAP2 ADD SWAP1 PUSH1 0x20 ADD DUP1 DUP4 GT PUSH2 0x1445 JUMPI POP POP POP POP POP ADDRESS PUSH2 0x147E PUSH2 0x258 TIMESTAMP PUSH2 0x23EE SWAP1 SWAP2 SWAP1 PUSH4 0xFFFFFFFF AND JUMP JUMPDEST PUSH1 0x5 SLOAD PUSH1 0x40 DUP1 MLOAD PUSH4 0x70A08231 PUSH1 0xE0 SHL DUP2 MSTORE ADDRESS PUSH1 0x4 DUP3 ADD MSTORE SWAP1 MLOAD PUSH1 0x0 SWAP3 PUSH1 0x1 PUSH1 0x1 PUSH1 0xA0 SHL SUB AND SWAP2 PUSH4 0x70A08231 SWAP2 PUSH1 0x24 DUP1 DUP4 ADD SWAP3 PUSH1 0x20 SWAP3 SWAP2 SWAP1 DUP3 SWAP1 SUB ADD DUP2 DUP7 DUP1 EXTCODESIZE ISZERO DUP1 ISZERO PUSH2 0x1A75 JUMPI PUSH1 0x0 DUP1 REVERT JUMPDEST POP GAS STATICCALL ISZERO DUP1 ISZERO PUSH2 0x1A89 JUMPI RETURNDATASIZE PUSH1 0x0 DUP1 RETURNDATACOPY RETURNDATASIZE PUSH1 0x0 REVERT JUMPDEST POP POP POP POP PUSH1 0x40 MLOAD RETURNDATASIZE PUSH1 0x20 DUP2 LT ISZERO PUSH2 0x1A9F JUMPI PUSH1 0x0 DUP1 REVERT JUMPDEST POP MLOAD PUSH1 0x6 SLOAD PUSH1 0x40 DUP1 MLOAD PUSH4 0x70A08231 PUSH1 0xE0 SHL DUP2 MSTORE ADDRESS PUSH1 0x4 DUP3 ADD MSTORE SWAP1 MLOAD SWAP3 SWAP4 POP PUSH1 0x0 SWAP3 PUSH1 0x1 PUSH1 0x1 PUSH1 0xA0 SHL SUB SWAP1 SWAP3 AND SWAP2 PUSH4 0x70A08231 SWAP2 PUSH1 0x24 DUP1 DUP3 ADD SWAP3 PUSH1 0x20 SWAP3 SWAP1 SWAP2 SWAP1 DUP3 SWAP1 SUB ADD DUP2 DUP7 DUP1 EXTCODESIZE ISZERO DUP1 ISZERO PUSH2 0x1AF2 JUMPI PUSH1 0x0 DUP1 REVERT JUMPDEST POP GAS STATICCALL ISZERO DUP1 ISZERO PUSH2 0x1B06 JUMPI RETURNDATASIZE PUSH1 0x0 DUP1 RETURNDATACOPY RETURNDATASIZE PUSH1 0x0 REVERT JUMPDEST POP POP POP POP PUSH1 0x40 MLOAD RETURNDATASIZE PUSH1 0x20 DUP2 LT ISZERO PUSH2 0x1B1C JUMPI PUSH1 0x0 DUP1 REVERT JUMPDEST POP MLOAD SWAP1 POP DUP2 ISZERO DUP1 ISZERO SWAP1 PUSH2 0x1B2F JUMPI POP PUSH1 0x0 DUP2 GT JUMPDEST ISZERO PUSH2 0x1C4E JUMPI PUSH1 0x8 SLOAD PUSH1 0x5 SLOAD PUSH2 0x1B51 SWAP2 PUSH1 0x1 PUSH1 0x1 PUSH1 0xA0 SHL SUB SWAP2 DUP3 AND SWAP2 AND DUP5 PUSH2 0x251B JUMP JUMPDEST PUSH1 0x8 SLOAD PUSH1 0x6 SLOAD PUSH2 0x1B6E SWAP2 PUSH1 0x1 PUSH1 0x1 PUSH1 0xA0 SHL SUB SWAP2 DUP3 AND SWAP2 AND DUP4 PUSH2 0x251B JUMP JUMPDEST PUSH1 0x8 SLOAD PUSH1 0x5 SLOAD PUSH1 0x6 SLOAD PUSH1 0x1 PUSH1 0x1 PUSH1 0xA0 SHL SUB SWAP3 DUP4 AND SWAP3 PUSH4 0xE8E33700 SWAP3 DUP2 AND SWAP2 AND DUP6 DUP6 PUSH1 0x0 DUP1 ADDRESS PUSH2 0x1B9F TIMESTAMP PUSH2 0x258 PUSH2 0x23EE JUMP JUMPDEST PUSH1 0x40 MLOAD DUP10 PUSH4 0xFFFFFFFF AND PUSH1 0xE0 SHL DUP2 MSTORE PUSH1 0x4 ADD DUP1 DUP10 PUSH1 0x1 PUSH1 0x1 PUSH1 0xA0 SHL SUB AND DUP2 MSTORE PUSH1 0x20 ADD DUP9 PUSH1 0x1 PUSH1 0x1 PUSH1 0xA0 SHL SUB AND DUP2 MSTORE PUSH1 0x20 ADD DUP8 DUP2 MSTORE PUSH1 0x20 ADD DUP7 DUP2 MSTORE PUSH1 0x20 ADD DUP6 DUP2 MSTORE PUSH1 0x20 ADD DUP5 DUP2 MSTORE PUSH1 0x20 ADD DUP4 PUSH1 0x1 PUSH1 0x1 PUSH1 0xA0 SHL SUB AND DUP2 MSTORE PUSH1 0x20 ADD DUP3 DUP2 MSTORE PUSH1 0x20 ADD SWAP9 POP POP POP POP POP POP POP POP POP PUSH1 0x60 PUSH1 0x40 MLOAD DUP1 DUP4 SUB DUP2 PUSH1 0x0 DUP8 DUP1 EXTCODESIZE ISZERO DUP1 ISZERO PUSH2 0x1C21 JUMPI PUSH1 0x0 DUP1 REVERT JUMPDEST POP GAS CALL ISZERO DUP1 ISZERO PUSH2 0x1C35 JUMPI RETURNDATASIZE PUSH1 0x0 DUP1 RETURNDATACOPY RETURNDATASIZE PUSH1 0x0 REVERT JUMPDEST POP POP POP POP PUSH1 0x40 MLOAD RETURNDATASIZE PUSH1 0x60 DUP2 LT ISZERO PUSH2 0x1C4B JUMPI PUSH1 0x0 DUP1 REVERT JUMPDEST POP POP JUMPDEST NUMBER PUSH1 0xD SSTORE PUSH2 0x1C5A PUSH2 0x203F JUMP JUMPDEST POP POP POP PUSH1 0x1 DUP1 SSTORE JUMP JUMPDEST PUSH1 0xC SLOAD PUSH1 0x1 PUSH1 0x1 PUSH1 0xA0 SHL SUB AND CALLER EQ PUSH2 0x1CAB JUMPI PUSH1 0x40 DUP1 MLOAD PUSH3 0x461BCD PUSH1 0xE5 SHL DUP2 MSTORE PUSH1 0x20 PUSH1 0x4 DUP1 DUP4 ADD SWAP2 SWAP1 SWAP2 MSTORE PUSH1 0x24 DUP3 ADD MSTORE PUSH4 0x10B3B7BB PUSH1 0xE1 SHL PUSH1 0x44 DUP3 ADD MSTORE SWAP1 MLOAD SWAP1 DUP2 SWAP1 SUB PUSH1 0x64 ADD SWAP1 REVERT JUMPDEST PUSH2 0x8E7 PUSH2 0x2940 JUMP JUMPDEST PUSH1 0x6 SLOAD PUSH1 0x1 PUSH1 0x1 PUSH1 0xA0 SHL SUB AND DUP2 JUMP JUMPDEST PUSH1 0x2 SLOAD PUSH4 0x1000000 SWAP1 DIV PUSH1 0xFF AND DUP2 JUMP JUMPDEST PUSH1 0x7 SLOAD PUSH1 0x1 PUSH1 0x1 PUSH1 0xA0 SHL SUB AND DUP2 JUMP JUMPDEST PUSH1 0x4 SLOAD PUSH1 0x1 PUSH1 0x1 PUSH1 0xA0 SHL SUB AND DUP2 JUMP JUMPDEST PUSH1 0x3 SLOAD DUP2 JUMP JUMPDEST PUSH2 0x1CFE PUSH2 0x22E6 JUMP JUMPDEST PUSH1 0x0 SLOAD PUSH1 0x1 PUSH1 0x1 PUSH1 0xA0 SHL SUB SWAP1 DUP2 AND SWAP2 AND EQ PUSH2 0x1D4E JUMPI PUSH1 0x40 DUP1 MLOAD PUSH3 0x461BCD PUSH1 0xE5 SHL DUP2 MSTORE PUSH1 0x20 PUSH1 0x4 DUP3 ADD DUP2 SWAP1 MSTORE PUSH1 0x24 DUP3 ADD MSTORE PUSH1 0x0 DUP1 MLOAD PUSH1 0x20 PUSH2 0x30B3 DUP4 CODECOPY DUP2 MLOAD SWAP2 MSTORE PUSH1 0x44 DUP3 ADD MSTORE SWAP1 MLOAD SWAP1 DUP2 SWAP1 SUB PUSH1 0x64 ADD SWAP1 REVERT JUMPDEST PUSH1 0x1 PUSH1 0x1 PUSH1 0xA0 SHL SUB DUP2 AND PUSH2 0x1D93 JUMPI PUSH1 0x40 MLOAD PUSH3 0x461BCD PUSH1 0xE5 SHL DUP2 MSTORE PUSH1 0x4 ADD DUP1 DUP1 PUSH1 0x20 ADD DUP3 DUP2 SUB DUP3 MSTORE PUSH1 0x26 DUP2 MSTORE PUSH1 0x20 ADD DUP1 PUSH2 0x3046 PUSH1 0x26 SWAP2 CODECOPY PUSH1 0x40 ADD SWAP2 POP POP PUSH1 0x40 MLOAD DUP1 SWAP2 SUB SWAP1 REVERT JUMPDEST PUSH1 0x0 DUP1 SLOAD PUSH1 0x40 MLOAD PUSH1 0x1 PUSH1 0x1 PUSH1 0xA0 SHL SUB DUP1 DUP6 AND SWAP4 SWAP3 AND SWAP2 PUSH32 0x8BE0079C531659141344CD1FD0A4F28419497F9722A3DAAFE3B4186F6B6457E0 SWAP2 LOG3 PUSH1 0x0 DUP1 SLOAD PUSH1 0x1 PUSH1 0x1 PUSH1 0xA0 SHL SUB NOT AND PUSH1 0x1 PUSH1 0x1 PUSH1 0xA0 SHL SUB SWAP3 SWAP1 SWAP3 AND SWAP2 SWAP1 SWAP2 OR SWAP1 SSTORE JUMP JUMPDEST PUSH1 0x0 PUSH2 0x1DF8 PUSH2 0x22E6 JUMP JUMPDEST PUSH1 0x0 SLOAD PUSH1 0x1 PUSH1 0x1 PUSH1 0xA0 SHL SUB SWAP1 DUP2 AND SWAP2 AND EQ PUSH2 0x1E48 JUMPI PUSH1 0x40 DUP1 MLOAD PUSH3 0x461BCD PUSH1 0xE5 SHL DUP2 MSTORE PUSH1 0x20 PUSH1 0x4 DUP3 ADD DUP2 SWAP1 MSTORE PUSH1 0x24 DUP3 ADD MSTORE PUSH1 0x0 DUP1 MLOAD PUSH1 0x20 PUSH2 0x30B3 DUP4 CODECOPY DUP2 MLOAD SWAP2 MSTORE PUSH1 0x44 DUP3 ADD MSTORE SWAP1 MLOAD SWAP1 DUP2 SWAP1 SUB PUSH1 0x64 ADD SWAP1 REVERT JUMPDEST PUSH1 0x2 PUSH1 0x1 SLOAD EQ ISZERO PUSH2 0x1E8E JUMPI PUSH1 0x40 DUP1 MLOAD PUSH3 0x461BCD PUSH1 0xE5 SHL DUP2 MSTORE PUSH1 0x20 PUSH1 0x4 DUP3 ADD MSTORE PUSH1 0x1F PUSH1 0x24 DUP3 ADD MSTORE PUSH1 0x0 DUP1 MLOAD PUSH1 0x20 PUSH2 0x3026 DUP4 CODECOPY DUP2 MLOAD SWAP2 MSTORE PUSH1 0x44 DUP3 ADD MSTORE SWAP1 MLOAD SWAP1 DUP2 SWAP1 SUB PUSH1 0x64 ADD SWAP1 REVERT JUMPDEST PUSH1 0x2 PUSH1 0x1 SSTORE DUP2 PUSH2 0x1ED5 JUMPI PUSH1 0x40 DUP1 MLOAD PUSH3 0x461BCD PUSH1 0xE5 SHL DUP2 MSTORE PUSH1 0x20 PUSH1 0x4 DUP3 ADD MSTORE PUSH1 0xD PUSH1 0x24 DUP3 ADD MSTORE PUSH13 0x5F77616E74416D74203C3D203 PUSH1 0x9C SHL PUSH1 0x44 DUP3 ADD MSTORE SWAP1 MLOAD SWAP1 DUP2 SWAP1 SUB PUSH1 0x64 ADD SWAP1 REVERT JUMPDEST PUSH1 0x0 PUSH2 0x1EF2 PUSH1 0xE SLOAD PUSH2 0xA53 PUSH1 0xF SLOAD DUP7 PUSH2 0x234A SWAP1 SWAP2 SWAP1 PUSH4 0xFFFFFFFF AND JUMP JUMPDEST SWAP1 POP PUSH1 0xF SLOAD DUP2 GT ISZERO PUSH2 0x1F03 JUMPI POP PUSH1 0xF SLOAD JUMPDEST PUSH1 0xF SLOAD PUSH2 0x1F10 SWAP1 DUP3 PUSH2 0x2C57 JUMP JUMPDEST PUSH1 0xF SSTORE PUSH1 0x15 SLOAD PUSH2 0x2710 GT ISZERO PUSH2 0x1F3D JUMPI PUSH2 0x1F3A PUSH2 0x2710 PUSH2 0xA53 PUSH1 0x15 SLOAD DUP7 PUSH2 0x234A SWAP1 SWAP2 SWAP1 PUSH4 0xFFFFFFFF AND JUMP JUMPDEST SWAP3 POP JUMPDEST PUSH1 0x2 SLOAD PUSH4 0x1000000 SWAP1 DIV PUSH1 0xFF AND ISZERO PUSH2 0x1F58 JUMPI PUSH2 0x1F58 DUP4 PUSH2 0x2870 JUMP JUMPDEST PUSH1 0x4 DUP1 SLOAD PUSH1 0x40 DUP1 MLOAD PUSH4 0x70A08231 PUSH1 0xE0 SHL DUP2 MSTORE ADDRESS SWAP4 DUP2 ADD SWAP4 SWAP1 SWAP4 MSTORE MLOAD PUSH1 0x0 SWAP3 PUSH1 0x1 PUSH1 0x1 PUSH1 0xA0 SHL SUB SWAP1 SWAP3 AND SWAP2 PUSH4 0x70A08231 SWAP2 PUSH1 0x24 DUP1 DUP4 ADD SWAP3 PUSH1 0x20 SWAP3 SWAP2 SWAP1 DUP3 SWAP1 SUB ADD DUP2 DUP7 DUP1 EXTCODESIZE ISZERO DUP1 ISZERO PUSH2 0x1FA7 JUMPI PUSH1 0x0 DUP1 REVERT JUMPDEST POP GAS STATICCALL ISZERO DUP1 ISZERO PUSH2 0x1FBB JUMPI RETURNDATASIZE PUSH1 0x0 DUP1 RETURNDATACOPY RETURNDATASIZE PUSH1 0x0 REVERT JUMPDEST POP POP POP POP PUSH1 0x40 MLOAD RETURNDATASIZE PUSH1 0x20 DUP2 LT ISZERO PUSH2 0x1FD1 JUMPI PUSH1 0x0 DUP1 REVERT JUMPDEST POP MLOAD SWAP1 POP DUP1 DUP5 GT ISZERO PUSH2 0x1FE1 JUMPI DUP1 SWAP4 POP JUMPDEST DUP4 PUSH1 0xE SLOAD LT ISZERO PUSH2 0x1FF1 JUMPI PUSH1 0xE SLOAD SWAP4 POP JUMPDEST PUSH1 0xE SLOAD PUSH2 0x1FFE SWAP1 DUP6 PUSH2 0x2C57 JUMP JUMPDEST PUSH1 0xE SSTORE PUSH1 0xA SLOAD PUSH1 0x4 SLOAD PUSH2 0x201E SWAP2 PUSH1 0x1 PUSH1 0x1 PUSH1 0xA0 SHL SUB SWAP2 DUP3 AND SWAP2 AND DUP7 PUSH2 0x2448 JUMP JUMPDEST POP PUSH1 0x1 DUP1 SSTORE SWAP4 SWAP3 POP POP POP JUMP JUMPDEST PUSH1 0xA SLOAD PUSH1 0x1 PUSH1 0x1 PUSH1 0xA0 SHL SUB AND DUP2 JUMP JUMPDEST PUSH1 0x16 SLOAD DUP2 JUMP JUMPDEST PUSH1 0x2 SLOAD PUSH4 0x1000000 SWAP1 DIV PUSH1 0xFF AND PUSH2 0x208B JUMPI PUSH1 0x40 DUP1 MLOAD PUSH3 0x461BCD PUSH1 0xE5 SHL DUP2 MSTORE PUSH1 0x20 PUSH1 0x4 DUP3 ADD MSTORE PUSH1 0xB PUSH1 0x24 DUP3 ADD MSTORE PUSH11 0x2169734175746F436F6D7 PUSH1 0xAC SHL PUSH1 0x44 DUP3 ADD MSTORE SWAP1 MLOAD SWAP1 DUP2 SWAP1 SUB PUSH1 0x64 ADD SWAP1 REVERT JUMPDEST PUSH1 0x4 DUP1 SLOAD PUSH1 0x40 DUP1 MLOAD PUSH4 0x70A08231 PUSH1 0xE0 SHL DUP2 MSTORE ADDRESS SWAP4 DUP2 ADD SWAP4 SWAP1 SWAP4 MSTORE MLOAD PUSH1 0x0 SWAP3 PUSH1 0x1 PUSH1 0x1 PUSH1 0xA0 SHL SUB SWAP1 SWAP3 AND SWAP2 PUSH4 0x70A08231 SWAP2 PUSH1 0x24 DUP1 DUP4 ADD SWAP3 PUSH1 0x20 SWAP3 SWAP2 SWAP1 DUP3 SWAP1 SUB ADD DUP2 DUP7 DUP1 EXTCODESIZE ISZERO DUP1 ISZERO PUSH2 0x20DA JUMPI PUSH1 0x0 DUP1 REVERT JUMPDEST POP GAS STATICCALL ISZERO DUP1 ISZERO PUSH2 0x20EE JUMPI RETURNDATASIZE PUSH1 0x0 DUP1 RETURNDATACOPY RETURNDATASIZE PUSH1 0x0 REVERT JUMPDEST POP POP POP POP PUSH1 0x40 MLOAD RETURNDATASIZE PUSH1 0x20 DUP2 LT ISZERO PUSH2 0x2104 JUMPI PUSH1 0x0 DUP1 REVERT JUMPDEST POP MLOAD PUSH1 0xE SLOAD SWAP1 SWAP2 POP PUSH2 0x2116 SWAP1 DUP3 PUSH2 0x23EE JUMP JUMPDEST PUSH1 0xE SSTORE PUSH1 0x2 SLOAD PUSH1 0x4 SLOAD PUSH2 0x213F SWAP2 PUSH1 0x1 PUSH1 0x1 PUSH1 0xA0 SHL SUB SWAP2 DUP3 AND SWAP2 PUSH5 0x100000000 SWAP1 SWAP2 DIV AND DUP4 PUSH2 0x251B JUMP JUMPDEST PUSH1 0x2 SLOAD PUSH2 0x100 SWAP1 DIV PUSH1 0xFF AND ISZERO PUSH2 0x21C7 JUMPI PUSH1 0x2 PUSH1 0x4 SWAP1 SLOAD SWAP1 PUSH2 0x100 EXP SWAP1 DIV PUSH1 0x1 PUSH1 0x1 PUSH1 0xA0 SHL SUB AND PUSH1 0x1 PUSH1 0x1 PUSH1 0xA0 SHL SUB AND PUSH4 0x41441D3B DUP3 PUSH1 0x40 MLOAD DUP3 PUSH4 0xFFFFFFFF AND PUSH1 0xE0 SHL DUP2 MSTORE PUSH1 0x4 ADD DUP1 DUP3 DUP2 MSTORE PUSH1 0x20 ADD SWAP2 POP POP PUSH1 0x0 PUSH1 0x40 MLOAD DUP1 DUP4 SUB DUP2 PUSH1 0x0 DUP8 DUP1 EXTCODESIZE ISZERO DUP1 ISZERO PUSH2 0x21AA JUMPI PUSH1 0x0 DUP1 REVERT JUMPDEST POP GAS CALL ISZERO DUP1 ISZERO PUSH2 0x21BE JUMPI RETURNDATASIZE PUSH1 0x0 DUP1 RETURNDATACOPY RETURNDATASIZE PUSH1 0x0 REVERT JUMPDEST POP POP POP POP PUSH2 0x2245 JUMP JUMPDEST PUSH1 0x2 PUSH1 0x4 SWAP1 SLOAD SWAP1 PUSH2 0x100 EXP SWAP1 DIV PUSH1 0x1 PUSH1 0x1 PUSH1 0xA0 SHL SUB AND PUSH1 0x1 PUSH1 0x1 PUSH1 0xA0 SHL SUB AND PUSH4 0xE2BBB158 PUSH1 0x3 SLOAD DUP4 PUSH1 0x40 MLOAD DUP4 PUSH4 0xFFFFFFFF AND PUSH1 0xE0 SHL DUP2 MSTORE PUSH1 0x4 ADD DUP1 DUP4 DUP2 MSTORE PUSH1 0x20 ADD DUP3 DUP2 MSTORE PUSH1 0x20 ADD SWAP3 POP POP POP PUSH1 0x0 PUSH1 0x40 MLOAD DUP1 DUP4 SUB DUP2 PUSH1 0x0 DUP8 DUP1 EXTCODESIZE ISZERO DUP1 ISZERO PUSH2 0x222C JUMPI PUSH1 0x0 DUP1 REVERT JUMPDEST POP GAS CALL ISZERO DUP1 ISZERO PUSH2 0x2240 JUMPI RETURNDATASIZE PUSH1 0x0 DUP1 RETURNDATACOPY RETURNDATASIZE PUSH1 0x0 REVERT JUMPDEST POP POP POP POP JUMPDEST POP JUMP JUMPDEST PUSH1 0x2 SLOAD PUSH1 0xFF AND PUSH2 0x2296 JUMPI PUSH1 0x40 DUP1 MLOAD PUSH3 0x461BCD PUSH1 0xE5 SHL DUP2 MSTORE PUSH1 0x20 PUSH1 0x4 DUP3 ADD MSTORE PUSH1 0x14 PUSH1 0x24 DUP3 ADD MSTORE PUSH20 0x14185D5CD8589B194E881B9BDD081C185D5CD959 PUSH1 0x62 SHL PUSH1 0x44 DUP3 ADD MSTORE SWAP1 MLOAD SWAP1 DUP2 SWAP1 SUB PUSH1 0x64 ADD SWAP1 REVERT JUMPDEST PUSH1 0x2 DUP1 SLOAD PUSH1 0xFF NOT AND SWAP1 SSTORE PUSH32 0x5DB9EE0A495BF2E6FF9C91A7834C1BA4FDD244A5E8AA4E537BD38AEAE4B073AA PUSH2 0x22C9 PUSH2 0x22E6 JUMP JUMPDEST PUSH1 0x40 DUP1 MLOAD PUSH1 0x1 PUSH1 0x1 PUSH1 0xA0 SHL SUB SWAP1 SWAP3 AND DUP3 MSTORE MLOAD SWAP1 DUP2 SWAP1 SUB PUSH1 0x20 ADD SWAP1 LOG1 JUMP JUMPDEST CALLER SWAP1 JUMP JUMPDEST PUSH1 0x40 DUP1 MLOAD PUSH1 0x1 PUSH1 0x1 PUSH1 0xA0 SHL SUB DUP1 DUP7 AND PUSH1 0x24 DUP4 ADD MSTORE DUP5 AND PUSH1 0x44 DUP3 ADD MSTORE PUSH1 0x64 DUP1 DUP3 ADD DUP5 SWAP1 MSTORE DUP3 MLOAD DUP1 DUP4 SUB SWAP1 SWAP2 ADD DUP2 MSTORE PUSH1 0x84 SWAP1 SWAP2 ADD SWAP1 SWAP2 MSTORE PUSH1 0x20 DUP2 ADD DUP1 MLOAD PUSH1 0x1 PUSH1 0x1 PUSH1 0xE0 SHL SUB AND PUSH4 0x23B872DD PUSH1 0xE0 SHL OR SWAP1 MSTORE PUSH2 0x2344 SWAP1 DUP6 SWAP1 PUSH2 0x2C99 JUMP JUMPDEST POP POP POP POP JUMP JUMPDEST PUSH1 0x0 DUP3 PUSH2 0x2359 JUMPI POP PUSH1 0x0 PUSH2 0x23A6 JUMP JUMPDEST DUP3 DUP3 MUL DUP3 DUP5 DUP3 DUP2 PUSH2 0x2366 JUMPI INVALID JUMPDEST DIV EQ PUSH2 0x23A3 JUMPI PUSH1 0x40 MLOAD PUSH3 0x461BCD PUSH1 0xE5 SHL DUP2 MSTORE PUSH1 0x4 ADD DUP1 DUP1 PUSH1 0x20 ADD DUP3 DUP2 SUB DUP3 MSTORE PUSH1 0x21 DUP2 MSTORE PUSH1 0x20 ADD DUP1 PUSH2 0x3092 PUSH1 0x21 SWAP2 CODECOPY PUSH1 0x40 ADD SWAP2 POP POP PUSH1 0x40 MLOAD DUP1 SWAP2 SUB SWAP1 REVERT JUMPDEST SWAP1 POP JUMPDEST SWAP3 SWAP2 POP POP JUMP JUMPDEST PUSH1 0x0 PUSH2 0x23A3 DUP4 DUP4 PUSH1 0x40 MLOAD DUP1 PUSH1 0x40 ADD PUSH1 0x40 MSTORE DUP1 PUSH1 0x1A DUP2 MSTORE PUSH1 0x20 ADD PUSH32 0x536166654D6174683A206469766973696F6E206279207A65726F000000000000 DUP2 MSTORE POP PUSH2 0x2D4A JUMP JUMPDEST PUSH1 0x0 DUP3 DUP3 ADD DUP4 DUP2 LT ISZERO PUSH2 0x23A3 JUMPI PUSH1 0x40 DUP1 MLOAD PUSH3 0x461BCD PUSH1 0xE5 SHL DUP2 MSTORE PUSH1 0x20 PUSH1 0x4 DUP3 ADD MSTORE PUSH1 0x1B PUSH1 0x24 DUP3 ADD MSTORE PUSH32 0x536166654D6174683A206164646974696F6E206F766572666C6F770000000000 PUSH1 0x44 DUP3 ADD MSTORE SWAP1 MLOAD SWAP1 DUP2 SWAP1 SUB PUSH1 0x64 ADD SWAP1 REVERT JUMPDEST PUSH1 0x40 DUP1 MLOAD PUSH1 0x1 PUSH1 0x1 PUSH1 0xA0 SHL SUB DUP5 AND PUSH1 0x24 DUP3 ADD MSTORE PUSH1 0x44 DUP1 DUP3 ADD DUP5 SWAP1 MSTORE DUP3 MLOAD DUP1 DUP4 SUB SWAP1 SWAP2 ADD DUP2 MSTORE PUSH1 0x64 SWAP1 SWAP2 ADD SWAP1 SWAP2 MSTORE PUSH1 0x20 DUP2 ADD DUP1 MLOAD PUSH1 0x1 PUSH1 0x1 PUSH1 0xE0 SHL SUB AND PUSH4 0xA9059CBB PUSH1 0xE0 SHL OR SWAP1 MSTORE PUSH2 0xC5A SWAP1 DUP5 SWAP1 PUSH2 0x2C99 JUMP JUMPDEST PUSH1 0x2 SLOAD PUSH1 0xFF AND ISZERO PUSH2 0x24E5 JUMPI PUSH1 0x40 DUP1 MLOAD PUSH3 0x461BCD PUSH1 0xE5 SHL DUP2 MSTORE PUSH1 0x20 PUSH1 0x4 DUP3 ADD MSTORE PUSH1 0x10 PUSH1 0x24 DUP3 ADD MSTORE PUSH16 0x14185D5CD8589B194E881C185D5CD959 PUSH1 0x82 SHL PUSH1 0x44 DUP3 ADD MSTORE SWAP1 MLOAD SWAP1 DUP2 SWAP1 SUB PUSH1 0x64 ADD SWAP1 REVERT JUMPDEST PUSH1 0x2 DUP1 SLOAD PUSH1 0xFF NOT AND PUSH1 0x1 OR SWAP1 SSTORE PUSH32 0x62E78CEA01BEE320CD4E420270B5EA74000D11B0C9F74754EBDBFC544B05A258 PUSH2 0x22C9 PUSH2 0x22E6 JUMP JUMPDEST PUSH1 0x0 PUSH2 0x25B1 DUP3 DUP6 PUSH1 0x1 PUSH1 0x1 PUSH1 0xA0 SHL SUB AND PUSH4 0xDD62ED3E ADDRESS DUP8 PUSH1 0x40 MLOAD DUP4 PUSH4 0xFFFFFFFF AND PUSH1 0xE0 SHL DUP2 MSTORE PUSH1 0x4 ADD DUP1 DUP4 PUSH1 0x1 PUSH1 0x1 PUSH1 0xA0 SHL SUB AND DUP2 MSTORE PUSH1 0x20 ADD DUP3 PUSH1 0x1 PUSH1 0x1 PUSH1 0xA0 SHL SUB AND DUP2 MSTORE PUSH1 0x20 ADD SWAP3 POP POP POP PUSH1 0x20 PUSH1 0x40 MLOAD DUP1 DUP4 SUB DUP2 DUP7 DUP1 EXTCODESIZE ISZERO DUP1 ISZERO PUSH2 0x257F JUMPI PUSH1 0x0 DUP1 REVERT JUMPDEST POP GAS STATICCALL ISZERO DUP1 ISZERO PUSH2 0x2593 JUMPI RETURNDATASIZE PUSH1 0x0 DUP1 RETURNDATACOPY RETURNDATASIZE PUSH1 0x0 REVERT JUMPDEST POP POP POP POP PUSH1 0x40 MLOAD RETURNDATASIZE PUSH1 0x20 DUP2 LT ISZERO PUSH2 0x25A9 JUMPI PUSH1 0x0 DUP1 REVERT JUMPDEST POP MLOAD SWAP1 PUSH2 0x23EE JUMP JUMPDEST PUSH1 0x40 DUP1 MLOAD PUSH1 0x1 PUSH1 0x1 PUSH1 0xA0 SHL SUB DUP7 AND PUSH1 0x24 DUP3 ADD MSTORE PUSH1 0x44 DUP1 DUP3 ADD DUP5 SWAP1 MSTORE DUP3 MLOAD DUP1 DUP4 SUB SWAP1 SWAP2 ADD DUP2 MSTORE PUSH1 0x64 SWAP1 SWAP2 ADD SWAP1 SWAP2 MSTORE PUSH1 0x20 DUP2 ADD DUP1 MLOAD PUSH1 0x1 PUSH1 0x1 PUSH1 0xE0 SHL SUB AND PUSH4 0x95EA7B3 PUSH1 0xE0 SHL OR SWAP1 MSTORE SWAP1 SWAP2 POP PUSH2 0x2344 SWAP1 DUP6 SWAP1 PUSH2 0x2C99 JUMP JUMPDEST PUSH1 0x40 DUP1 MLOAD PUSH4 0xD06CA61F PUSH1 0xE0 SHL DUP2 MSTORE PUSH1 0x4 DUP2 ADD DUP8 DUP2 MSTORE PUSH1 0x24 DUP3 ADD SWAP3 DUP4 MSTORE DUP6 MLOAD PUSH1 0x44 DUP4 ADD MSTORE DUP6 MLOAD PUSH1 0x60 SWAP4 PUSH1 0x1 PUSH1 0x1 PUSH1 0xA0 SHL SUB DUP12 AND SWAP4 PUSH4 0xD06CA61F SWAP4 DUP12 SWAP4 DUP11 SWAP4 SWAP2 SWAP3 PUSH1 0x64 ADD SWAP1 PUSH1 0x20 DUP1 DUP7 ADD SWAP2 MUL DUP1 DUP4 DUP4 PUSH1 0x0 JUMPDEST DUP4 DUP2 LT ISZERO PUSH2 0x266E JUMPI DUP2 DUP2 ADD MLOAD DUP4 DUP3 ADD MSTORE PUSH1 0x20 ADD PUSH2 0x2656 JUMP JUMPDEST POP POP POP POP SWAP1 POP ADD SWAP4 POP POP POP POP PUSH1 0x0 PUSH1 0x40 MLOAD DUP1 DUP4 SUB DUP2 DUP7 DUP1 EXTCODESIZE ISZERO DUP1 ISZERO PUSH2 0x2692 JUMPI PUSH1 0x0 DUP1 REVERT JUMPDEST POP GAS STATICCALL ISZERO DUP1 ISZERO PUSH2 0x26A6 JUMPI RETURNDATASIZE PUSH1 0x0 DUP1 RETURNDATACOPY RETURNDATASIZE PUSH1 0x0 REVERT JUMPDEST POP POP POP POP PUSH1 0x40 MLOAD RETURNDATASIZE PUSH1 0x0 DUP3 RETURNDATACOPY PUSH1 0x1F RETURNDATASIZE SWAP1 DUP2 ADD PUSH1 0x1F NOT AND DUP3 ADD PUSH1 0x40 MSTORE PUSH1 0x20 DUP2 LT ISZERO PUSH2 0x26CF JUMPI PUSH1 0x0 DUP1 REVERT JUMPDEST DUP2 ADD SWAP1 DUP1 DUP1 MLOAD PUSH1 0x40 MLOAD SWAP4 SWAP3 SWAP2 SWAP1 DUP5 PUSH5 0x100000000 DUP3 GT ISZERO PUSH2 0x26EF JUMPI PUSH1 0x0 DUP1 REVERT JUMPDEST SWAP1 DUP4 ADD SWAP1 PUSH1 0x20 DUP3 ADD DUP6 DUP2 GT ISZERO PUSH2 0x2704 JUMPI PUSH1 0x0 DUP1 REVERT JUMPDEST DUP3 MLOAD DUP7 PUSH1 0x20 DUP3 MUL DUP4 ADD GT PUSH5 0x100000000 DUP3 GT OR ISZERO PUSH2 0x2721 JUMPI PUSH1 0x0 DUP1 REVERT JUMPDEST DUP3 MSTORE POP DUP2 MLOAD PUSH1 0x20 SWAP2 DUP3 ADD SWAP3 DUP3 ADD SWAP2 MUL DUP1 DUP4 DUP4 PUSH1 0x0 JUMPDEST DUP4 DUP2 LT ISZERO PUSH2 0x274E JUMPI DUP2 DUP2 ADD MLOAD DUP4 DUP3 ADD MSTORE PUSH1 0x20 ADD PUSH2 0x2736 JUMP JUMPDEST POP POP POP POP SWAP1 POP ADD PUSH1 0x40 MSTORE POP POP POP SWAP1 POP PUSH1 0x0 DUP2 PUSH2 0x2775 PUSH1 0x1 DUP5 MLOAD PUSH2 0x2C57 SWAP1 SWAP2 SWAP1 PUSH4 0xFFFFFFFF AND JUMP JUMPDEST DUP2 MLOAD DUP2 LT PUSH2 0x277F JUMPI INVALID JUMPDEST PUSH1 0x20 MUL PUSH1 0x20 ADD ADD MLOAD SWAP1 POP DUP8 PUSH1 0x1 PUSH1 0x1 PUSH1 0xA0 SHL SUB AND PUSH4 0x5C11D795 DUP9 PUSH2 0x27B2 PUSH2 0x3E8 PUSH2 0xA53 DUP12 DUP8 PUSH2 0x234A SWAP1 SWAP2 SWAP1 PUSH4 0xFFFFFFFF AND JUMP JUMPDEST DUP9 DUP9 DUP9 PUSH1 0x40 MLOAD DUP7 PUSH4 0xFFFFFFFF AND PUSH1 0xE0 SHL DUP2 MSTORE PUSH1 0x4 ADD DUP1 DUP7 DUP2 MSTORE PUSH1 0x20 ADD DUP6 DUP2 MSTORE PUSH1 0x20 ADD DUP1 PUSH1 0x20 ADD DUP5 PUSH1 0x1 PUSH1 0x1 PUSH1 0xA0 SHL SUB AND DUP2 MSTORE PUSH1 0x20 ADD DUP4 DUP2 MSTORE PUSH1 0x20 ADD DUP3 DUP2 SUB DUP3 MSTORE DUP6 DUP2 DUP2 MLOAD DUP2 MSTORE PUSH1 0x20 ADD SWAP2 POP DUP1 MLOAD SWAP1 PUSH1 0x20 ADD SWAP1 PUSH1 0x20 MUL DUP1 DUP4 DUP4 PUSH1 0x0 JUMPDEST DUP4 DUP2 LT ISZERO PUSH2 0x2825 JUMPI DUP2 DUP2 ADD MLOAD DUP4 DUP3 ADD MSTORE PUSH1 0x20 ADD PUSH2 0x280D JUMP JUMPDEST POP POP POP POP SWAP1 POP ADD SWAP7 POP POP POP POP POP POP POP PUSH1 0x0 PUSH1 0x40 MLOAD DUP1 DUP4 SUB DUP2 PUSH1 0x0 DUP8 DUP1 EXTCODESIZE ISZERO DUP1 ISZERO PUSH2 0x284E JUMPI PUSH1 0x0 DUP1 REVERT JUMPDEST POP GAS CALL ISZERO DUP1 ISZERO PUSH2 0x2862 JUMPI RETURNDATASIZE PUSH1 0x0 DUP1 RETURNDATACOPY RETURNDATASIZE PUSH1 0x0 REVERT JUMPDEST POP POP POP POP POP POP POP POP POP POP POP POP JUMP JUMPDEST PUSH1 0x2 SLOAD PUSH2 0x100 SWAP1 DIV PUSH1 0xFF AND ISZERO PUSH2 0x28DB JUMPI PUSH1 0x2 PUSH1 0x4 SWAP1 SLOAD SWAP1 PUSH2 0x100 EXP SWAP1 DIV PUSH1 0x1 PUSH1 0x1 PUSH1 0xA0 SHL SUB AND PUSH1 0x1 PUSH1 0x1 PUSH1 0xA0 SHL SUB AND PUSH4 0x1058D281 DUP3 PUSH1 0x40 MLOAD DUP3 PUSH4 0xFFFFFFFF AND PUSH1 0xE0 SHL DUP2 MSTORE PUSH1 0x4 ADD DUP1 DUP3 DUP2 MSTORE PUSH1 0x20 ADD SWAP2 POP POP PUSH1 0x0 PUSH1 0x40 MLOAD DUP1 DUP4 SUB DUP2 PUSH1 0x0 DUP8 DUP1 EXTCODESIZE ISZERO DUP1 ISZERO PUSH2 0x21AA JUMPI PUSH1 0x0 DUP1 REVERT JUMPDEST PUSH1 0x2 PUSH1 0x4 SWAP1 SLOAD SWAP1 PUSH2 0x100 EXP SWAP1 DIV PUSH1 0x1 PUSH1 0x1 PUSH1 0xA0 SHL SUB AND PUSH1 0x1 PUSH1 0x1 PUSH1 0xA0 SHL SUB AND PUSH4 0x441A3E70 PUSH1 0x3 SLOAD DUP4 PUSH1 0x40 MLOAD DUP4 PUSH4 0xFFFFFFFF AND PUSH1 0xE0 SHL DUP2 MSTORE PUSH1 0x4 ADD DUP1 DUP4 DUP2 MSTORE PUSH1 0x20 ADD DUP3 DUP2 MSTORE PUSH1 0x20 ADD SWAP3 POP POP POP PUSH1 0x0 PUSH1 0x40 MLOAD DUP1 DUP4 SUB DUP2 PUSH1 0x0 DUP8 DUP1 EXTCODESIZE ISZERO DUP1 ISZERO PUSH2 0x222C JUMPI PUSH1 0x0 DUP1 REVERT JUMPDEST SELFBALANCE DUP1 ISZERO PUSH2 0x2245 JUMPI PUSH1 0x9 PUSH1 0x0 SWAP1 SLOAD SWAP1 PUSH2 0x100 EXP SWAP1 DIV PUSH1 0x1 PUSH1 0x1 PUSH1 0xA0 SHL SUB AND PUSH1 0x1 PUSH1 0x1 PUSH1 0xA0 SHL SUB AND PUSH4 0xD0E30DB0 DUP3 PUSH1 0x40 MLOAD DUP3 PUSH4 0xFFFFFFFF AND PUSH1 0xE0 SHL DUP2 MSTORE PUSH1 0x4 ADD PUSH1 0x0 PUSH1 0x40 MLOAD DUP1 DUP4 SUB DUP2 DUP6 DUP9 DUP1 EXTCODESIZE ISZERO DUP1 ISZERO PUSH2 0x2997 JUMPI PUSH1 0x0 DUP1 REVERT JUMPDEST POP GAS CALL ISZERO DUP1 ISZERO PUSH2 0x29AB JUMPI RETURNDATASIZE PUSH1 0x0 DUP1 RETURNDATACOPY RETURNDATASIZE PUSH1 0x0 REVERT JUMPDEST POP POP POP POP POP POP JUMP JUMPDEST PUSH1 0x0 DUP2 ISZERO PUSH2 0x2A0E JUMPI PUSH1 0x10 SLOAD ISZERO PUSH2 0x2A0E JUMPI PUSH1 0x0 PUSH2 0x29E0 PUSH2 0x2710 PUSH2 0xA53 PUSH1 0x10 SLOAD DUP7 PUSH2 0x234A SWAP1 SWAP2 SWAP1 PUSH4 0xFFFFFFFF AND JUMP JUMPDEST PUSH1 0x13 SLOAD PUSH1 0x7 SLOAD SWAP2 SWAP3 POP PUSH2 0x2A00 SWAP2 PUSH1 0x1 PUSH1 0x1 PUSH1 0xA0 SHL SUB SWAP1 DUP2 AND SWAP2 AND DUP4 PUSH2 0x2448 JUMP JUMPDEST PUSH2 0x2A0A DUP4 DUP3 PUSH2 0x2C57 JUMP JUMPDEST SWAP3 POP POP JUMPDEST POP DUP1 JUMPDEST SWAP2 SWAP1 POP JUMP JUMPDEST PUSH1 0x0 DUP1 PUSH1 0x11 SLOAD GT PUSH2 0x2A28 JUMPI POP DUP1 PUSH2 0x2A11 JUMP JUMPDEST PUSH1 0x0 PUSH2 0x2A45 PUSH2 0x2710 PUSH2 0xA53 PUSH1 0x11 SLOAD DUP7 PUSH2 0x234A SWAP1 SWAP2 SWAP1 PUSH4 0xFFFFFFFF AND JUMP JUMPDEST PUSH1 0xB SLOAD PUSH1 0x7 SLOAD SWAP2 SWAP3 POP PUSH1 0x1 PUSH1 0x1 PUSH1 0xA0 SHL SUB SWAP2 DUP3 AND SWAP2 AND EQ ISZERO PUSH2 0x2A83 JUMPI PUSH1 0x12 SLOAD PUSH1 0x7 SLOAD PUSH2 0x2A7E SWAP2 PUSH1 0x1 PUSH1 0x1 PUSH1 0xA0 SHL SUB SWAP2 DUP3 AND SWAP2 AND DUP4 PUSH2 0x2448 JUMP JUMPDEST PUSH2 0x2B33 JUMP JUMPDEST PUSH1 0x8 SLOAD PUSH1 0x7 SLOAD PUSH2 0x2AA0 SWAP2 PUSH1 0x1 PUSH1 0x1 PUSH1 0xA0 SHL SUB SWAP2 DUP3 AND SWAP2 AND DUP4 PUSH2 0x251B JUMP JUMPDEST PUSH2 0x2B33 PUSH1 0x8 PUSH1 0x0 SWAP1 SLOAD SWAP1 PUSH2 0x100 EXP SWAP1 DIV PUSH1 0x1 PUSH1 0x1 PUSH1 0xA0 SHL SUB AND DUP3 PUSH1 0x16 SLOAD PUSH1 0x17 DUP1 SLOAD DUP1 PUSH1 0x20 MUL PUSH1 0x20 ADD PUSH1 0x40 MLOAD SWAP1 DUP2 ADD PUSH1 0x40 MSTORE DUP1 SWAP3 SWAP2 SWAP1 DUP2 DUP2 MSTORE PUSH1 0x20 ADD DUP3 DUP1 SLOAD DUP1 ISZERO PUSH2 0x2B13 JUMPI PUSH1 0x20 MUL DUP3 ADD SWAP2 SWAP1 PUSH1 0x0 MSTORE PUSH1 0x20 PUSH1 0x0 KECCAK256 SWAP1 JUMPDEST DUP2 SLOAD PUSH1 0x1 PUSH1 0x1 PUSH1 0xA0 SHL SUB AND DUP2 MSTORE PUSH1 0x1 SWAP1 SWAP2 ADD SWAP1 PUSH1 0x20 ADD DUP1 DUP4 GT PUSH2 0x2AF5 JUMPI JUMPDEST POP POP PUSH1 0x12 SLOAD PUSH1 0x1 PUSH1 0x1 PUSH1 0xA0 SHL SUB AND SWAP3 POP PUSH2 0x147E SWAP2 POP TIMESTAMP SWAP1 POP PUSH2 0x258 PUSH2 0x23EE JUMP JUMPDEST PUSH2 0x2B3D DUP4 DUP3 PUSH2 0x2C57 JUMP JUMPDEST SWAP4 SWAP3 POP POP POP JUMP JUMPDEST DUP1 ISZERO DUP1 PUSH2 0x2BCA JUMPI POP PUSH1 0x40 DUP1 MLOAD PUSH4 0x6EB1769F PUSH1 0xE1 SHL DUP2 MSTORE ADDRESS PUSH1 0x4 DUP3 ADD MSTORE PUSH1 0x1 PUSH1 0x1 PUSH1 0xA0 SHL SUB DUP5 DUP2 AND PUSH1 0x24 DUP4 ADD MSTORE SWAP2 MLOAD SWAP2 DUP6 AND SWAP2 PUSH4 0xDD62ED3E SWAP2 PUSH1 0x44 DUP1 DUP3 ADD SWAP3 PUSH1 0x20 SWAP3 SWAP1 SWAP2 SWAP1 DUP3 SWAP1 SUB ADD DUP2 DUP7 DUP1 EXTCODESIZE ISZERO DUP1 ISZERO PUSH2 0x2B9C JUMPI PUSH1 0x0 DUP1 REVERT JUMPDEST POP GAS STATICCALL ISZERO DUP1 ISZERO PUSH2 0x2BB0 JUMPI RETURNDATASIZE PUSH1 0x0 DUP1 RETURNDATACOPY RETURNDATASIZE PUSH1 0x0 REVERT JUMPDEST POP POP POP POP PUSH1 0x40 MLOAD RETURNDATASIZE PUSH1 0x20 DUP2 LT ISZERO PUSH2 0x2BC6 JUMPI PUSH1 0x0 DUP1 REVERT JUMPDEST POP MLOAD ISZERO JUMPDEST PUSH2 0x2C05 JUMPI PUSH1 0x40 MLOAD PUSH3 0x461BCD PUSH1 0xE5 SHL DUP2 MSTORE PUSH1 0x4 ADD DUP1 DUP1 PUSH1 0x20 ADD DUP3 DUP2 SUB DUP3 MSTORE PUSH1 0x36 DUP2 MSTORE PUSH1 0x20 ADD DUP1 PUSH2 0x30FD PUSH1 0x36 SWAP2 CODECOPY PUSH1 0x40 ADD SWAP2 POP POP PUSH1 0x40 MLOAD DUP1 SWAP2 SUB SWAP1 REVERT JUMPDEST PUSH1 0x40 DUP1 MLOAD PUSH1 0x1 PUSH1 0x1 PUSH1 0xA0 SHL SUB DUP5 AND PUSH1 0x24 DUP3 ADD MSTORE PUSH1 0x44 DUP1 DUP3 ADD DUP5 SWAP1 MSTORE DUP3 MLOAD DUP1 DUP4 SUB SWAP1 SWAP2 ADD DUP2 MSTORE PUSH1 0x64 SWAP1 SWAP2 ADD SWAP1 SWAP2 MSTORE PUSH1 0x20 DUP2 ADD DUP1 MLOAD PUSH1 0x1 PUSH1 0x1 PUSH1 0xE0 SHL SUB AND PUSH4 0x95EA7B3 PUSH1 0xE0 SHL OR SWAP1 MSTORE PUSH2 0xC5A SWAP1 DUP5 SWAP1 PUSH2 0x2C99 JUMP JUMPDEST PUSH1 0x0 PUSH2 0x23A3 DUP4 DUP4 PUSH1 0x40 MLOAD DUP1 PUSH1 0x40 ADD PUSH1 0x40 MSTORE DUP1 PUSH1 0x1E DUP2 MSTORE PUSH1 0x20 ADD PUSH32 0x536166654D6174683A207375627472616374696F6E206F766572666C6F770000 DUP2 MSTORE POP PUSH2 0x2DEC JUMP JUMPDEST PUSH1 0x60 PUSH2 0x2CEE DUP3 PUSH1 0x40 MLOAD DUP1 PUSH1 0x40 ADD PUSH1 0x40 MSTORE DUP1 PUSH1 0x20 DUP2 MSTORE PUSH1 0x20 ADD PUSH32 0x5361666545524332303A206C6F772D6C6576656C2063616C6C206661696C6564 DUP2 MSTORE POP DUP6 PUSH1 0x1 PUSH1 0x1 PUSH1 0xA0 SHL SUB AND PUSH2 0x2E46 SWAP1 SWAP3 SWAP2 SWAP1 PUSH4 0xFFFFFFFF AND JUMP JUMPDEST DUP1 MLOAD SWAP1 SWAP2 POP ISZERO PUSH2 0xC5A JUMPI DUP1 DUP1 PUSH1 0x20 ADD SWAP1 MLOAD PUSH1 0x20 DUP2 LT ISZERO PUSH2 0x2D0D JUMPI PUSH1 0x0 DUP1 REVERT JUMPDEST POP MLOAD PUSH2 0xC5A JUMPI PUSH1 0x40 MLOAD PUSH3 0x461BCD PUSH1 0xE5 SHL DUP2 MSTORE PUSH1 0x4 ADD DUP1 DUP1 PUSH1 0x20 ADD DUP3 DUP2 SUB DUP3 MSTORE PUSH1 0x2A DUP2 MSTORE PUSH1 0x20 ADD DUP1 PUSH2 0x30D3 PUSH1 0x2A SWAP2 CODECOPY PUSH1 0x40 ADD SWAP2 POP POP PUSH1 0x40 MLOAD DUP1 SWAP2 SUB SWAP1 REVERT JUMPDEST PUSH1 0x0 DUP2 DUP4 PUSH2 0x2DD6 JUMPI PUSH1 0x40 MLOAD PUSH3 0x461BCD PUSH1 0xE5 SHL DUP2 MSTORE PUSH1 0x4 ADD DUP1 DUP1 PUSH1 0x20 ADD DUP3 DUP2 SUB DUP3 MSTORE DUP4 DUP2 DUP2 MLOAD DUP2 MSTORE PUSH1 0x20 ADD SWAP2 POP DUP1 MLOAD SWAP1 PUSH1 0x20 ADD SWAP1 DUP1 DUP4 DUP4 PUSH1 0x0 JUMPDEST DUP4 DUP2 LT ISZERO PUSH2 0x2D9B JUMPI DUP2 DUP2 ADD MLOAD DUP4 DUP3 ADD MSTORE PUSH1 0x20 ADD PUSH2 0x2D83 JUMP JUMPDEST POP POP POP POP SWAP1 POP SWAP1 DUP2 ADD SWAP1 PUSH1 0x1F AND DUP1 ISZERO PUSH2 0x2DC8 JUMPI DUP1 DUP3 SUB DUP1 MLOAD PUSH1 0x1 DUP4 PUSH1 0x20 SUB PUSH2 0x100 EXP SUB NOT AND DUP2 MSTORE PUSH1 0x20 ADD SWAP2 POP JUMPDEST POP SWAP3 POP POP POP PUSH1 0x40 MLOAD DUP1 SWAP2 SUB SWAP1 REVERT JUMPDEST POP PUSH1 0x0 DUP4 DUP6 DUP2 PUSH2 0x2DE2 JUMPI INVALID JUMPDEST DIV SWAP6 SWAP5 POP POP POP POP POP JUMP JUMPDEST PUSH1 0x0 DUP2 DUP5 DUP5 GT ISZERO PUSH2 0x2E3E JUMPI PUSH1 0x40 MLOAD PUSH3 0x461BCD PUSH1 0xE5 SHL DUP2 MSTORE PUSH1 0x20 PUSH1 0x4 DUP3 ADD DUP2 DUP2 MSTORE DUP4 MLOAD PUSH1 0x24 DUP5 ADD MSTORE DUP4 MLOAD SWAP1 SWAP3 DUP4 SWAP3 PUSH1 0x44 SWAP1 SWAP2 ADD SWAP2 SWAP1 DUP6 ADD SWAP1 DUP1 DUP4 DUP4 PUSH1 0x0 DUP4 ISZERO PUSH2 0x2D9B JUMPI DUP2 DUP2 ADD MLOAD DUP4 DUP3 ADD MSTORE PUSH1 0x20 ADD PUSH2 0x2D83 JUMP JUMPDEST POP POP POP SWAP1 SUB SWAP1 JUMP JUMPDEST PUSH1 0x60 PUSH2 0x2E55 DUP5 DUP5 PUSH1 0x0 DUP6 PUSH2 0x2E5D JUMP JUMPDEST SWAP5 SWAP4 POP POP POP POP JUMP JUMPDEST PUSH1 0x60 DUP3 SELFBALANCE LT ISZERO PUSH2 0x2E9E JUMPI PUSH1 0x40 MLOAD PUSH3 0x461BCD PUSH1 0xE5 SHL DUP2 MSTORE PUSH1 0x4 ADD DUP1 DUP1 PUSH1 0x20 ADD DUP3 DUP2 SUB DUP3 MSTORE PUSH1 0x26 DUP2 MSTORE PUSH1 0x20 ADD DUP1 PUSH2 0x306C PUSH1 0x26 SWAP2 CODECOPY PUSH1 0x40 ADD SWAP2 POP POP PUSH1 0x40 MLOAD DUP1 SWAP2 SUB SWAP1 REVERT JUMPDEST PUSH2 0x2EA7 DUP6 PUSH2 0x2FB9 JUMP JUMPDEST PUSH2 0x2EF8 JUMPI PUSH1 0x40 DUP1 MLOAD PUSH3 0x461BCD PUSH1 0xE5 SHL DUP2 MSTORE PUSH1 0x20 PUSH1 0x4 DUP3 ADD MSTORE PUSH1 0x1D PUSH1 0x24 DUP3 ADD MSTORE PUSH32 0x416464726573733A2063616C6C20746F206E6F6E2D636F6E7472616374000000 PUSH1 0x44 DUP3 ADD MSTORE SWAP1 MLOAD SWAP1 DUP2 SWAP1 SUB PUSH1 0x64 ADD SWAP1 REVERT JUMPDEST PUSH1 0x0 PUSH1 0x60 DUP7 PUSH1 0x1 PUSH1 0x1 PUSH1 0xA0 SHL SUB AND DUP6 DUP8 PUSH1 0x40 MLOAD DUP1 DUP3 DUP1 MLOAD SWAP1 PUSH1 0x20 ADD SWAP1 DUP1 DUP4 DUP4 JUMPDEST PUSH1 0x20 DUP4 LT PUSH2 0x2F37 JUMPI DUP1 MLOAD DUP3 MSTORE PUSH1 0x1F NOT SWAP1 SWAP3 ADD SWAP2 PUSH1 0x20 SWAP2 DUP3 ADD SWAP2 ADD PUSH2 0x2F18 JUMP JUMPDEST PUSH1 0x1 DUP4 PUSH1 0x20 SUB PUSH2 0x100 EXP SUB DUP1 NOT DUP3 MLOAD AND DUP2 DUP5 MLOAD AND DUP1 DUP3 OR DUP6 MSTORE POP POP POP POP POP POP SWAP1 POP ADD SWAP2 POP POP PUSH1 0x0 PUSH1 0x40 MLOAD DUP1 DUP4 SUB DUP2 DUP6 DUP8 GAS CALL SWAP3 POP POP POP RETURNDATASIZE DUP1 PUSH1 0x0 DUP2 EQ PUSH2 0x2F99 JUMPI PUSH1 0x40 MLOAD SWAP2 POP PUSH1 0x1F NOT PUSH1 0x3F RETURNDATASIZE ADD AND DUP3 ADD PUSH1 0x40 MSTORE RETURNDATASIZE DUP3 MSTORE RETURNDATASIZE PUSH1 0x0 PUSH1 0x20 DUP5 ADD RETURNDATACOPY PUSH2 0x2F9E JUMP JUMPDEST PUSH1 0x60 SWAP2 POP JUMPDEST POP SWAP2 POP SWAP2 POP PUSH2 0x2FAE DUP3 DUP3 DUP7 PUSH2 0x2FBF JUMP JUMPDEST SWAP8 SWAP7 POP POP POP POP POP POP POP JUMP JUMPDEST EXTCODESIZE ISZERO ISZERO SWAP1 JUMP JUMPDEST PUSH1 0x60 DUP4 ISZERO PUSH2 0x2FCE JUMPI POP DUP2 PUSH2 0x2B3D JUMP JUMPDEST DUP3 MLOAD ISZERO PUSH2 0x2FDE JUMPI DUP3 MLOAD DUP1 DUP5 PUSH1 0x20 ADD REVERT JUMPDEST PUSH1 0x40 MLOAD PUSH3 0x461BCD PUSH1 0xE5 SHL DUP2 MSTORE PUSH1 0x20 PUSH1 0x4 DUP3 ADD DUP2 DUP2 MSTORE DUP5 MLOAD PUSH1 0x24 DUP5 ADD MSTORE DUP5 MLOAD DUP6 SWAP4 SWAP2 SWAP3 DUP4 SWAP3 PUSH1 0x44 ADD SWAP2 SWAP1 DUP6 ADD SWAP1 DUP1 DUP4 DUP4 PUSH1 0x0 DUP4 ISZERO PUSH2 0x2D9B JUMPI DUP2 DUP2 ADD MLOAD DUP4 DUP3 ADD MSTORE PUSH1 0x20 ADD PUSH2 0x2D83 JUMP INVALID MSTORE PUSH6 0x656E7472616E PUSH4 0x79477561 PUSH19 0x643A207265656E7472616E742063616C6C004F PUSH24 0x6E61626C653A206E6577206F776E65722069732074686520 PUSH27 0x65726F2061646472657373416464726573733A20696E7375666669 PUSH4 0x69656E74 KECCAK256 PUSH3 0x616C61 PUSH15 0x636520666F722063616C6C53616665 0x4D PUSH2 0x7468 GASPRICE KECCAK256 PUSH14 0x756C7469706C69636174696F6E20 PUSH16 0x766572666C6F774F776E61626C653A20 PUSH4 0x616C6C65 PUSH19 0x206973206E6F7420746865206F776E65725361 PUSH7 0x6545524332303A KECCAK256 GASLIMIT MSTORE NUMBER ORIGIN ADDRESS KECCAK256 PUSH16 0x7065726174696F6E20646964206E6F74 KECCAK256 PUSH20 0x7563636565645361666545524332303A20617070 PUSH19 0x6F76652066726F6D206E6F6E2D7A65726F2074 PUSH16 0x206E6F6E2D7A65726F20616C6C6F7761 PUSH15 0x6365A2646970667358221220E8F771 0xB2 0xA6 PUSH16 0x96A5CDDFF2547E1BB5ADD0E697DC0EC8 LT CALLER PUSH29 0xB79A2AD8C991064736F6C634300060C00334F776E61626C653A206E65 PUSH24 0x206F776E657220697320746865207A65726F206164647265 PUSH20 0x738BE0079C531659141344CD1FD0A4F28419497F SWAP8 0x22 LOG3 0xDA 0xAF 0xE3 0xB4 XOR PUSH16 0x6B6457E0000000000000000000000000 "
		},
		"gasEstimates": {
			"creation": {
				"codeDepositCost": "2529600",
				"executionCost": "infinite",
				"totalCost": "infinite"
			},
			"external": {
				"AUTOAddress()": "1128",
				"autoFarmAddress()": "1147",
				"buyBackAddress()": "1104",
				"buyBackRate()": "1133",
				"buyBackRateMax()": "289",
				"buyBackRateUL()": "310",
				"controllerFee()": "1089",
				"controllerFeeMax()": "267",
				"controllerFeeUL()": "290",
				"convertDustToEarned()": "infinite",
				"deposit(address,uint256)": "infinite",
				"earn()": "infinite",
				"earnedAddress()": "1104",
				"earnedToAUTOPath(uint256)": "2060",
				"earnedToToken0Path(uint256)": "2060",
				"earnedToToken1Path(uint256)": "2082",
				"entranceFeeFactor()": "1111",
				"entranceFeeFactorLL()": "266",
				"entranceFeeFactorMax()": "309",
				"farm()": "infinite",
				"farmContractAddress()": "1116",
				"govAddress()": "1171",
				"inCaseTokensGetStuck(address,uint256,address)": "infinite",
				"isAutoComp()": "1154",
				"isCAKEStaking()": "1154",
				"isSameAssetDeposit()": "1155",
				"lastEarnBlock()": "1089",
				"onlyGov()": "1096",
				"owner()": "1127",
				"pause()": "23876",
				"paused()": "1123",
				"pid()": "1131",
				"renounceOwnership()": "infinite",
				"rewardsAddress()": "1148",
				"setBuyBackAddress(address)": "23059",
				"setGov(address)": "23081",
				"setOnlyGov(bool)": "23076",
				"setRewardsAddress(address)": "23037",
				"setSettings(uint256,uint256,uint256,uint256,uint256)": "103560",
				"setUniRouterAddress(address)": "23037",
				"sharesTotal()": "1110",
				"slippageFactor()": "1130",
				"slippageFactorUL()": "265",
				"token0Address()": "1126",
				"token0ToEarnedPath(uint256)": "2059",
				"token1Address()": "1148",
				"token1ToEarnedPath(uint256)": "2040",
				"transferOwnership(address)": "infinite",
				"uniRouterAddress()": "1149",
				"unpause()": "23824",
				"wantAddress()": "1126",
				"wantLockedTotal()": "1088",
				"wbnbAddress()": "1149",
				"withdraw(address,uint256)": "infinite",
				"withdrawFeeFactor()": "1088",
				"withdrawFeeFactorLL()": "311",
				"withdrawFeeFactorMax()": "332",
				"wrapBNB()": "infinite"
			}
		},
		"methodIdentifiers": {
			"AUTOAddress()": "366ba246",
			"autoFarmAddress()": "fa974841",
			"buyBackAddress()": "783478ad",
			"buyBackRate()": "178a8d07",
			"buyBackRateMax()": "4d9f7bb2",
			"buyBackRateUL()": "b3545c01",
			"controllerFee()": "85f02dd6",
			"controllerFeeMax()": "2717eff3",
			"controllerFeeUL()": "061c7d48",
			"convertDustToEarned()": "c11c2e92",
			"deposit(address,uint256)": "47e7ef24",
			"earn()": "d389800f",
			"earnedAddress()": "e7198474",
			"earnedToAUTOPath(uint256)": "62e582e7",
			"earnedToToken0Path(uint256)": "c8e3d18b",
			"earnedToToken1Path(uint256)": "96e9aff8",
			"entranceFeeFactor()": "1334903f",
			"entranceFeeFactorLL()": "c302a4d0",
			"entranceFeeFactorMax()": "ee50dc34",
			"farm()": "36e9332d",
			"farmContractAddress()": "9fc33a9f",
			"govAddress()": "46008a07",
			"inCaseTokensGetStuck(address,uint256,address)": "67206d40",
			"isAutoComp()": "e5dd455a",
			"isCAKEStaking()": "846d9e17",
			"isSameAssetDeposit()": "9a246643",
			"lastEarnBlock()": "0fa4e01e",
			"onlyGov()": "0daef321",
			"owner()": "8da5cb5b",
			"pause()": "8456cb59",
			"paused()": "5c975abb",
			"pid()": "f1068454",
			"renounceOwnership()": "715018a6",
			"rewardsAddress()": "c0973eed",
			"setBuyBackAddress(address)": "ad740f8c",
			"setGov(address)": "cfad57a2",
			"setOnlyGov(bool)": "0b6bb30b",
			"setRewardsAddress(address)": "8906758d",
			"setSettings(uint256,uint256,uint256,uint256,uint256)": "84fa32ac",
			"setUniRouterAddress(address)": "5da79d63",
			"sharesTotal()": "44a3955e",
			"slippageFactor()": "ffbd3b1f",
			"slippageFactorUL()": "b74cd242",
			"token0Address()": "7ff36fbe",
			"token0ToEarnedPath(uint256)": "b77050e7",
			"token1Address()": "d7cb416f",
			"token1ToEarnedPath(uint256)": "007a2ae3",
			"transferOwnership(address)": "f2fde38b",
			"uniRouterAddress()": "693a090b",
			"unpause()": "3f4ba83a",
			"wantAddress()": "e7a03679",
			"wantLockedTotal()": "42da4eb3",
			"wbnbAddress()": "63fe3e3a",
			"withdraw(address,uint256)": "f3fef3a3",
			"withdrawFeeFactor()": "68f54162",
			"withdrawFeeFactorLL()": "866b2018",
			"withdrawFeeFactorMax()": "67057b6c",
			"wrapBNB()": "d5b09163"
		}
	},
	"abi": [
		{
			"inputs": [
				{
					"internalType": "address[]",
					"name": "_addresses",
					"type": "address[]"
				},
				{
					"internalType": "uint256",
					"name": "_pid",
					"type": "uint256"
				},
				{
					"internalType": "bool",
					"name": "_isCAKEStaking",
					"type": "bool"
				},
				{
					"internalType": "bool",
					"name": "_isSameAssetDeposit",
					"type": "bool"
				},
				{
					"internalType": "bool",
					"name": "_isAutoComp",
					"type": "bool"
				},
				{
					"internalType": "address[]",
					"name": "_earnedToAUTOPath",
					"type": "address[]"
				},
				{
					"internalType": "address[]",
					"name": "_earnedToToken0Path",
					"type": "address[]"
				},
				{
					"internalType": "address[]",
					"name": "_earnedToToken1Path",
					"type": "address[]"
				},
				{
					"internalType": "address[]",
					"name": "_token0ToEarnedPath",
					"type": "address[]"
				},
				{
					"internalType": "address[]",
					"name": "_token1ToEarnedPath",
					"type": "address[]"
				},
				{
					"internalType": "uint256",
					"name": "_controllerFee",
					"type": "uint256"
				},
				{
					"internalType": "uint256",
					"name": "_buyBackRate",
					"type": "uint256"
				},
				{
					"internalType": "uint256",
					"name": "_entranceFeeFactor",
					"type": "uint256"
				},
				{
					"internalType": "uint256",
					"name": "_withdrawFeeFactor",
					"type": "uint256"
				}
			],
			"stateMutability": "nonpayable",
			"type": "constructor"
		},
		{
			"anonymous": false,
			"inputs": [
				{
					"indexed": true,
					"internalType": "address",
					"name": "previousOwner",
					"type": "address"
				},
				{
					"indexed": true,
					"internalType": "address",
					"name": "newOwner",
					"type": "address"
				}
			],
			"name": "OwnershipTransferred",
			"type": "event"
		},
		{
			"anonymous": false,
			"inputs": [
				{
					"indexed": false,
					"internalType": "address",
					"name": "account",
					"type": "address"
				}
			],
			"name": "Paused",
			"type": "event"
		},
		{
			"anonymous": false,
			"inputs": [
				{
					"indexed": false,
					"internalType": "address",
					"name": "_buyBackAddress",
					"type": "address"
				}
			],
			"name": "SetBuyBackAddress",
			"type": "event"
		},
		{
			"anonymous": false,
			"inputs": [
				{
					"indexed": false,
					"internalType": "address",
					"name": "_govAddress",
					"type": "address"
				}
			],
			"name": "SetGov",
			"type": "event"
		},
		{
			"anonymous": false,
			"inputs": [
				{
					"indexed": false,
					"internalType": "bool",
					"name": "_onlyGov",
					"type": "bool"
				}
			],
			"name": "SetOnlyGov",
			"type": "event"
		},
		{
			"anonymous": false,
			"inputs": [
				{
					"indexed": false,
					"internalType": "address",
					"name": "_rewardsAddress",
					"type": "address"
				}
			],
			"name": "SetRewardsAddress",
			"type": "event"
		},
		{
			"anonymous": false,
			"inputs": [
				{
					"indexed": false,
					"internalType": "uint256",
					"name": "_entranceFeeFactor",
					"type": "uint256"
				},
				{
					"indexed": false,
					"internalType": "uint256",
					"name": "_withdrawFeeFactor",
					"type": "uint256"
				},
				{
					"indexed": false,
					"internalType": "uint256",
					"name": "_controllerFee",
					"type": "uint256"
				},
				{
					"indexed": false,
					"internalType": "uint256",
					"name": "_buyBackRate",
					"type": "uint256"
				},
				{
					"indexed": false,
					"internalType": "uint256",
					"name": "_slippageFactor",
					"type": "uint256"
				}
			],
			"name": "SetSettings",
			"type": "event"
		},
		{
			"anonymous": false,
			"inputs": [
				{
					"indexed": false,
					"internalType": "address",
					"name": "_uniRouterAddress",
					"type": "address"
				}
			],
			"name": "SetUniRouterAddress",
			"type": "event"
		},
		{
			"anonymous": false,
			"inputs": [
				{
					"indexed": false,
					"internalType": "address",
					"name": "account",
					"type": "address"
				}
			],
			"name": "Unpaused",
			"type": "event"
		},
		{
			"inputs": [],
			"name": "AUTOAddress",
			"outputs": [
				{
					"internalType": "address",
					"name": "",
					"type": "address"
				}
			],
			"stateMutability": "view",
			"type": "function"
		},
		{
			"inputs": [],
			"name": "autoFarmAddress",
			"outputs": [
				{
					"internalType": "address",
					"name": "",
					"type": "address"
				}
			],
			"stateMutability": "view",
			"type": "function"
		},
		{
			"inputs": [],
			"name": "buyBackAddress",
			"outputs": [
				{
					"internalType": "address",
					"name": "",
					"type": "address"
				}
			],
			"stateMutability": "view",
			"type": "function"
		},
		{
			"inputs": [],
			"name": "buyBackRate",
			"outputs": [
				{
					"internalType": "uint256",
					"name": "",
					"type": "uint256"
				}
			],
			"stateMutability": "view",
			"type": "function"
		},
		{
			"inputs": [],
			"name": "buyBackRateMax",
			"outputs": [
				{
					"internalType": "uint256",
					"name": "",
					"type": "uint256"
				}
			],
			"stateMutability": "view",
			"type": "function"
		},
		{
			"inputs": [],
			"name": "buyBackRateUL",
			"outputs": [
				{
					"internalType": "uint256",
					"name": "",
					"type": "uint256"
				}
			],
			"stateMutability": "view",
			"type": "function"
		},
		{
			"inputs": [],
			"name": "controllerFee",
			"outputs": [
				{
					"internalType": "uint256",
					"name": "",
					"type": "uint256"
				}
			],
			"stateMutability": "view",
			"type": "function"
		},
		{
			"inputs": [],
			"name": "controllerFeeMax",
			"outputs": [
				{
					"internalType": "uint256",
					"name": "",
					"type": "uint256"
				}
			],
			"stateMutability": "view",
			"type": "function"
		},
		{
			"inputs": [],
			"name": "controllerFeeUL",
			"outputs": [
				{
					"internalType": "uint256",
					"name": "",
					"type": "uint256"
				}
			],
			"stateMutability": "view",
			"type": "function"
		},
		{
			"inputs": [],
			"name": "convertDustToEarned",
			"outputs": [],
			"stateMutability": "nonpayable",
			"type": "function"
		},
		{
			"inputs": [
				{
					"internalType": "address",
					"name": "_userAddress",
					"type": "address"
				},
				{
					"internalType": "uint256",
					"name": "_wantAmt",
					"type": "uint256"
				}
			],
			"name": "deposit",
			"outputs": [
				{
					"internalType": "uint256",
					"name": "",
					"type": "uint256"
				}
			],
			"stateMutability": "nonpayable",
			"type": "function"
		},
		{
			"inputs": [],
			"name": "earn",
			"outputs": [],
			"stateMutability": "nonpayable",
			"type": "function"
		},
		{
			"inputs": [],
			"name": "earnedAddress",
			"outputs": [
				{
					"internalType": "address",
					"name": "",
					"type": "address"
				}
			],
			"stateMutability": "view",
			"type": "function"
		},
		{
			"inputs": [
				{
					"internalType": "uint256",
					"name": "",
					"type": "uint256"
				}
			],
			"name": "earnedToAUTOPath",
			"outputs": [
				{
					"internalType": "address",
					"name": "",
					"type": "address"
				}
			],
			"stateMutability": "view",
			"type": "function"
		},
		{
			"inputs": [
				{
					"internalType": "uint256",
					"name": "",
					"type": "uint256"
				}
			],
			"name": "earnedToToken0Path",
			"outputs": [
				{
					"internalType": "address",
					"name": "",
					"type": "address"
				}
			],
			"stateMutability": "view",
			"type": "function"
		},
		{
			"inputs": [
				{
					"internalType": "uint256",
					"name": "",
					"type": "uint256"
				}
			],
			"name": "earnedToToken1Path",
			"outputs": [
				{
					"internalType": "address",
					"name": "",
					"type": "address"
				}
			],
			"stateMutability": "view",
			"type": "function"
		},
		{
			"inputs": [],
			"name": "entranceFeeFactor",
			"outputs": [
				{
					"internalType": "uint256",
					"name": "",
					"type": "uint256"
				}
			],
			"stateMutability": "view",
			"type": "function"
		},
		{
			"inputs": [],
			"name": "entranceFeeFactorLL",
			"outputs": [
				{
					"internalType": "uint256",
					"name": "",
					"type": "uint256"
				}
			],
			"stateMutability": "view",
			"type": "function"
		},
		{
			"inputs": [],
			"name": "entranceFeeFactorMax",
			"outputs": [
				{
					"internalType": "uint256",
					"name": "",
					"type": "uint256"
				}
			],
			"stateMutability": "view",
			"type": "function"
		},
		{
			"inputs": [],
			"name": "farm",
			"outputs": [],
			"stateMutability": "nonpayable",
			"type": "function"
		},
		{
			"inputs": [],
			"name": "farmContractAddress",
			"outputs": [
				{
					"internalType": "address",
					"name": "",
					"type": "address"
				}
			],
			"stateMutability": "view",
			"type": "function"
		},
		{
			"inputs": [],
			"name": "govAddress",
			"outputs": [
				{
					"internalType": "address",
					"name": "",
					"type": "address"
				}
			],
			"stateMutability": "view",
			"type": "function"
		},
		{
			"inputs": [
				{
					"internalType": "address",
					"name": "_token",
					"type": "address"
				},
				{
					"internalType": "uint256",
					"name": "_amount",
					"type": "uint256"
				},
				{
					"internalType": "address",
					"name": "_to",
					"type": "address"
				}
			],
			"name": "inCaseTokensGetStuck",
			"outputs": [],
			"stateMutability": "nonpayable",
			"type": "function"
		},
		{
			"inputs": [],
			"name": "isAutoComp",
			"outputs": [
				{
					"internalType": "bool",
					"name": "",
					"type": "bool"
				}
			],
			"stateMutability": "view",
			"type": "function"
		},
		{
			"inputs": [],
			"name": "isCAKEStaking",
			"outputs": [
				{
					"internalType": "bool",
					"name": "",
					"type": "bool"
				}
			],
			"stateMutability": "view",
			"type": "function"
		},
		{
			"inputs": [],
			"name": "isSameAssetDeposit",
			"outputs": [
				{
					"internalType": "bool",
					"name": "",
					"type": "bool"
				}
			],
			"stateMutability": "view",
			"type": "function"
		},
		{
			"inputs": [],
			"name": "lastEarnBlock",
			"outputs": [
				{
					"internalType": "uint256",
					"name": "",
					"type": "uint256"
				}
			],
			"stateMutability": "view",
			"type": "function"
		},
		{
			"inputs": [],
			"name": "onlyGov",
			"outputs": [
				{
					"internalType": "bool",
					"name": "",
					"type": "bool"
				}
			],
			"stateMutability": "view",
			"type": "function"
		},
		{
			"inputs": [],
			"name": "owner",
			"outputs": [
				{
					"internalType": "address",
					"name": "",
					"type": "address"
				}
			],
			"stateMutability": "view",
			"type": "function"
		},
		{
			"inputs": [],
			"name": "pause",
			"outputs": [],
			"stateMutability": "nonpayable",
			"type": "function"
		},
		{
			"inputs": [],
			"name": "paused",
			"outputs": [
				{
					"internalType": "bool",
					"name": "",
					"type": "bool"
				}
			],
			"stateMutability": "view",
			"type": "function"
		},
		{
			"inputs": [],
			"name": "pid",
			"outputs": [
				{
					"internalType": "uint256",
					"name": "",
					"type": "uint256"
				}
			],
			"stateMutability": "view",
			"type": "function"
		},
		{
			"inputs": [],
			"name": "renounceOwnership",
			"outputs": [],
			"stateMutability": "nonpayable",
			"type": "function"
		},
		{
			"inputs": [],
			"name": "rewardsAddress",
			"outputs": [
				{
					"internalType": "address",
					"name": "",
					"type": "address"
				}
			],
			"stateMutability": "view",
			"type": "function"
		},
		{
			"inputs": [
				{
					"internalType": "address",
					"name": "_buyBackAddress",
					"type": "address"
				}
			],
			"name": "setBuyBackAddress",
			"outputs": [],
			"stateMutability": "nonpayable",
			"type": "function"
		},
		{
			"inputs": [
				{
					"internalType": "address",
					"name": "_govAddress",
					"type": "address"
				}
			],
			"name": "setGov",
			"outputs": [],
			"stateMutability": "nonpayable",
			"type": "function"
		},
		{
			"inputs": [
				{
					"internalType": "bool",
					"name": "_onlyGov",
					"type": "bool"
				}
			],
			"name": "setOnlyGov",
			"outputs": [],
			"stateMutability": "nonpayable",
			"type": "function"
		},
		{
			"inputs": [
				{
					"internalType": "address",
					"name": "_rewardsAddress",
					"type": "address"
				}
			],
			"name": "setRewardsAddress",
			"outputs": [],
			"stateMutability": "nonpayable",
			"type": "function"
		},
		{
			"inputs": [
				{
					"internalType": "uint256",
					"name": "_entranceFeeFactor",
					"type": "uint256"
				},
				{
					"internalType": "uint256",
					"name": "_withdrawFeeFactor",
					"type": "uint256"
				},
				{
					"internalType": "uint256",
					"name": "_controllerFee",
					"type": "uint256"
				},
				{
					"internalType": "uint256",
					"name": "_buyBackRate",
					"type": "uint256"
				},
				{
					"internalType": "uint256",
					"name": "_slippageFactor",
					"type": "uint256"
				}
			],
			"name": "setSettings",
			"outputs": [],
			"stateMutability": "nonpayable",
			"type": "function"
		},
		{
			"inputs": [
				{
					"internalType": "address",
					"name": "_uniRouterAddress",
					"type": "address"
				}
			],
			"name": "setUniRouterAddress",
			"outputs": [],
			"stateMutability": "nonpayable",
			"type": "function"
		},
		{
			"inputs": [],
			"name": "sharesTotal",
			"outputs": [
				{
					"internalType": "uint256",
					"name": "",
					"type": "uint256"
				}
			],
			"stateMutability": "view",
			"type": "function"
		},
		{
			"inputs": [],
			"name": "slippageFactor",
			"outputs": [
				{
					"internalType": "uint256",
					"name": "",
					"type": "uint256"
				}
			],
			"stateMutability": "view",
			"type": "function"
		},
		{
			"inputs": [],
			"name": "slippageFactorUL",
			"outputs": [
				{
					"internalType": "uint256",
					"name": "",
					"type": "uint256"
				}
			],
			"stateMutability": "view",
			"type": "function"
		},
		{
			"inputs": [],
			"name": "token0Address",
			"outputs": [
				{
					"internalType": "address",
					"name": "",
					"type": "address"
				}
			],
			"stateMutability": "view",
			"type": "function"
		},
		{
			"inputs": [
				{
					"internalType": "uint256",
					"name": "",
					"type": "uint256"
				}
			],
			"name": "token0ToEarnedPath",
			"outputs": [
				{
					"internalType": "address",
					"name": "",
					"type": "address"
				}
			],
			"stateMutability": "view",
			"type": "function"
		},
		{
			"inputs": [],
			"name": "token1Address",
			"outputs": [
				{
					"internalType": "address",
					"name": "",
					"type": "address"
				}
			],
			"stateMutability": "view",
			"type": "function"
		},
		{
			"inputs": [
				{
					"internalType": "uint256",
					"name": "",
					"type": "uint256"
				}
			],
			"name": "token1ToEarnedPath",
			"outputs": [
				{
					"internalType": "address",
					"name": "",
					"type": "address"
				}
			],
			"stateMutability": "view",
			"type": "function"
		},
		{
			"inputs": [
				{
					"internalType": "address",
					"name": "newOwner",
					"type": "address"
				}
			],
			"name": "transferOwnership",
			"outputs": [],
			"stateMutability": "nonpayable",
			"type": "function"
		},
		{
			"inputs": [],
			"name": "uniRouterAddress",
			"outputs": [
				{
					"internalType": "address",
					"name": "",
					"type": "address"
				}
			],
			"stateMutability": "view",
			"type": "function"
		},
		{
			"inputs": [],
			"name": "unpause",
			"outputs": [],
			"stateMutability": "nonpayable",
			"type": "function"
		},
		{
			"inputs": [],
			"name": "wantAddress",
			"outputs": [
				{
					"internalType": "address",
					"name": "",
					"type": "address"
				}
			],
			"stateMutability": "view",
			"type": "function"
		},
		{
			"inputs": [],
			"name": "wantLockedTotal",
			"outputs": [
				{
					"internalType": "uint256",
					"name": "",
					"type": "uint256"
				}
			],
			"stateMutability": "view",
			"type": "function"
		},
		{
			"inputs": [],
			"name": "wbnbAddress",
			"outputs": [
				{
					"internalType": "address",
					"name": "",
					"type": "address"
				}
			],
			"stateMutability": "view",
			"type": "function"
		},
		{
			"inputs": [
				{
					"internalType": "address",
					"name": "_userAddress",
					"type": "address"
				},
				{
					"internalType": "uint256",
					"name": "_wantAmt",
					"type": "uint256"
				}
			],
			"name": "withdraw",
			"outputs": [
				{
					"internalType": "uint256",
					"name": "",
					"type": "uint256"
				}
			],
			"stateMutability": "nonpayable",
			"type": "function"
		},
		{
			"inputs": [],
			"name": "withdrawFeeFactor",
			"outputs": [
				{
					"internalType": "uint256",
					"name": "",
					"type": "uint256"
				}
			],
			"stateMutability": "view",
			"type": "function"
		},
		{
			"inputs": [],
			"name": "withdrawFeeFactorLL",
			"outputs": [
				{
					"internalType": "uint256",
					"name": "",
					"type": "uint256"
				}
			],
			"stateMutability": "view",
			"type": "function"
		},
		{
			"inputs": [],
			"name": "withdrawFeeFactorMax",
			"outputs": [
				{
					"internalType": "uint256",
					"name": "",
					"type": "uint256"
				}
			],
			"stateMutability": "view",
			"type": "function"
		},
		{
			"inputs": [],
			"name": "wrapBNB",
			"outputs": [],
			"stateMutability": "nonpayable",
			"type": "function"
		}
	]
}